:020000040800F2
:1000000068060020D5010008DD010008DF010008B6
:10001000E1010008E3010008E5010008000000001C
:10002000000000000000000000000000E7010008E0
:10003000E901000800000000EB010008ED010008E4
:10004000EF010008EF010008EF010008EF010008D0
:10005000EF010008EF010008EF010008EF010008C0
:10006000EF010008EF010008EF010008EF010008B0
:10007000EF010008EF010008EF010008EF010008A0
:10008000EF010008EF010008EF010008EF01000890
:10009000EF010008EF010008EF010008EF01000880
:1000A000EF010008EF010008EF010008EF01000870
:1000B000EF010008EF010008EF010008EF01000860
:1000C000EF010008EF010008EF010008EF01000850
:1000D000EF010008EF010008EF010008EF01000840
:1000E000EF010008EF010008EF010008EF01000830
:1000F000EF010008EF010008EF010008EF01000820
:10010000EF010008EF010008EF010008EF0100080F
:10011000EF010008EF010008EF010008EF010008FF
:10012000EF010008EF010008EF010008EF010008EF
:1001300000F002F800F03AF80AA090E8000C8244BF
:100140008344AAF10107DA4501D100F02FF8AFF29C
:10015000090EBAE80F0013F0010F18BFFB1A43F0A5
:1001600001031847D0040000F0040000103A24BF37
:1001700078C878C1FAD8520724BF30C830C144BF0C
:1001800004680C607047000000230024002500264E
:10019000103A28BF78C1FBD8520728BF30C148BFEA
:1001A0000B6070471FB51FBD10B510BD00F035F8CE
:1001B0001146FFF7F7FF00F021FA00F053F803B4FF
:1001C000FFF7F2FF03BC00F05BF8000080F3088843
:1001D000704700000948804709480047FEE7FEE7EE
:1001E000FEE7FEE7FEE7FEE7FEE7FEE7FEE7FEE7E7
:1001F00004480549054A064B70470000E904000819
:100200003101000868000020680600206802002014
:1002100068020020704770477047754600F02CF860
:10022000AE4605006946534620F00700854618B0E3
:1002300020B5FFF7DDFFBDE820404FF000064FF08E
:1002400000074FF000084FF0000B21F00701AC460B
:10025000ACE8C009ACE8C009ACE8C009ACE8C0092A
:100260008D46704710B50446AFF300802046BDE8C8
:100270001040FFF7A4BF00000048704704000020B2
:1002800001491820ABBEFEE72600020070470000BF
:100290000149C860704700000020024030B50446A4
:1002A00004254FF4302000F089F80546042D17D1BD
:1002B0000C48006940F002000A49086108464461A0
:1002C000006940F0400008614FF4302000F076F8FB
:1002D00005460448006941F6FD710840014908617E
:1002E000284630BD0020024004200B49C96801F0B7
:1002F000010109B101200EE00749C96801F00401BC
:1003000009B1022007E00449C96801F0100109B1F0
:10031000032000E0042070470020024004200B4925
:10032000C96801F0010109B101200EE00749C9685F
:1003300001F0040109B1022007E00449C96801F095
:10034000100109B1032000E00420704700200240A2
:100350000348006940F080000149086170470000CF
:100360000020024070B504460D460426F00200F05D
:1003700025F80646042E11D10948006940F0010015
:10038000074908612580F00200F018F80646044885
:10039000006941F6FE71084001490861304670BDB0
:1003A0000020024002480349486003484860704703
:1003B0002301674500200240AB89EFCD00B502461E
:1003C0000423FFF791FF034603E0FFF78DFF034689
:1003D000521E012B01D1002AF7D102B9052318467C
:1003E00000BD10B502460B460020002100BF04E00E
:1003F00032F811400444A0B2491C9942F8D310BD10
:1004000010B500F001F810BD0CB50020019000906F
:100410003348006840F480303149086000BF3048FC
:10042000006800F4003000900198401C0190009892
:1004300018B90198B0F5A06FF1D12948006800F40F
:10044000003010B10120009001E0002000900098E1
:10045000012843D12348006840F01000214908607A
:100460000846006820F0030008600846006840F075
:10047000020008601A484068194948600846406808
:1004800048600846406840F480604860084640681C
:1004900020F47C1048600846406840F4E81048604A
:1004A0000846006840F08070086000BF0C48006893
:1004B00000F000700028F9D00948406820F00300DF
:1004C000074948600846406840F00200486000BFA5
:1004D0000348406800F00C000828F9D10CBD00006A
:1004E000001002400020024010B51348006840F0A0
:1004F00001001149086008464068104908400E494B
:100500004860084600680E4908400B4908600846E4
:10051000006820F4802008600846406820F4FE004F
:1005200048604FF41F008860FFF76AFF4FF00060DB
:100530000449086010BD0000001002400000FFF8F0
:10054000FFFFF6FE08ED00E070B548E04FF4A03183
:100550002748FFF746FF4FF6FF7188422FD1FFF77C
:1005600021FF3520FFF794FE00240AE0214901EB2A
:10057000C420FFF793FE00BFFFF7D0FE0128FBD099
:10058000641C502CF2D31C480668002413E0184960
:1005900031F8145000BFFFF7C1FE0128FBD0154908
:1005A00001EB44002946FFF7DDFE00BFFFF7B6FE72
:1005B0000128FBD0641CB442E9D3FFF7C9FEFFF762
:1005C000F1FE3520FFF764FE0B48801EFFF766FE44
:1005D00000BFFFF7A3FE0128FBD0FFF7B9FE0648D6
:1005E000801E00884AF6AA218842AFD070BD000064
:1005F00000A002080020000802F00708FFF7A4FF8F
:1006000011E00948006809490840B0F1005F0AD1CB
:10061000054840680649086003490868FFF7D6FDA9
:10062000034800688047ECE7002000080000FE2F28
:100630000000002054060008000000200400000014
:100640006C01000858060008040000206406000041
:08065000880100080000000011
:0400000508000131BD
:00000001FF
:102000008055002041220008492200084B22000888
:102010004D2200084F220008512200080000000055
:102020000000000000000000000000005322000833
:1020300055220008000000004F230008BD8700085B
:102040005B2200085B2200085B2200085B2200087C
:102050005B2200085B2200085B2200085B2200086C
:102060005B2200085B2200085B2200087D4A000812
:102070005B2200085B2200085B2200085B2200084C
:102080005B2200085B2200085B2200085B2200083C
:102090005B2200085B2200085B2200085B2200082C
:1020A0005B2200085B2200085B2200085B2200081C
:1020B0005B22000805B800085B2200085B220008CC
:1020C0005B2200085B2200085B2200085B220008FC
:1020D0005B2200085B2200085B2200085B220008EC
:1020E0005B2200085B2200085B2200085B220008DC
:1020F0005B2200085B2200085B2200085B220008CC
:102100005B2200085B2200085B2200085B220008BB
:1021100031BD00085B2200085B2200085B2200083A
:102120005B2200085B2200085B2200085B2200089B
:1021300000F002F800F05AF80AA090E8000C82447F
:102140008344AAF10107DA4501D100F04FF8AFF25C
:10215000090EBAE80F0013F0010F18BFFB1A43F085
:102160000103184758C5000078C500000A444FF025
:10217000000C10F8013B13F0070408BF10F8014BE6
:102180001D1108BF10F8015B641E05D010F8016B2B
:10219000641E01F8016BF9D113F0080F1EBF10F88F
:1021A000014BAD1C0C1B09D16D1E58BF01F801CBB2
:1021B000FAD505E014F8016B01F8016B6D1EF9D535
:1021C0009142D6D37047000000230024002500264A
:1021D000103A28BF78C1FBD8520728BF30C148BF8A
:1021E0000B6070471FB51FBD10B510BD00F05EF845
:1021F0001146FFF7F7FF0AF04BFC00F07CF803B440
:10220000FFF7F2FF03BC00F07FF8000072B67047E2
:1022100062B67047EFF3108072B6704780F3108893
:10222000704730BF704720BF7047B0FA80F07047EA
:1022300090FAA0F0B0FA80F0704790FAA0F07047E2
:102240000948804709480047FEE7FEE7FEE7FEE74A
:10225000FEE7FEE7FEE7FEE7FEE7FEE70448054986
:10226000054A064B7047000035B7000831210008C9
:10227000804F002080550020805100208051002098
:1022800070477047704710B500F008F8006810BD3F
:1022900010B5044600F002F8046010BD0048704715
:1022A000204F002000487047204F00207546FFF760
:1022B000F9FFAE4605006946534620F00700854603
:1022C00018B020B5FFF7CAFFBDE820404FF0000668
:1022D0004FF000074FF000084FF0000B21F007010E
:1022E000AC46ACE8C009ACE8C009ACE8C009ACE851
:1022F000C0098D46704710B50446AFF300802046F4
:10230000BDE81040FFF77BBF01491820ABBEFEE7D8
:1023100026000200704700001D484FF0FF010170C9
:10232000002080F309881B48016881F308881A4857
:102330004FF08051016062B6FEE717484FF08051C0
:102340000160704714484FF080510160704772B6C9
:10235000EFF3098028B1203880E8F00F0F490968B1
:10236000086000B50E4880475DF804EB0D480E4943
:102370000A78027009480D490A680260106890E8FE
:10238000F00F203080F309884EF0F40E62B67047EB
:1023900022ED00E06400002004ED00E05C0000207D
:1023A0003D86000830000020310000206000002041
:1023B00010B502210F4800F0F5F800210E4802F098
:1023C000FDFB32200C490839C86001210A4802F09F
:1023D000F5FB0121074800F0F3F8064808300068D3
:1023E00040F002000349083108600121014800F073
:1023F00086F910BD002401400800024000B591B0EC
:102400000121480207F0CCFD0121082007F0C8FD9A
:102410000121102007F0C4FD4FF4004007F094FDA7
:102420000120ADF8400000208DF8430010A9584865
:1024300002F0C2FF0220ADF8400000208DF84300FA
:1024400010A9534802F0B8FF0120ADF84000002069
:102450008DF8430010A94F4802F0AEFF0820ADF8F8
:10246000400000208DF8430010A94A4802F0A4FF64
:102470000420ADF8400000208DF8430010A9454825
:1024800002F09AFF0121084607F06AFD42480090D9
:1024900042480190002002903220039000200490D6
:1024A0008020059040000690800007900020089052
:1024B0004FF40050099000200A906946384802F015
:1024C000A8FB0121364802F079FB012202213448A1
:1024D00002F096FB00200B9001208DF830008DF863
:1024E00031004FF460200D9000200E9005208DF8F3
:1024F0003C000BA928484C3800F078F8072301224B
:10250000082125484C3800F099F8072302220921B8
:1025100021484C3800F092F8072303220A211E4874
:102520004C3800F08BF8072304220C211A484C3851
:1025300000F084F8072305220D2117484C3800F0DD
:102540007DF8012114484C3800F03AF80121124876
:102550004C3800F02AF810484C3800F0CBF800BF97
:102560000D484C3800F037F80028F9D10A484C38AB
:1025700000F0D0F800BF08484C3800F02CF80028D4
:10258000F9D1012104484C3800F0B9F811B000BD70
:10259000000C0140001001404C240140904E0020EE
:1025A00008000240CA430260704721B1826842F0CD
:1025B0000102826003E0826822F0010282607047BB
:1025C00021B1826842F48072826003E0826822F462
:1025D000807282607047014600208A6802F004021F
:1025E0000AB1012000E000207047000030B502462B
:1025F0000020002350680F4C20400D790C6844EAFD
:1026000005242043506090680B4C2040D1E90254CF
:102610002C434D7944EA450420439060D06A20F46D
:1026200070000C7C641EE4B2234340EA0350D06285
:1026300030BD0000FFFEF0FFFDF7F1FFF0B50446EE
:102640000D4600200021092D11DDE068A5F10A06E4
:1026500006EB4607072606FA07F18843A5F10A06A6
:1026600006EB460603FA06F10843E0600CE0206939
:1026700005EB4507072606FA07F1884305EB4506F3
:1026800003FA06F108432061072A0FDA606B561E31
:1026900006EB86071F2606FA07F18843561E06EB4F
:1026A000860605FA06F10843606322E00D2A0FDA78
:1026B000206BD61F06EB86071F2606FA07F1884314
:1026C000D61F06EB860605FA06F10843206310E0E4
:1026D000E06AA2F10D0606EB86071F2606FA07F14F
:1026E0008843A2F10D0606EB860605FA06F10843BB
:1026F000E062F0BD816841F008018160704721B15E
:10270000826842F4A002826003E0826822F4A002A0
:1027100082607047816841F0040181607047000069
:1027200053485449086054484860544888605448A5
:10273000C860544808615448486154488861544806
:10274000C8615448086254484862544888625448F2
:10275000C8625448086354484863544888635448DE
:10276000C8655448086654484866544888665448C2
:10277000C866544808675448C1F884005348C1F8F3
:1027800088005348C1F898005248C1F89C0052484C
:10279000C1F8A0005148C1F8AC005148C1F8B000E0
:1027A0005048C1F8B4005048C1F8B8004F48C1F8CB
:1027B000BC004F48C1F8C0004E48C1F8C4004E48A4
:1027C000C1F8C8004D48C1F8CC004D48C1F8D00050
:1027D0004C48C1F8DC004C48C1F8E0004B48C1F857
:1027E000E4004B48C1F8E8004A48C1F8EC004A4808
:1027F000C1F844014948C1F848014948C1F85001AD
:102800004848C1F854014848C1F864014748C1F834
:1028100068014748C1F86C014648C1F87001464854
:10282000C1F874014548C1F878014548C1F88C01E8
:102830004448C1F890014448C1F894014348C1F8A4
:1028400098014348C1F89C014248C1F8A0014248A0
:10285000C1F8A4014148C1F8A8014148C1F8BC0130
:102860004048C1F8C0014048C1F8C40170470000A9
:10287000DDA0000858470020F9AF000819B0000893
:102880007DB100089DB1000801A100088DA40008D9
:1028900021A1000831A10008699E0008799E000866
:1028A00051A3000861A30008E9A10008F9A10008EC
:1028B000D1AD0008F9AC0008D9AB000839AC00086C
:1028C00099AC000859AD00081DAB0008F9A3000839
:1028D00091A10008E5A3000841A10008A1AA0008F1
:1028E000BDAA000889A70008A5A700089DA60008A2
:1028F000B9A6000831AE00084DAE0008CDA500080D
:10290000E9A5000869A10008099F0008B99E000810
:10291000219F0008899E0008FDA4000871AA0008F4
:10292000C1A40008EDA800082DA9000849A90008C5
:10293000C1A90008DDA900085DAB000879AB00085B
:10294000F5AE0008C1AE0008A9A8000875A80008E7
:1029500035A5000851A5000825AF000841AF0008C3
:1029600029A4000865A60008BDAF000870B50024C2
:10297000304890F84C0000F0F000802805D12D4838
:1029800090F84C0000F00F0030B100202A49088078
:102990002A482B49086070BD0020264981F8B00103
:1029A0000021244880F8B11123480088401C2249A6
:1029B000088008460088B0F5967F00DAEBE7002033
:1029C0001D4908801B4890F8F801C0F3401058BB1F
:1029D000184890F8F801C0F3001028BB1548D0F84B
:1029E000B81118480BF02AFD054612480168284620
:1029F0000BF092F90446144920460BF02BFB07D24A
:102A0000124920460BF026FC02D20A48046002E07C
:102A10000020084908600748D0F8FC0120F00100B8
:102A2000401C0449C1F8FC0100210248C16400BFF8
:102A3000B1E70000B0090020A800002011680008DC
:102A4000980000200000B44200002041000020C196
:102A50001CB5002400BF00F027F821E069460020E3
:102A600002F090FD48B90F48016800980BF054F946
:102A70000C49C1F8B80100240DE0142C02DA601CE6
:102A800084B208E00748D0F8F80120F010001030B8
:102A90000449C1F8F80101AA0021022005F016FE40
:102AA000DCE70000B009002008B508F0F9FB04F0ED
:102AB0005DF86946182008F09DFB9DF80000382855
:102AC00001D1002008BD4FF0FF30FBE708B500BF83
:102AD0000BE000F0B5FC02F0ABFD0449C1F8F401D5
:102AE0006A4600211E2005F0F1FDF2E7B009002042
:102AF00010B5204890F84C00282803D01E481F49E4
:102B0000086010BD00201B4981F8B001486B4FF0F0
:102B10007E510BF001F904461648816D20460BF0FA
:102B200099FB08D21349486B4FF07E510BF0F4F833
:102B30001049486518E00F49886B4FF07E510BF043
:102B40007DFC04460B48816D20460BF083FA08D2C9
:102B50000849886B4FF07E510BF070FC05494865C1
:102B600002E00448816D41650121024880F8B111FD
:102B700000BFC6E7B0090020252C00089C000020FB
:102B800010B50C4890F84C00252803D00A480B4992
:102B9000086010BD0020074981F8B001888F0BF054
:102BA00045FA044948650121024880F8B11100BF87
:102BB000EFE70000B0090020252C00089C00002051
:102BC00010B5144890F84C0000F0F000202818D1FF
:102BD0001048D0F8F801C0F3807068B90D48D0F8FB
:102BE000F801C0F3006038B909F0E6F900F082FAA4
:102BF0000948006880470BE00021064880F8B111C1
:102C000006E00648064908600021024880F8B11134
:102C100010BD0000B00900209C00002011680008D1
:102C20009800002000211F4880F8B11190F84C0056
:102C3000242803D11C481D49086032E0194890F847
:102C40004C00252803D11A481849086029E0154886
:102C500090F84C00282806D1164814490860002135
:102C60001048C1651DE00F4890F84C00212803D1A1
:102C700011480E49086014E00A4890F84C002228D8
:102C800003D10E48094908600BE0064890F84C0053
:102C9000202803D10A480549086002E009480A498A
:102CA00008607047B0090020F12F00089C00002048
:102CB000812B0008F12A0008CD2C0008E52E000821
:102CC000592F0008116800089800002010B57C48B2
:102CD00090F84C00212808D000207A4908707A49E1
:102CE00008807A487A49086010BD0020744981F84C
:102CF000B0017448007805287ED2DFE800F0032D8B
:102D00006581B80073496E484165012180F8B111B1
:102D1000014608696F490AF0FFFF04466848D0F889
:102D2000B81120460BF096FA15D865480169694834
:102D30000BF084FB04466248D0F8B81120460BF033
:102D400089F908D80120644908705E49087000219B
:102D50005B4880F8B111B0E00121594880F8B11109
:102D60005D49097801EB8101490001F13C000BF05C
:102D700045F953494865486D58490BF06BFA0AD834
:102D800001205549087003204E49087000214C4825
:102D900080F8B11117E04A49486D4FF07E510BF0B1
:102DA0004DFB04464648D0F8B81120460BF052F9C6
:102DB00009D20220434908700020434908800021BD
:102DC0003F4880F8B11178E000213D4880F8B1110A
:102DD0003D4801880088401C3B4A108042F6E06074
:102DE00081420CDB00201146088001203549087023
:102DF00039480078401C00E053E0374908705CE037
:102E000001212F4880F8B1113349097801EB810184
:102E10004900C1F178000BF0F1F829494865486D87
:102E20002F490BF017F909D801202B4908702549C3
:102E300008700021224880F8B11117E02049486D40
:102E40004FF07E510AF068FF04461D48D0F8B811D3
:102E500020460BF0FFF909D804201A490870002019
:102E6000194908800021164880F8B11125E0002199
:102E7000134880F8B111144801880088401C124A98
:102E8000108042F6E06081420ADB00201146088093
:102E900003200C49087010480078401C0E49087047
:102EA0000BE0002007490870074908800A490870AC
:102EB0000021034880F8B11100BF00BF00BF13E735
:102EC000B0090020AA000020AC000020252C00083A
:102ED0009C00002000007042AE0000200000F44280
:102EE0000000684210B5174890F84C00222803D023
:102EF00015481649086010BD0020124981F8B0013C
:102F0000D1F8B80112490BF099FA044611490BF0B7
:102F1000A1F908D20B49886B4FF080410BF08EFA73
:102F20000849486507E00749486B4FF080410AF0BF
:102F3000F3FE044948650121024880F8B11100BF41
:102F4000D9E70000B0090020252C00089C000020D3
:102F50000000B442CDCCCC3D10B5224890F84C00D6
:102F6000202803D020482149086010BD01201D49B8
:102F700081F8B001886B4FF07E510BF05FFA044688
:102F80001848D0F8F41120460BF064F808D8154919
:102F9000886B4FF07E510BF051FA124948651AE0E8
:102FA0001049486B4FF07E510AF0B6FE04460D48BA
:102FB000D0F8F41120460BF04DF908D80949486BB8
:102FC0004FF07E510AF0A8FE0649486503E0054827
:102FD000D0F8F41141650121024880F8B11100BF19
:102FE000C3E70000B0090020252C00089C00002049
:102FF00010B50C4890F84C00242803D00A480B491F
:10300000086010BD0020074981F8B001888F0BF0DF
:103010000DF8044948650121024880F8B11100BF4C
:10302000EFE70000B0090020252C00089C000020DC
:1030300010B501214FF0C05006F0A2FF012006F0AC
:10304000DDFA002000F042F8002000F02BF800F03C
:103050001FF8002006F0D2FA10BD10B5042000F0D1
:1030600027F84AF6AA21884201D1002010BD4FF06E
:10307000FF30FBE710B5012006F0C0FA4AF6AA219E
:10308000042000F029F8002006F0B8FA10BD000076
:103090000348008840F001000149088070470000A3
:1030A000346C0040014908607047000088860D427A
:1030B00008B501460020009003480090009808449D
:1030C00000900098008808BD006C0040014908602D
:1030D0007047000000860D4208B500220092044AA5
:1030E0000092009A02440092009A116008BD00000C
:1030F000006C00400E4890F84C00242817D00C4873
:1031000090F84C00252809D10948D0F8F801C0F3FF
:10311000007060B920210648C16408E00448D0F876
:10312000F801C0F3007010B125210148C164704757
:10313000B009002070B5044600250C4920460AF06D
:10314000BDFF06460A490BF079F905464FF07E515E
:1031500028460BF07FF801D84FF07E5505492846E8
:103160000AF078FF00D8034D284670BDF7E4213EF1
:10317000666666400AD7233C70B50024002503F03C
:1031800017F9184818490861001588820820C86096
:1031900014484860C014088108200860084603F0FD
:1031A0007EF900F02DF802F031FE05464DB90F48CA
:1031B0000F4908600F4848600F4888600F48C86092
:1031C00009E00A480A4908600A4848600A488860D5
:1031D0000A48C86000BF00BF01F026FB0446204635
:1031E00070BD0000000C014094490020333353406F
:1031F00084490020333383401283C03E35310008B8
:1032000008B50121202006F0CBFE4020ADF80000DB
:1032100004208DF8030002208DF80200694605485D
:1032200002F0CAF88020ADF800006946014802F0BB
:10323000C3F808BD0014014001460846044A12685C
:10324000904203D9024A1268801A00E000207047B9
:103250007800002070B5002500BFFEF7DBFF0546B3
:1032600000BF0648046800BF2846FEF7D7FF00BF2E
:103270002046FFF7E1FF0646304670BD7C00002087
:1032800070B50025FFF7E6FF044600BFFEF7C2FF5A
:10329000054600BF00200449086000BF2846FEF72D
:1032A000BDFF00BF204670BD7C00002000B509486E
:1032B0000088401C074908800748008818B900F0BA
:1032C00039F80649086004480088401C0249088013
:1032D00000BD00006C0000206E0000207000002087
:1032E00000B50F480088401E0D4A10801046008827
:1032F000A0B900F01FF80B4A1060104600680A4A97
:103300001268811A09480068884201D207480160A2
:1033100007480068884201D20548016000BD0000EE
:103320006E00002074000020700000207C0000204F
:10333000800000200148406870470000001000E055
:1033400030B502460B46002100244FF6FF7000BF47
:1033500012E0555C684000240AE000F0010525B148
:1033600040104AF20105684000E04010651CECB2D4
:10337000082CF2DB4D1CA9B29942EADB30BD0000FB
:103380002DE9F74F82B08946144648460AF098FC6A
:103390000746224A224B0AF00FFA054609F0CEFEF4
:1033A0008146204920460AF089FE82460AF088FCC0
:1033B00007461A4A1A4B0AF0FFF9054609F0BEFE05
:1033C00004461948016802980BF038F882460AF062
:1033D00077FC0746154A164B0AF0EEF9054609F048
:1033E000ADFE02902146484609F066F900900AF0C9
:1033F00067FC05460F4A104B0AF0DEF9074600222B
:103400000E4B09F0CDFE824609F098FE0190DDE9F1
:10341000011003F053FA05B0BDE8F08FD5CC5A0A7D
:1034200048FB0F3F000080BFD8000020EC51B81EC1
:1034300085EB713FD3DEE00B93A94C4000805640F2
:1034400000B5C3B0002042900021419140913F91CE
:103450003E913D913C913B913A9139913891379110
:1034600036913591349133913291319130912F9140
:103470002E912D912C912B912A9129912891279170
:1034800026912591249123912291219120911F91A0
:103490001E911D911C911B911A91FE48B0F8641069
:1034A0003E91B0F866103D91B0F868103C91DDE9AE
:1034B0003C213E9802F0E4FC409040F26C71419156
:1034C00029E04FF4C871419890FBF1F201FB120022
:1034D00010B94FF4B77118E04198C217199000EB7A
:1034E000927082101998A0EB820060B96421419813
:1034F00090FBF1F201FB120010B14FF4B77104E040
:1035000040F26D1101E040F26D113F9801443F918E
:103510004198401C41903E9941988842D1DBDDE9B9
:103520003F1001443F91DB484168389181683791F1
:10353000C1683691B0F86A103B91B0F86C103A91BE
:10354000B0F86E10399139980AF058FD35903A98D4
:103550000AF0CBF8CDE9160135980AF0B1FB00224C
:10356000CD4BCDE9120109F0CFFECDE91401DDE923
:10357000162309F015FECDE9180109F0DFFD35909D
:103580003B980AF0B2F8CDE9140135980AF098FB9F
:103590000022C14BCDE9100109F0B6FECDE91201C0
:1035A000DDE9142309F0FCFD0022BC4BCDE9160136
:1035B00009F0AAFECDE9180109F0C0FD35903F9849
:1035C000401C0AF01BFD3490B54936980AF018FCEF
:1035D0000F900AF075FBCDE9120135980AF070FBE7
:1035E0004FF08042AF4BCDE90E0109F0D9FDCDE996
:1035F0001001DDE912230AF079FACDE916013498B9
:103600000AF05EFBCDE91401DDE9162309F0C8FDDF
:10361000CDE9180109F092FD3490A34934980AF0DD
:103620000DFFA24919900AF0EBFB339033980AF092
:1036300047FB9F4A9F4BCDE90E010AF0BDF89E4A19
:103640009E4BCDE9100109F0ABFDCDE91401339893
:103650000AF036FBCDE91201DDE914230AF0ACF8DB
:10366000974A984BCDE9160109F09AFDCDE918016A
:1036700009F064FD32904FF4B471329803F014FCF9
:10368000329033980AF01CFB8F4A904BCDE90E0123
:103690000AF092F88E4A894B373BCDE910010AF0C7
:1036A00019FACDE9140133980AF00AFBCDE91201A9
:1036B000DDE914230AF080F8864A874BCDE916012C
:1036C00009F06EFDCDE9180109F038FD319033980D
:1036D0000AF0F6FA814A824BCDE90E010AF06CF845
:1036E000804A814BCDE9100109F05AFDCDE9140162
:1036F00033980AF0E5FACDE91201DDE914230AF066
:103700005BF87A4A7A4BCDE916010AF0E3F9CDE984
:10371000180109F013FD3090764831990AF0CEFC7B
:1037200075490A900AF06CFB0B900AF0C9FA734ACB
:10373000734BCDE90C010AF03FF8CDE90E0109F019
:10374000FDFC109009F066FB11900AF0B9FA6D4A81
:103750006D4BCDE912010AF02FF8CDE9160133982F
:103760000AF0AEFA694A6A4BCDE908010AF024F87A
:10377000684A694BCDE90A010AF0ACF9CDE90E01BE
:103780004FF0804031990AF099FC5B4904900AF0AF
:1037900037FB05900AF094FA584A594BCDE90601D7
:1037A0000AF00AF8CDE9080109F0C8FC0A9009F00E
:1037B00031FB0B900AF084FACDE90C01DDE90E2310
:1037C00009F0FAFFCDE9120133980AF079FA534A69
:1037D000534BCDE9020109F0EFFF524A524BCDE9BC
:1037E000040109F0DDFCCDE9080133980AF068FA1C
:1037F000CDE90601DDE9082309F0DEFF4B4A4C4B19
:10380000CDE90A010AF066F9CDE90E013A4931988D
:103810000AF0F6FA05900AF053FA384A384BCDE927
:10382000060109F0C9FFCDE9080109F087FC0A90FB
:1038300009F0F0FA0B900AF043FACDE90C01DDE94A
:103840000E2309F0B9FFCDE91001DDE9122309F0DB
:10385000A7FCCDE91401DDE9162309F0A1FCCDE9AF
:10386000180109F06BFC2F902F9932980AF054FA46
:103870002E9033980AF024FA2E4A2F4BCDE91401EA
:1038800009F09AFF2D4A2E4BCDE916010AF022F9D4
:1038900058E00000B009002000004E400000384011
:1038A0000000C041D56C424164A1154A00AD0E47ED
:1038B000C0AB8A15DADE333F2F8672A21894E1403E
:1038C00046CEC29E768771400CDB60F25025243FC5
:1038D0002AC6F99BC91F0C3C7758764000D864FC77
:1038E0006001813E03E35F521C0A063F80035D7264
:1038F000111C913F00004040000034434AD8124D53
:10390000FB2109402C616D8C9DF0323FE31A9FC969
:10391000FE791A3F958098840B79943FB75F3E59A2
:10392000315CED3EAEF36F97FDBA733FF6B2EDB486
:1039300035A2FE3F068195438B389E40C3F5285C37
:103940008F425F40CDE9180109F0F8FB4290FE4933
:1039500042980AF055FA0B900AF0B2F9FB4AFC4B78
:10396000CDE90C0109F028FFCDE90E0109F0E6FBD5
:10397000109009F04FFA11900AF0A2F9F54AF64BAF
:10398000CDE9120109F018FFCDE916012E980AF0D1
:1039900097F9F24AF24BCDE912010AF0A7F8CDE906
:1039A0001401DDE916230AF0A1F8CDE9180109F0A8
:1039B000C5FB2D9033980AF083F9EA4AEA4BCDE92A
:1039C000000109F0F9FEE94AE94BCDE902010AF0EC
:1039D00081F8CDE9060133980AF072F9CDE90401C6
:1039E000DDE9062309F0E8FEE24AE34BCDE90801F0
:1039F00009F0D6FBCDE90C0133980AF061F9CDE965
:103A00000A01DDE90C2309F0D7FEDC4ADC4BCDE9E5
:103A10000E010AF05FF80022DA4BCDE9100109F03F
:103A200073FC0022D84BCDE9120109F0B9FB00224A
:103A3000D44BCDE9140109F067FC0022D34BCDE94A
:103A4000160109F0ADFBCDE9180109F077FB2C90C8
:103A5000BD4942980AF0D4F90B900AF031F9BB4AFB
:103A6000BB4BCDE90C0109F0A7FECDE90E0109F031
:103A700065FB109008F04EFF11900AF021F9C44A3E
:103A8000C44BCDE9120109F097FECDE916012C983F
:103A90000AF016F9CDE91401DDE9162309F080FBDF
:103AA000CDE9180109F04AFB2B90A7492D980AF09F
:103AB000A7F909900AF004F9A44AA54BCDE90A0137
:103AC00009F07AFECDE90C0109F038FB0F9009F0FE
:103AD000A1F99D4911902B980AF092F909900AF0EA
:103AE000EFF89A4A9A4BCDE90A0109F065FECDE953
:103AF0000C0109F023FB0F9009F08CF9109011993B
:103B00000AF0DCFA129008F045FD13900AF0D8F89C
:103B10008E4A8F4BCDE9140109F0F6FB00229E4B33
:103B2000CDE9160109F048FECDE9180109F006FBC0
:103B30002A904FF080412B980AF062F98249109048
:103B40000AF05EF911900AF0BBF8804A804BCDE98B
:103B5000120109F031FECDE9140109F0EFFA1790D6
:103B600009F032FA4FF0804119902B980AF048F989
:103B7000754910900AF044F911900AF0A1F8734ABF
:103B8000734BCDE9120109F017FECDE9140109F0DC
:103B9000D5FA179009F018FA189019990AF08EFAC8
:103BA0002990694931980AF02BF907900AF088F8B2
:103BB000664A674BCDE9080109F0FEFD00224FF08F
:103BC0008043CDE90A0109F0F7FDCDE90C0109F0C8
:103BD000B5FA0E9009F01EF90F900AF071F8CDE9D0
:103BE000120130980AF06CF8CDE90E0130980AF015
:103BF00067F80022694BCDE90A0109F0DDFDCDE946
:103C00000C01DDE90E2309F0D7FDCDE91001DDE956
:103C1000122309F0D1FDCDE916014B4932980AF083
:103C2000EFF803900AF04CF8484A494BCDE90401FB
:103C300009F0C2FD00225A4BCDE9060109F0BCFD96
:103C4000CDE9080109F07AFA0A9009F0E3F80B903F
:103C50000AF036F8CDE90E0129980AF031F8CDE9DD
:103C60000A0129980AF02CF800224E4BCDE90601F2
:103C700009F0A2FDCDE90801DDE90A2309F09CFD68
:103C8000CDE90C01DDE90E2309F096FDCDE9120125
:103C90002D4932980AF0B4F803900AF011F82B4A33
:103CA0002B4BCDE9040109F087FD00224FF0804342
:103CB000CDE9060109F080FDCDE9080109F03EFAE1
:103CC0000A9008F027FE20490C9031980AF098F8E5
:103CD000039009F0F5FF1D4A1D4BCDE9040109F0E1
:103CE0006BFDCDE9060109F029FA089009F092F878
:103CF0000A904FF0814030990AF0E0F90890299934
:103D00000AF0DCF909900A990AF0D8F90B900C999D
:103D10000AF0D4F90C490E9031980AF071F803902A
:103D200009F0CEFF094A0A4BCDE9040109F044FD30
:103D3000CDE9060109F002FA089009F06BF80A9043
:103D40004FF0804030992FE0000034434AD8124DA4
:103D5000FB210940F94ECC7A3194733F1FBAA0BEC3
:103D6000654E773FD61A4AED45B45D3FBEA4315A41
:103D70004755433FB81E85EB51684740A69BC4207A
:103D8000B072354000004E4000003A40000037401D
:103D9000F168E388B5F8643F008066400000F43FB6
:103DA000000010400000E03F0AF088F909900A99ED
:103DB0000AF084F9FE490C9032980AF021F801903B
:103DC00009F07EFFFB4AFC4BCDE9020109F0F4FC4F
:103DD00000224FF08043CDE9040109F0EDFCCDE96C
:103DE000060109F0ABF9099009F014F80A90299935
:103DF0000AF064F90B900C990AF020FB0D900E99D3
:103E000009F08AFF0F9009F05BFFCDE91001DDE9B1
:103E1000122309F06BFECDE91401DDE9162309F048
:103E200065FECDE9180109F089F94290429809F040
:103E300047FFE04AE04BCDE9120109F065FA0022A4
:103E4000DE4BCDE9140109F0B7FC0022DC4BCDE9D3
:103E5000160109F0B1FCCDE9180109F06FF92890BD
:103E6000D3492A9809F0CCFF079009F029FFD14ADD
:103E7000D14BCDE9080109F09FFCCDE90A0109F019
:103E80005DF90D9009F0A0F8C9490F90379809F035
:103E9000B7FF079009F014FFC64AC74BCDE90801E8
:103EA00009F08AFCCDE90A0109F048F90D9009F002
:103EB0008BF80E900F990AF001F9BD4911902A98DC
:103EC00009F09EFF059009F0FBFEBA4ABA4BCDE916
:103ED000060109F071FCCDE9080109F02FF90B90FA
:103EE00008F018FDB2490D90379809F089FF059048
:103EF00009F0E6FEAF4AB04BCDE9060109F05CFCE3
:103F0000CDE9080109F01AF90B9008F003FD0C90B7
:103F10000D990AF0D3F80F90AA4808F0FBFC0E9018
:103F20000F9909F06DFF109011990AF087FA12901D
:103F300008F0A2FA139009F0C3FE9E4A9E4BCDE909
:103F4000140109F0E1F900229C4BCDE9160109F0BA
:103F500033FCCDE9180109F0F1F827909A49369819
:103F60000AF0ACF818904FF0814038990AF0A6F8A2
:103F7000964915900AF0D0F9169028990AF05EFA41
:103F80001790189909F0C8FE9149199009F038FF67
:103F900026904FF0814127980AF090F88C491890AC
:103FA00009F02EFF199026990AF0B6F925904FF0E6
:103FB000814127980AF082F88549189009F020FF7E
:103FC0001990269909F0A8FE24907F4836990AF0A6
:103FD00075F819904FF0814038990AF06FF87C49D4
:103FE000179035980AF06AF81590289909F094FE10
:103FF0001690179909F090FE189019990AF01EFA78
:1040000023904FF4B461239802F04EFF23900021D7
:1040100023980AF01FF809D24FF08141239809F044
:10402000EFFE634919900AF009FA08E04FF0814168
:10403000239809F0E5FE5E4919900AF0FFF92290F5
:104040005B49229809F0DCFE079009F039FE594AD5
:10405000594BCDE9080109F0AFFBCDE90A0109F0A0
:104060006DF80D9008F056FC51490F902A9809F010
:10407000C7FE059009F024FE4E4A4F4BCDE90601DC
:1040800009F09AFBCDE9080109F058F80B9008F007
:1040900041FC47490D90379809F0B2FE059009F0B0
:1040A0000FFE444A444BCDE9060109F085FBCDE9FA
:1040B000080109F043F80B9008F02CFC0C900D99C6
:1040C00009F0FCFF0E900F9909F0F8FF38491190A4
:1040D0002A9809F095FE079009F0F2FD354A364B13
:1040E000CDE9080109F068FBCDE90A0109F026F8DD
:1040F0000D9008F08FFE2E490F90379809F080FE42
:10410000079009F0DDFD2B4A2B4BCDE9080109F0A2
:1041100053FBCDE90A0109F011F80D9008F07AFE81
:104120000E900F9909F0CAFF1090119909F0F4FD53
:10413000129008F0A1F9139009F0C2FD1D4A1E4B20
:10414000CDE9140109F0E0F800221C4BCDE916017D
:1041500009F032FBCDE9180108F0F0FF21901D486D
:1041600021990AF06BF920901149209809F048FE36
:10417000139009F0A5FD0F4A0F4BCDE9140109F08A
:104180001BFBCDE9160108F0D9FF199008F01CFFC0
:104190001F901F99084609F091FF19901F9909F087
:1041A0008DFF1E90DDE91E0109F088FF199013E0D4
:1041B000000034434AD8124DFB210940008066407C
:1041C0000000104041ECCA3F00007042000034443F
:1041D0000000B4440000B4421F9909F06FFF1D9025
:1041E000FE4920980AF036F802D200200146B8E0D5
:1041F000FB4920980AF02EF845D21D9809F060FD81
:1042000002460B46CDE91001F648F74909F07CF863
:10421000CDE914011E9809F053FD02460B46CDE985
:104220000C01F248F24909F06FF8CDE91001F149AB
:10423000209809F0E5FD059009F042FDEE4AEF4BAC
:10424000CDE9060109F0B8FACDE9080108F076FFDA
:104250000A9008F0B9FE0B9009F032FD02460B46B9
:10426000CDE90C01E648E74909F04EF8CDE90E0129
:10427000DDE9102309F03AFCCDE91201DDE9142350
:1042800008F08EFF6DE0209809F01AFD4FF06632BD
:10429000DD4BCDE9140109F08DFB43D2209809F0E4
:1042A0000FFDDA4ADA4BCDE9000109F085FACF4A71
:1042B0005242D84BCDE9020108F072FFCDE9060168
:1042C000209809F0FDFCCDE90401DDE9062309F0A1
:1042D00073FAD14AD14BCDE9080108F061FFCDE96D
:1042E0000C01209809F0ECFCCDE90A01DDE90C2372
:1042F00009F062FAC84ACA4BCDE90E0108F050FF36
:10430000CDE91201209809F0DBFCCDE91001DDE9CF
:10431000122309F051FA0022C24BCDE9140108F032
:104320003FFF1EE0B349209809F06AFD0D9009F0A7
:10433000C7FCB14AB14BCDE90E0109F03DFACDE918
:10434000100108F0FBFE129008F03EFE139009F0F9
:10435000B7FC02460B46CDE91401B348B34908F057
:10436000D3FF0022B24BCDE9160108F0CDFFCDE915
:10437000180108F0E3FE1C901C99209809F0CCFC71
:104380001B900021229809F065FF7CD29949219861
:1043900009F036FD039009F093FC974A974BCDE95D
:1043A000040109F009FACDE9060108F0C7FE0990F9
:1043B00008F030FD8F490B90379809F021FD0390EC
:1043C00009F07EFC8C4A8D4BCDE9040109F0F4F92B
:1043D000CDE9060108F0B2FE099008F09BFA0A90B8
:1043E0000B9909F06BFE83490D902A9809F008FD9E
:1043F000039009F065FC804A804BCDE9040109F087
:10440000DBF9CDE9060108F099FE099008F002FDFC
:1044100078490B90219809F0F3FC019009F050FCC9
:10442000754A764BCDE9020109F0C6F9CDE90401E0
:1044300008F084FE079008F06DFA6E4909903798ED
:1044400009F0DEFC019009F03BFC6B4A6B4BCDE9B7
:10445000020109F0B1F9CDE9040108F06FFE0790FF
:1044600008F0D8FC0890099909F028FE0A900B99E9
:1044700009F0E4FF0C900D9909F0C2FC0E9007F0D2
:10448000FBFF0F9000E01DE009F01AFC5A4A5B4B5D
:10449000CDE9100108F038FF0022664BCDE912018A
:1044A00009F08AF90022634BCDE9140108F078FE87
:1044B000CDE9160108F042FE4FF4B471199002F0F4
:1044C000F3FCC7E04B49219809F09AFC039009F0EE
:1044D000F7FB494A494BCDE9040109F06DF9CDE9F3
:1044E000060108F02BFE099008F094FC41490B905E
:1044F000379809F085FC039009F0E2FB3E4A3F4BF8
:10450000CDE9040109F058F9CDE9060108F016FEDD
:10451000099008F0FFF90A900B9909F0CFFD354991
:104520000D902A9809F06CFC039009F0C9FB324AFF
:10453000324BCDE9040109F03FF9CDE9060108F05D
:10454000FDFD099008F066FC2A490B90219809F0BE
:1045500057FC019009F0B4FB274A284BCDE9020132
:1045600009F02AF9CDE9040108F0E8FD079008F008
:10457000D1F920490990379809F042FC019009F0DF
:104580009FFB1D4A1D4BCDE9020109F015F9CDE94C
:10459000040108F0D3FD079008F03CFC089009994D
:1045A00009F08CFD0A900B9909F048FF0C900D99C9
:1045B00009F026FC0E9007F05FFF0F9009F080FBDA
:1045C0000D4A0E4BCDE9100108F09EFE0022194B5A
:1045D000CDE9120109F0F0F800222DE00000AA4216
:1045E0000000A0403677F4BF5C8B163FEC51B81E3C
:1045F00085EBB13F000034434AD8124DFB210940FE
:10460000CDCCCCCCCC0C4D406666E2BF8D976E1203
:1046100083C0E63F7A9429C09A99999999D95940CB
:10462000993180C0001C9B401283C0CAA1C534C010
:104630000020AC4000806640214BCDE9140109F018
:1046400049FACDE9160108F079FD4FF4B4711990DB
:1046500002F02AFC1A901B49259809F02FFD1A49EF
:10466000C1F8E4011749249809F028FD1649C1F85A
:10467000E8011A98C1F8F0011B9809F021FB00220B
:10468000124BCDE9180109F095F904D810490E48EC
:10469000C0F8EC1112E01B9809F012FB00220D4B40
:1046A000CDE9180109F04CF804D20B490648C0F8CE
:1046B000EC1103E004491B98C1F8EC0143B000BDC4
:1046C00000E080400000C041B0090020004056409A
:1046D0000000B242004056C00000B2C210B504460D
:1046E000012C0DD04448007800F0010008B900F01A
:1046F00013F9002001F04AFE00204049087010BD67
:104700003F48007830B101281ED0022844D0032849
:104710006BD159E03B49D1F8DC013B4909F09AFCE7
:104720000ED83849D1F8C801384909F093FD03D8AB
:1047300001203349087006E003203149087002E087
:1047400002202F49087054E02B48007800F0010047
:1047500008B900F0E1F82B49D1F8DC014FF08241B3
:1047600009F078FD06D92749D1F8C801284909F090
:1047700071FC08D8002001F009FE00201F490870D4
:104780001F49087007E0012001F000FE01201B49CD
:1047900008701B4908702CE0002001F0F7FD002094
:1047A000164908701448007800F0010008B100F0C4
:1047B00031F811480078C0F3001008B100F098F803
:1047C00000200F49087014E0002001F0DFFD0020F8
:1047D0000A4908700848007800F0010008B900F0A4
:1047E0009BF800200649087003E000200449087087
:1047F00000BF00BF00BF82E7B0000020B100002072
:10480000BC000020B00900200000A0400000F041E2
:104810000000E04110B510231422D021014801F01E
:1048200057FF10BD944900202DE9F04100242C4889
:10483000C06810B9601EBDE8F0814FF4887314227F
:10484000D021284801F044FF044600232922D0212A
:10485000244801F03DFF044411231522D0212148B2
:1048600001F036FF04441E4988684FF0834109F087
:1048700025FC07464FF07E5109F0E0FD064609F0A1
:104880009DFB85B22B461A22D021164801F020FF4D
:10489000044413494868144909F0D0FD07461349F8
:1048A00009F00CFC064609F089FB85B22B461B2259
:1048B000D0210C4801F00CFF04444FF461631D2229
:1048C000D021084801F004FF044445F260431E2251
:1048D000D021044801F0FCFE04442046ABE7000070
:1048E0008449002094490020000074400000A04248
:1048F00010B54FF488731422D021064801F0E8FE69
:10490000142000F0B1F910231422D021014801F045
:10491000DFFE10BD9449002010B54FF488731422B7
:10492000D021024801F0D4FE10BD000094490020BF
:1049300070B52A4890F84C0000F0F000602805D1CE
:10494000264890F84C0000F00F0018B12448254983
:10495000086070BD0020214981F8B001486B4FF01C
:104960007E5109F0D9F904461C49B1F8420009F01A
:104970005DFB0546214609F06DFB08D21749486BDF
:104980004FF07E5109F0C8F91449486520E01349F9
:10499000886B4FF07E5109F051FD04460F49B1F884
:1049A000420009F043FB0546214609F053FC08D2BA
:1049B0000A49886B4FF07E5109F040FD0749486570
:1049C00006E00649B1F8420009F030FB03494865AA
:1049D0000121024880F8B11100BFBAE7B0090020F8
:1049E000116800089800002010B54FF4807102484B
:1049F00000F0C1FD10BD0000000801400120174972
:104A0000888200200860A1F844005A2088872D2061
:104A1000A1F8420012484863124888635A20C887A8
:104A2000A1F84000400708610F4888600F484860BF
:104A30004FF08240C8600E4848620E48086200206D
:104A400088623C20C885122088854FF4967048867D
:104A50000E2008860848886170470000B0090020D1
:104A600000003442000007430000F0410000F24221
:104A7000CDCC8C409A99F93F0000404010B50220FF
:104A800000F0A8F8002864D03248006820F0020046
:104A90003049086000212F480838FDF730FE00211A
:104AA0002C480838FDF78CFD022000F079F8002032
:104AB0002949087031E000212848274A127840F837
:104AC00022100020264908701EE02549097801EBD4
:104AD0008101214A12781144224A32F8110009F06A
:104AE000A5FA04461D481C4A127850F822102046A8
:104AF00009F012F91949184A127841F822001848A9
:104B00000078401C16490870154800780A28DCDB3C
:104B100011480078401C104908700F48007805289B
:104B2000C9DB0E480068104908600C4840680F490E
:104B300008600A4880680E4908600848C0680D4946
:104B40000860064800690C49086000210B4800F025
:104B500035F810BD0824014024010020F44E002047
:104B600025010020904E0020280100202C0100206B
:104B700030010020380100203401002008000240EC
:104B800010B504460021054800F018F80348001D40
:104B900004600121001F00F011F810BD580402400C
:104BA00000F0805111B10349086001E002494860FA
:104BB00070470000040402400000024021B1026876
:104BC00042F00102026004E002684FF6FE731A40F0
:104BD0000260704701460020002201F0805313B1AB
:104BE000054B1A6801E0054B1A6802EA01030BB194
:104BF000012000E000207047000402400000024055
:104C00001AB103680B43036002E003688B4303603F
:104C1000704710B50022026847F6F0739A430C6A99
:104C20008B6823430C6923434C6923438C692343DA
:104C3000CC6923434C6A23438C6A23431A430260A2
:104C4000CB6843600B6883604B68C36010BD0C2168
:104C500005E00C2100BF0A1EA1F10101FBD1021EDB
:104C6000A0F10100F5D1704706E0482100BF0A1EFF
:104C7000A1F1010359B2FADA021EA0F1010358B200
:104C8000F3DA704710B51449D1F8CC01134909F093
:104C9000E1F915D812480078401C114908700846FF
:104CA0000078142817DB002008700B48D0F8F801B2
:104CB00020F0806000F180600749C1F8F8010AE047
:104CC0000020074908700448D0F8F80120F08060FF
:104CD0000149C1F8F80110BDB00900200000704181
:104CE000D200002038B58B4890F8B301012877D165
:104CF00000208949088089480088401C874908802D
:104D000008460088052804DA8248D0F8B8018449AA
:104D1000086082480088B0F5167F45DD00207F4995
:104D200008807C48D0F8B8117D48006809F086FBFF
:104D300004464FF03F4109F08DF909D27548D0F88B
:104D4000F80120F00200801C7249C1F8F80107E068
:104D50007048D0F8F80120F002006E49C1F8F8015F
:104D60006C48D0F8B8116E48006809F067FB04463B
:104D70004FF07E5109F06EFA0BD36648D0F8B811A7
:104D80006748006809F05AFB0446664909F062F971
:104D90000BD26048D0F8F80120F020005D49C1F83E
:104DA000F801002060490880B2E05F480088C0B97F
:104DB0005848D0F8F801C0F3407090B901205A4922
:104DC00008805448D0F8F80120F020005149C1F87B
:104DD000F8016B4600220221544802F06DFF97E073
:104DE00009E04C48D0F8F80120F020002030494973
:104DF000C1F8F8018CE0474890F8B301022877D158
:104E000000204649088044480088401C42490880E8
:104E100008460088052804DA3E48D0F8B801404921
:104E200008603D480088B0F5167F71DD00203A49E2
:104E300008803848D0F8B8113948006809F0FEFAFF
:104E400004464FF07C5109F005FA09D23148D0F8F8
:104E5000F80120F00200801C2E49C1F8F80107E09B
:104E60002C48D0F8F80120F002002A49C1F8F801D6
:104E70002848D0F8B8112A48006809F0DFFA04463B
:104E80004FF07E5109F0E6F90BD32248D0F8B81163
:104E90002348006809F0D2FA0446224909F0DAF8FA
:104EA0000BD21C48D0F8F80120F020001949C1F8B5
:104EB000F80100201C4908802AE01B480088C0B97E
:104EC0001448D0F8F801C0F3407090B90120164999
:104ED00008801048D0F8F80120F020000D49C1F8F2
:104EE000F8016B4600220221104802F0E5FE0FE0B7
:104EF00009E00848D0F8F80120F0200020300549EA
:104F0000C1F8F80104E00020044908800249088043
:104F100038BD0000B0090020CE000020CC000020E9
:104F2000C8000020000080BFD0000020E84400201E
:104F300070B54D4890F8B201002864DD4A4A916985
:104F4000D2F8BC0109F086F90CD94748D0F8BC1159
:104F5000464809F0B3F8044643488169204609F001
:104F600079F91DD800204249087042480078401C59
:104F7000404908700846007808F0CEFB044600223D
:104F80003D4B08F017FD0BD200203A490870364817
:104F9000D0F8F80120F00100401C3349C1F8F801B5
:104FA00031498869354909F089F804462E48D0F816
:104FB000BC11204609F04EF92AD82B49886930499E
:104FC00009F07CF804462848D0F8BC11204609F0C6
:104FD00041F81DD826480078401C2549087008462D
:104FE0000078642814DD00200870224908701E48EB
:104FF000D0F8F80120F001001B49C1F8F8010020A9
:105000002049087004E00020194908701949087007
:10501000154890F8F80100F0010008B31A4800881C
:10502000401C1949088008460088B0F5966F1ADDC3
:105030000020088013480078401C12490870084678
:105040000078082808DA0848D0F8F80120F00100B4
:105050000549C1F8F80106E009200A49087002E094
:1050600000200949088070BDB0090020000080BF01
:10507000C0000020C100002000002C406666663F92
:10508000666666BFC2000020C400002010B53A4921
:10509000886B4FF0804108F03FFE04463648D0F858
:1050A000B811204608F0D6FF14D234480078401CCE
:1050B000324908700846007832285CDD34200870D8
:1050C0002D48D0F8F80120F0080008302A49C1F82E
:1050D000F80150E02849486B4FF0804109F0AEF9E3
:1050E00004462548D0F8B811204609F0B3F814D288
:1050F00022480078401C2149087008460078322870
:1051000039DD342008701C48D0F8F80120F0040084
:10511000001D1949C1F8F8012DE01749886B4FF0BF
:105120007E5109F08BF904461348D0F8B811204697
:1051300009F090F81FD21049486B4FF07E5108F0EB
:10514000EBFD04460C48D0F8B811204608F082FF69
:1051500011D20020094908700748D0F8F80120F062
:1051600004000549C1F8F8010846D0F8F80120F01C
:105170000800C1F8F80110BDB0090020C6000020E9
:1051800010B500F0E1F8352000F01EF800240AE028
:105190000B4901EBC42000F01DF800BF00F05AF8E5
:1051A0000128FBD0641C502CF2D3064800F012F802
:1051B00000BF00F04FF80128FBD000F065F810BDEB
:1051C00000A0020800F007080149C860704700000D
:1051D0000020024030B5044604254FF4302000F092
:1051E000BFF80546042D17D10C48006940F00200B5
:1051F0000A49086108464461006940F040000861BE
:105200004FF4302000F0ACF805460448006941F640
:10521000FD71084001490861284630BD0020024068
:1052200004200B49C96801F0010109B101200EE019
:105230000749C96801F0040109B1022007E00449E7
:10524000C96801F0100109B1032000E00420704793
:105250000020024004200B49C96801F0010109B196
:1052600001200EE00749C96801F0040109B10220DC
:1052700007E00449C96801F0100109B1032000E00A
:1052800004207047002002400348006940F080007D
:1052900001490861704700000020024070B50446D3
:1052A0000D460426F00200F05BF80646042E11D1EC
:1052B0000948006940F00100074908612580F002B3
:1052C00000F04EF806460448006941F6FE710840B9
:1052D00001490861304670BD0020024078B506469D
:1052E0000C46042500200090E80200F039F805463D
:1052F000042D24D11348006940F0010011490861D0
:105300003480E80200F02CF80546042D10D1B01CC2
:105310000090200C00990880E80200F021F8054672
:105320000848006941F6FE7108400649086106E038
:105330000448006941F6FE710840024908612846A8
:1053400078BD00000020024002480349486003483D
:10535000486070472301674500200240AB89EFCDCC
:1053600000B502460423FFF75BFF034603E0FFF7A7
:1053700057FF0346521E012B01D1002AF7D102B973
:105380000523184600BD000010B500F073FF4FF470
:10539000F0500849A1F8AC0100F0D0FD0549B1F882
:1053A000AC1108430349A1F8AC0109210148A0F858
:1053B000AE1110BDB00900202DE9F04102460025D4
:1053C0000026002000230024002791F803C00CF0E1
:1053D0000F0591F803C00CF0100CBCF1000F03D0C6
:1053E00091F802C04CEA050591F800C0BCF1000F2D
:1053F00031D0146800202BE04FF0010C0CFA00F3C0
:10540000B1F800C00CEA03069E4220D183004FF0A1
:105410000F0C0CFA03F7BC4305FA03FC4CEA040436
:1054200091F803C0BCF1280F06D14FF0010C0CFA23
:1054300000FCC2F814C00AE091F803C0BCF1480FA8
:1054400005D14FF0010C0CFA00FCC2F810C0401C52
:105450000828D1D31460B1F800C0BCF1FF0F34DDCF
:10546000546800202EE000F1080C4FF0010808FA03
:105470000CF3B1F800C00CEA03069E4221D1830070
:105480004FF00F0C0CFA03F7BC4305FA03FC4CEA8F
:10549000040491F803C0BCF1280F05D100F1080CF9
:1054A00008FA0CF8C2F8148091F803C0BCF1480F58
:1054B00007D100F1080C4FF0010808FA0CF8C2F807
:1054C0001080401C0828CED35460BDE8F081000055
:1054D000F0B50A46002300240021002500F0004614
:1054E000B6F1004F02D11D4EF16901E01B4E71680B
:1054F000C0F3034583B200F44016B6F5401F08D14F
:1055000021F07061154E766826F07066134F7E604C
:1055100012E000F48016B6F5801F06D1032606FAC5
:1055200005F4A14341F0706106E0460D360103FA2F
:1055300006F6B14341F0706122B1460D360103FA1F
:1055400006F6314300F00046B6F1004F02D1034E9B
:10555000F16101E0014E7160F0BD0000000001400A
:105560000246002093680B400BB1012000E00020B0
:105570007047416170470161704700000048704703
:10558000584700202DE9F84F83460F460024002598
:1055900000266946232005F02DFE9DF800000443F7
:1055A0006946222005F026FE200204B29DF8000084
:1055B000044369462B2005F01DFE9DF800000543BD
:1055C00069462A2005F016FE280205B29DF8000063
:1055D000054369462D2005F00DFE9DF800000643A9
:1055E00069462C2005F006FE300206B29DF8000048
:1055F00006436946182005F0FDFD9DF80000382897
:1056000013D1304608F0FAFC8046284608F0F6FC34
:105610008146204608F0F2FC824642464946FDF7A4
:10562000AFFE38600020BDE8F88F4FF0FF30FAE79A
:105630002DE9F04F91B04FF0000AB549D1F8EC01D7
:1056400008F03EFB0446B34AB34B08F0B3F97DD8EB
:10565000AF49D1F8F001B14908F0F0FEB0490E9021
:1056600008F0CEFB834608F02BFB0646AD4AAE4B56
:1056700008F0A2F8044607F061FD814607F04AF9F8
:105680008046A349D1F8EC01A54908F0B9FB83464F
:1056900008F016FB0646A34AA34B08F08DF8044613
:1056A00007F04CFD814607F08FFC41460F9007F054
:1056B00003F88246504608F003FB8046994A9A4B0D
:1056C00007F022FE06460022984B08F075F80446C3
:1056D00007F034FD82468E49D1F8F00108F0F0FA67
:1056E00004460022914B08F02BF87DD88848816A47
:1056F000504608F0AFFD79D28D49504608F0AAFD1A
:1057000074D28348816A504608F098FE84490E900E
:1057100008F076FB0F9008F0D3FA0646814A824BD8
:1057200008F04AF8044607F009FD834607F072FBCB
:1057300081467748416A484608F0C0FC8046744874
:10574000016A404608F086FD05D800E0DBE05046DF
:1057500011B0BDE8F08F6E48816A504608F06EFEC9
:105760006F49029008F04CFB039008F0A9FA6D4ACB
:105770006D4BCDE9040108F01FF8CDE9060107F0F3
:10578000DDFC089007F046FB83466148416A5846B5
:1057900008F094FC09905E48016A099808F030FB13
:1057A0000A9006F0F7FE0B9008F08AFA5D4A5E4B0D
:1057B000CDE90C0107F0A8FD064600225B4B07F07F
:1057C000FBFF04460D465549504608F0A5FA06462B
:1057D00008F076FA22462B46CDE90E0108F086F94C
:1057E000804607F0ABFCB3E705E0FFE74849888F48
:1057F00008F01CFCACE74648816A494808F08CFA7E
:105800000446514608F026FD78D24A49504608F031
:1058100021FC73D23E4A516A106A08F0F1FA5146EF
:105820000F903F4808F00AFE0D903948816A0D98A4
:1058300008F072FA83463A4908F0E2FA0E9008F04E
:105840003FFA0646374A384B07F0B6FF044607F0E2
:1058500075FC814607F0DEFA80460F9908F0FAFCE5
:1058600001D8504674E72A48816A504608F0E6FDA0
:105870002B49019008F0C4FA834608F021FA294A1E
:10588000294BCDE9020107F097FFCDE9040107F0AC
:1058900055FC814607F0BEFA07901D48416A0798FB
:1058A00008F00CFC08901A48016A089808F0A8FA59
:1058B000804606F06FFE099008F002FA194A1A4B6A
:1058C000CDE90A0107F020FD06460022174B07F03C
:1058D00073FF04460D461149504608F0AFFD0646D9
:1058E00008F0EEF922462B46CDE90C0107F058FCF2
:1058F000CDE90E0107F022FC2AE7FFE70449888F73
:1059000008F094FB24E70249888F08F08FFB1FE71B
:10591000B00900209A9999999999B93F0000B44229
:10592000000034434AD8124DFB21094000806640F4
:10593000000040400000314338B5044600256B4666
:105940003422D0213F4800F0D1FD054615B14FF07B
:10595000FF3038BDBDF8000000F4807088B12078B9
:1059600020F00100401C2070207820F00200207000
:10597000207820F004002070207820F008002070AB
:1059800030E0207820F001002070BDF8000000F029
:10599000800028B1207820F00200801C207003E0F5
:1059A000207820F002002070BDF8000000F04000D8
:1059B00028B1207820F00400001D207003E020783A
:1059C00020F004002070BDF8000000F0180028B19D
:1059D000207820F008000830207003E0207820F0C4
:1059E00008002070BDF8000000F0040028B1207805
:1059F00020F010001030207003E0207820F010001C
:105A00002070BDF8000000F0020028B1207820F0DE
:105A100020002030207003E0207820F0200020704B
:105A2000BDF8000000F0010028B1207820F040000F
:105A30004030207003E0207820F0400020700020EB
:105A400087E70000944900202DE9F843044600252B
:105A50006B463D22D0210D4800F048FD05468DB92A
:105A6000BDF9000008F0CAFA8046094908F026FB93
:105A700007464FF0834108F0C3F90646054908F090
:105A8000BFF920602846BDE8F88300009449002053
:105A9000DC80BB3F00007A4410B50024694800F068
:105AA000C7F904446748001FFFF7CEFF0444654868
:105AB000083000F0E9F804446348FFF73DFF044470
:105AC0005CB90020614908706148D0F8F80120F005
:105AD00000405F49C1F8F8011AE05C48017800789D
:105AE000401C5A4A1070052912DD05201146087025
:105AF0005748D0F8F80120F0004000F10040544928
:105B0000C1F8F80100215248C0F8D411C0F8D011F2
:105B10004D480078C0F3401058B94B480078C0F3A6
:105B2000801030B94A49D1F8D4014A4908F092FAB4
:105B300018D800204849088048480088401C474938
:105B4000088008460088142829DB00200880404887
:105B5000D0F8F80120F0005000F100503C49C1F8A5
:105B6000F8011CE03A49D1F8D4013D4908F072FB34
:105B700015D800203949088037480088401C36492C
:105B8000088008460088642809DB00200880304827
:105B9000D0F8F80120F000502D49C1F8F8012C4848
:105BA00090F8B201002844D12949D1F8D4012D49F7
:105BB00008F050FA19D800202B4908802B4800889B
:105BC000401C2A49088008460088B0F5167F30DB63
:105BD000002008801E48D0F8F80120F0805000F125
:105BE00080501B49C1F8F80123E01949D1F8D401CC
:105BF0001F4908F02FFB17D800201C4908801A48BD
:105C00000088401C1849088008460088B0F5967F37
:105C10000FDB002008800E48D0F8F80120F08050FB
:105C20000B49C1F8F80104E000200F4908800F4932
:105C300008800749D1F8D40100F01CF80449C1F8E4
:105C4000D80110BD840B0020B0000020B20000205D
:105C5000B00900200000B041B8000020BA000020C8
:105C60000000BC410000C441B6000020B400002088
:105C70000000D44110B504460248C1682046884758
:105C800010BD0000844900202DE9FE4F04464FF06E
:105C9000000A02AB4022D021484800F027FC82468F
:105CA000BAF1000F23D1BDF9080008F0A7F90746A3
:105CB000434908F031FB0546BDF9080008F09EF99C
:105CC0000746404908F0FAF90646294608F098F8D0
:105CD00081463D49484608F0BDF909D849463B4848
:105CE00008F0ECF905463A4908F016F8206062E041
:105CF0003549484608F0AEFA0ED23249484608F017
:105D0000A9F909D84946334808F0D8F90546324977
:105D100008F002F820604EE02A49484608F09AFA56
:105D200018D22E49484608F095F913D8484607F08E
:105D3000C7FF07462A4A2B4B07F03EFD05464FF0AA
:105D40000042294B07F02CFACDE9000107F0F6F9E3
:105D5000206030E02149484608F07CFA0ED2234901
:105D6000484608F077F909D84946214808F0A6F9CD
:105D70000546204907F0D0FF20601CE01B4948463B
:105D800008F068FA0ED21C49484608F063F909D8B1
:105D900049461A4808F092F90546194907F0BCFF30
:105DA000206008E04946174808F088F9054616497A
:105DB00007F0B2FF20605046BDE8FE8F94490020F6
:105DC00000AAAA46000020419A999940B0031CC13C
:105DD0009358B44213F271C0E9A67642CDCC644127
:105DE00064CC5D4BC88700C0E9A646403333B3415D
:105DF0008885A2BFDB7906420000E441D34D62BF33
:105E00001D5AC9414F1EB6BEDD24EC4010B500241A
:105E100040210648FFF7A4FB04436006040E8021DE
:105E20000248FFF79DFB0443204610BD00140140CB
:105E30002DE9F843044600256B463A22D0210C4850
:105E400000F054FB054685B9BDF9000008F0D6F80E
:105E50008046084908F032F90746074908F02EF94C
:105E60000646064907F0CCFF20602846BDE8F883C7
:105E7000944900200000E040DBE0443E00007A440A
:105E8000F0B50346144620466FF00105DE1703EB1C
:105E90009676B610A3EB86062EB9642693FBF6F72A
:105EA00006FB173636B94FF4C87693FBF6F706FBB8
:105EB00017360EB94FF0FF35032906DA012901D153
:105EC000002200E01F2210441BE007290BDC0A46D9
:105ED00001EBD27677104E1EC6EB061607EB460690
:105EE0002E4430440DE005F1D606A1F10807C7EBBA
:105EF000071706EB4707CA1F02EBD27607EB6606C9
:105F00003044F0BD70B507490748006808F0D6F87E
:105F10000546064908F0D2F80446054907F070FF27
:105F200070BD00003333534030010020BE9F4E410E
:105F300000002047004870472049002010B5002489
:105F40004FF400710A48FFF70BFB04436006040E90
:105F50004FF480710648FFF703FB04436006040E0C
:105F600080210348FFF7FCFA0443204610BD0000DF
:105F70000018014070B509490948006808F09EF80A
:105F800006464FF08B4107F03BFF0546054908F0F8
:105F900055FA0446044907F033FF70BD000004427F
:105FA0002801002000002543000030410146C1EBDC
:105FB000C100024A02EB8000007E7047AC4900201D
:105FC0000146C1EBC100024A02EB8000807E7047AF
:105FD000AC49002070B507490748006808F06EF822
:105FE0000546064908F06AF80446054907F008FF27
:105FF00070BD0000333353402C010020BE9F4E4142
:106000000000204770B509490948006808F056F8B3
:1060100006464FF08B4107F0F3FE0546054908F0B0
:106020000DFA0446044907F0EBFE70BD000004427F
:1060300038010020000025430000304170B50949B7
:106040000948006808F03AF806464FF08B4107F01F
:10605000D7FE0546054908F0F1F90446044907F062
:10606000CFFE70BD00000442340100200000254333
:1060700000003041F8B5044600266B46002292210C
:106080000F4800F033FA0646BEB99DF80150BDF83E
:106090000000000200B20090BDF8000000F47F4054
:1060A00000B20090BDF9000028430090BDF9000047
:1060B000C11700EB1161091221803046F8BD0000C4
:1060C000084F00202DE9FC4705460E461746984626
:1060D000DDE90A9A00240020009001904FF48071BD
:1060E0006348FFF746FA4FF400716148FFF743FA3F
:1060F00080215F48FFF73DFA0A20FEF7A8FD00BFA8
:106100005BE04FF480715A48FFF735FA0A20FEF73A
:106110009EFD182C18DA40215548FFF721FA012876
:1061200041D12046E11704EB5171C910A4EBC10223
:10613000012191406A4602EBE402127811436A465B
:1061400002EBE40211702EE01C2C10DA40214848CA
:10615000FFF706FA012826D19DF80300A4F11801E3
:1061600001228A401043C0B28DF803001BE0342C9A
:1061700019DA40213E48FFF7F3F9012813D1201D19
:10618000C11700EB5171C910A0EBC1020121914070
:106190006B46221D03EBE20212781143CAB2211DA5
:1061A00003EBE1010A704FF480713148FFF7E1F928
:1061B0000A20FEF74CFD601CC4B2342CA1DB4FF466
:1061C00000712B48FFF7D5F99DF8000000F00F0093
:1061D0009DF80010C1F3021101EB810100EB4100B9
:1061E00028809DF8010000F00F009DF80110C1F318
:1061F000021101EB810100EB410030809DF80200AB
:1062000000F00F009DF80210C1F3011101EB8101B4
:1062100000EB410038809DF8040000F00F009DF86D
:106220000410C1F3011101EB810100EB4100A8F85A
:1062300000009DF8050000F00F009DF80510C1F367
:10624000001101EB810100EB4100A9F800009DF86D
:10625000060000F00F009DF80610090901EB81010E
:1062600000EB410000F2DA70AAF80000BDE8FC87FC
:106270000010014008B50121402003F091FE80206C
:10628000ADF8000004208DF8030002208DF8020014
:1062900069460A48FFF790F84FF48070ADF80000A7
:1062A00069460648FFF788F84FF40070ADF8000023
:1062B00069460248FFF780F808BD00000018014059
:1062C00018B9054A12880A8004E0012802D10A8818
:1062D000014B1A8070470000D4000020174818496D
:1062E000086018484860184888601848C86018480E
:1062F000086118484861184888611848C8611848FA
:1063000008624862174888621748C86217480863DD
:1063100017484863174888631748C86310480864DB
:10632000164848640E488864C864154808651548CE
:1063300048651548C8650A4808667047EDA000081A
:1063400020490020F7A0000811A1000825A9000895
:1063500019A800082DA70008B1B000083DAB00083F
:10636000C162000801AE000829AD000809AC0008B0
:1063700069AC0008C9AC000895AD000871A300081D
:106380008DB10008ADB1000809A2000810B504469F
:10639000012C04D181020548FFF7EDF804E04FF429
:1063A00080610248FFF7E5F810BD000000180140C9
:1063B00008B50121402003F0F3FD4FF48060ADF8F3
:1063C000000010208DF8030002208DF802006946BD
:1063D0000448FEF7F1FF4FF480610248FFF7C9F867
:1063E00008BD00000018014070B504460025A18AD0
:1063F0002069FFF7BEF821896068FFF7BCF801202B
:10640000FEF732FCA18A2069FFF7B5F80320FEF7FA
:106410002BFC21896068FFF7A3F8012800D1012532
:10642000A18A2069FFF7A5F80120FEF71DFC284688
:1064300070BD70B504460D46A18A2069FFF799F832
:106440000120FEF711FC21896068FFF794F8002015
:106450002870072620E0A18A2069FFF78AF801202A
:10646000FEF702FCA18A2069FFF785F80320FEF7FA
:10647000FBFB21896068FFF773F8012803D12978B5
:10648000B04001432970A18A2069FFF772F8022009
:10649000FEF7EAFB701E46B2002EDCDA70BD38B59E
:1064A00004460121206803F07BFD0121E06803F030
:1064B00077FD2089ADF8000014208DF8030003203B
:1064C0008DF8020069466068FEF776FF21896068F2
:1064D000FFF751F8A08AADF8000069462069FEF781
:1064E0006BFFA18A2069FFF746F838BD2DE9F84314
:1064F00080460E4617461C4600250020208006F0E8
:10650000FE06404600F0ADF83146404600F03EF849
:106510004046FFF769FF00B16D1E3946404600F066
:1065200035F84046FFF760FF00B16D1E46F00106EA
:10653000404600F096F83146404600F027F84046C5
:10654000FFF752FF00B16D1E69464046FFF771FF2D
:1065500020889DF8001008432080404600F049F84C
:1065600069464046FFF765FF20889DF800104FF40C
:106570007F4202EA012108432080404600F055F89E
:10658000404600F086F82846BDE8F8832DE9F04142
:1065900004460E460127072527E0A18A2069FEF759
:1065A000E8FF0120FEF760FB46FA05F000F001006D
:1065B00020B121896068FEF7DEFF03E02189606871
:1065C000FEF7D7FF0120FEF74FFBA18A2069FEF7F7
:1065D000D2FF0520FEF748FBA18A2069FEF7C9FF1C
:1065E0000120FEF741FB681E45B2002DD5DABDE85B
:1065F000F08110B50446A18A2069FEF7BAFF21890F
:106600006068FEF7B6FF0120FEF72EFBA18A206925
:10661000FEF7B1FF0520FEF727FBA18A2069FEF7F0
:10662000A8FF0120FEF720FB10BD10B50446A18A8B
:106630002069FEF79EFF21896068FEF79CFF01201C
:10664000FEF712FBA18A2069FEF795FF0520FEF7F1
:106650000BFBA18A2069FEF78CFF0120FEF704FBEB
:1066600010BD10B5044621896068FEF784FF022042
:10667000FEF7FAFAA18A2069FEF77DFF0220FEF7F5
:10668000F3FA21896068FEF774FF0220FEF7ECFA46
:1066900010BD10B50446A18A2069FEF76AFF0120EB
:1066A000FEF7E2FA21896068FEF763FF0120FEF73A
:1066B000DBFAA18A2069FEF75EFF0220FEF7D4FA1A
:1066C00021896068FEF757FF0120FEF7CDFA10BD63
:1066D0002DE9F04180460E4617461D46002406F07F
:1066E000FE064046FFF7BDFF31464046FFF74EFF2E
:1066F0004046FFF779FE00B1641E39464046FFF779
:1067000045FF4046FFF770FE00B1641EE9B2404607
:10671000FFF73CFF4046FFF767FE00B1641E290A01
:106720004046FFF733FF4046FFF75EFE00B1641EB0
:106730004046FFF7AEFF2046BDE8F0812DE9F0416D
:1067400080460D4616461F46002405F0FE054046CD
:10675000FFF787FF29464046FFF718FF4046FFF73F
:1067600043FE00B1641E31464046FFF70FFF40462E
:10677000FFF73AFE00B1641E39464046FFF706FFB8
:106780004046FFF731FE00B1641E4046FFF781FF2F
:106790002046BDE8F08110B5012003F099FC00BF50
:1067A000612003F077FC0028FAD045F2555000F044
:1067B00029F8042000F01AF84FF47A6000F01CF871
:1067C00000F00CF800F002F810BD00004CF6CC40D0
:1067D0000149086070470000003000404AF6AA20D6
:1067E00001490860704700000030004001494860DE
:1067F0007047000000300040014988607047000089
:10680000003000400149086070470000003000403F
:106810000021234880F8B111C06CFF2802D1204824
:10682000C1643CE01E4890F84C0000F0F0002028C5
:1068300003D11C481C49086031E0194890F84C000D
:1068400000F0F000102803D118481749086026E02E
:10685000134890F84C0000F0F000402803D1144891
:10686000114908601BE00E4890F84C0000F0F00061
:10687000802803D10F480C49086010E0084890F8C0
:106880004C0000F0F000602803D10B480649086076
:1068900005E000210248C164D0F8F4114165704759
:1068A000B0090020C12B000898000020216E0008CC
:1068B000D56D00086D290008314900082DE9FE4F0B
:1068C00005460C46DFF8D491DFF8D4A1DFF8D4B147
:1068D0004946284607F0F2FB0746734801684846D8
:1068E00007F0ECFB804671480168404607F014FD54
:1068F0000646394607F010FA6D4908606A48006894
:106900006C4908606C4801686C4807F0D7FB02903E
:106910006B480168484607F0D1FB0190694801685F
:10692000484607F0CBFB009067480168009807F0E5
:10693000F3FC8046019907F081FD0746029907F0B4
:10694000EBF90646514607F0E7F9604908605A48F6
:106950000168484607F0B2FB0646594801683046D0
:1069600007F0DAFC5A49086053480168484607F0C6
:10697000A5FB064653480168304607F0CDFC554953
:10698000086051464C48006807F0C6F95249086053
:1069900059464E48006807F0BFF9064631464B4855
:1069A000006807F02DFA4D490860594647480068CD
:1069B00007F0B2F9064631464648006807F020FA6B
:1069C000474908603A480168204607F037FD074606
:1069D00042480168384607F071FB064634480168B2
:1069E000304607F099F9314908603148016820467E
:1069F00007F024FD07463A480168384607F05EFB79
:106A000006462C480168304607F086F9264908609A
:106A1000324801684FF07E5007F010FD06462B48C3
:106A20000168304607F04AFB274908602B48016897
:106A30004FF07E5007F002FD0646254801683046BB
:106A400007F03CFB1E49086025480168254807F00F
:106A500035FB07461D480168384607F02FFB064600
:106A60001C480168304607F057F9164908601C4871
:106A700001681C4807F022FB0746154801683846A4
:106A800007F01CFB064614480168304607F044F93D
:106A90000949086005480068BDE8FE8F0AD7A33C95
:106AA0000AD7233C00002041E8000020E400002039
:106AB000DC000020E00000200801002017B7D139D9
:106AC0000001002004010020FC000020EC00002058
:106AD000F0000020F4000020F80000200C0100204D
:106AE00010010020000080BF10B50948007838B9B7
:106AF00001200749087002210648FEF73AFD06E02A
:106B000000200349087002210248FEF734FD10BD41
:106B10001A0100200018014008B50121402003F0AF
:106B20003FFA0220ADF8000010208DF8030002208B
:106B30008DF8020069460448FEF73EFC0221024837
:106B4000FEF719FD08BD00000018014010B5022134
:106B50000148FEF710FD10BD0018014010B50221DC
:106B60000148FEF706FD10BD00180140F8B5694662
:106B70000F2004F03FFB0EE069460F2004F03AFBC3
:106B80009DF80000692800D106E0002401E0601CA7
:106B9000C4B2322CFBDBEFE700BF0021112005F06F
:106BA00017FB7021102005F013FB0121122005F0C6
:106BB0000FFB11E0002000906946122004F01AFB40
:106BC0009DF8000000F0010000B906E0002401E09B
:106BD000601CC4B2322CFBDBECE700BF00210120BB
:106BE00005F0F6FA20210B2005F0F2FA00210D2025
:106BF00005F0EEFA00210E2005F0EAFA43211020FC
:106C000005F0E6FA4221112005F0E2FA7421122083
:106C100005F0DEFA8C21132005F0DAFA00211420A9
:106C200005F0D6FA0021152005F0D2FA0021162031
:106C300005F0CEFAC421172005F0CAFA1021582019
:106C400005F0C6FA3821182005F0C2FA38211920BB
:106C500005F0BEFA002400203C49086037E000201F
:106C6000009069461E2004F0C5FA9DF8000000F06F
:106C7000020002281DD100256946232004F0BAFA3B
:106C80009DF8000005436946222004F0B3FA28026B
:106C900005B29DF800000543284607F0AFF9064607
:106CA0002A480168304607F037F828490860601C18
:106CB000C4B2052C0BDD204607F0B8F90646314674
:106CC0002248006807F09CF82049086000E0C6E709
:106CD00000BF002437E00020009069461E2004F029
:106CE00089FA9DF8000000F0020002281DD100255D
:106CF0006946232004F07EFA9DF8000005436946AA
:106D0000222004F077FA280205B29DF8000005431E
:106D1000284607F073F906460C480168304606F02D
:106D2000FBFF0A490860601CC4B21E2C0BDD204624
:106D300007F07CF9064631460448006807F060F821
:106D40000249086000E0C6E700BFF8BDD800002097
:106D500008B5002400BFFFF7DFFE24E0601CC4B2CA
:106D60001148006D28B9062C16DD0024FFF7BCFE83
:106D700012E00D48006D012802D1FFF7EFFE0BE095
:106D80000948006D022805D1022C05DB0024FFF71D
:106D9000ABFE01E0FFF7DAFEFFF720FD6A460021B7
:106DA0000A2001F093FCD9E7B009002010B54FF498
:106DB00000410248FEF7DFFB10BD00000008014063
:106DC00010B54FF400410248FEF7D3FB10BD0000A0
:106DD000000801400E4890F84C0000F0F0004028F8
:106DE00005D10B4890F84C0000F00F0018B109488D
:106DF0000949086070470020054981F8B00107493A
:106E000003484165012180F8B11100BFF2E700009D
:106E1000B009002011680008980000200000B4426A
:106E200010B51E4890F84C0000F0F000102803D078
:106E30001B481C49086010BD0020184981F8B001AA
:106E4000084690F84C0018280CD10121134880F80E
:106E5000B1110146486B4FF0804106F05DFF0F49CC
:106E6000486518E00D4890F84C0014280CD1012119
:106E70000A4880F8B1110146886B4FF0804107F055
:106E8000DDFA0649486506E00021044880F8B111A2
:106E9000D0F8F411416500BFCDE70000B009002033
:106EA00011680008980000202DE9F04F89B0824653
:106EB0000C464FF0000BD9460021504607F0CAF9A6
:106EC0002FD8504606F0FCFE074605F0A1FF054608
:106ED00006F0AEFB8146504606F0F2FECDE9000119
:106EE00005F096FF05460E46504606F0E9FE0746B9
:106EF0002A46334606F0FAFDCDE9040199FBF4F089
:106F000004FB1095284606F0F0FBCDE90201DDE90F
:106F1000042306F045F9CDE9060106F00FF9834692
:106F200056E02AF0004B584606F0CAFE074605F028
:106F30006FFF054606F07CFB814699FBF4F004FBED
:106F40001099584606F0BCFECDE9000105F060FF3F
:106F5000CDE90201584606F0B3FE0746DDE90223FB
:106F600006F0C4FD05460E46484606F0BEFB2A461E
:106F70003346CDE9040106F013F900221346CDE9AA
:106F8000060106F019FB02D14FF0000B20E020466D
:106F900007F034F806463146584606F031FF0546FC
:106FA00006F0F0FF00F10109504606F089FE21F0DD
:106FB0000048074609FB04F006F097FB3A464346B3
:106FC000CDE9060106F092FD054606F0B7F88346C6
:106FD000584609B0BDE8F08F08B5002000F06EF803
:106FE00002F030FF5CE02F4A2F49002000F08CF8BF
:106FF00000283AD12B4800782C49898A884202D04F
:1070000028480078D0B900202949088029490880FB
:10701000254802882849234802F004FD25490880B4
:1070200008460088002836DD1E48007898B3224ABA
:1070300008460188002000F0BFF82CE01C480188B9
:107040000088401C1A4A108047F23050814222DBEF
:10705000FFF7ACFE6A460021642001F037FBFFF722
:10706000AFFE00201249088015E011480188008811
:10707000401C0F4A108047F2305081420BDBFFF773
:1070800095FE6A460021642001F020FBFFF798FE80
:107090000020074908806A460021012001F016FB04
:1070A000A1E700002C46002088000020B009002045
:1070B0008A000020860000200045002010B504460C
:1070C00014B1012C14D109E004F07CFD0A480B49ED
:1070D00008600B480968C1F860020AE004F072FD1C
:1070E00008480649486006484968C1F8600200E05F
:1070F00000BF00BF10BD0000C84900201C010020D7
:10710000814B00082C4C00202DE9F04104460E462E
:107110009046284850F824000079AB2842D12548F1
:1071200050F824004179234850F824004079401C4D
:10713000204A52F824205071062938DB56201D4978
:1071400051F82410087100201A4951F82410487190
:10715000184850F82400008830800020154951F864
:10716000241008803188134A52F82420901DFCF71F
:10717000E7F80746DFB900250EE00E4850F8240076
:10718000801D405D08F80500FF210A4850F82400E2
:10719000801D4155681C85B23088A842EDDC002076
:1071A000BDE8F0810020034951F8241048714FF0E8
:1071B000FF30F5E71C0100202DE9F04105460E46A1
:1071C0009046002406E000BF00BF00BF00BF00BF24
:1071D000601C84B24CF250308442F4DB002406E0A0
:1071E00000BF00BF00BF00BF00BF601C84B24CF2F4
:1071F00050308442F4DB002409E018F804101548EC
:1072000050F8250000F599700155601C84B2B44215
:10721000F3DB104951F8251001F599703146FCF760
:107220008FF807460B4850F8250000F599708755F0
:107230003A0A084850F8250000F59970711C42542C
:10724000B21C90B2034A52F82520D2F86012884747
:10725000BDE8F0811C01002010B504F0A1FC002461
:1072600011E00221204600F093F90020C4EBC40194
:10727000064A02EB81010876C4EBC40102EB8101EE
:107280008876601CC4B2012CEBDB10BDAC49002039
:1072900008B5002400BF00F01BFA69E1B54890F87A
:1072A000B10100287ED0B34890F8F801C0F3401037
:1072B000002877D1AF4890F8F801C0F300100028FB
:1072C000F7D1AC4890F8F80100F001000028F0D1A7
:1072D000A84890F8F801C0F340000028E9D1A5487B
:1072E000D0F8F801C0F340700028E2D1A148D0F8EE
:1072F000F801C0F380600028DBD19E4890F8B0010F
:10730000012807D19B4908694FF0804106F078FDBC
:10731000044600E000249848007820B1012854D0A9
:10732000022874D174E0934AD2F8B811506D07F076
:1073300085F806468F480169304606F08BFF12D269
:1073400002218C4880F8B4118C4801780078401CE8
:107350008A4A1070C82937DD02208749087000204A
:107360001146087030E083480169854806F0A6FEA2
:107370000646804AD2F8B811506D07F05FF807460C
:10738000314606F067FE14D201217A4880F8B41124
:107390007A4801780078401C784A1070C82913DDBB
:1073A000012000E05FE07449087000201146087079
:1073B0000AE0FFF751FF00206F4908706F4908701D
:1073C00000216C4880F8B4114CE06A4AD2F8B81138
:1073D000506D07F033F80646214606F03BFF05D90D
:1073E000644890F8F801C0F3800038B1FFF734FF2B
:1073F0000020614908706349088007E061480088FF
:10740000401C60490880002000F07AF92AE021E061
:10741000584A516DD2F8B80107F010F806462146D7
:1074200006F018FF05D9534890F8F801C0F3C000E2
:1074300038B1FFF711FF00204F490870514908800B
:1074400007E050480088401C4E490880002000F0AA
:107450007DF907E0FFF700FF002047490870494920
:10746000088000BF0BE0FFF7F7FE002042490870DC
