:020000040800F2
:1000000068060020D5010008DD010008DF010008B6
:10001000E1010008E3010008E5010008000000001C
:10002000000000000000000000000000E7010008E0
:10003000E901000800000000EB010008ED010008E4
:10004000EF010008EF010008EF010008EF010008D0
:10005000EF010008EF010008EF010008EF010008C0
:10006000EF010008EF010008EF010008EF010008B0
:10007000EF010008EF010008EF010008EF010008A0
:10008000EF010008EF010008EF010008EF01000890
:10009000EF010008EF010008EF010008EF01000880
:1000A000EF010008EF010008EF010008EF01000870
:1000B000EF010008EF010008EF010008EF01000860
:1000C000EF010008EF010008EF010008EF01000850
:1000D000EF010008EF010008EF010008EF01000840
:1000E000EF010008EF010008EF010008EF01000830
:1000F000EF010008EF010008EF010008EF01000820
:10010000EF010008EF010008EF010008EF0100080F
:10011000EF010008EF010008EF010008EF010008FF
:10012000EF010008EF010008EF010008EF010008EF
:1001300000F002F800F03AF80AA090E8000C8244BF
:100140008344AAF10107DA4501D100F02FF8AFF29C
:10015000090EBAE80F0013F0010F18BFFB1A43F0A5
:1001600001031847D0040000F0040000103A24BF37
:1001700078C878C1FAD8520724BF30C830C144BF0C
:1001800004680C607047000000230024002500264E
:10019000103A28BF78C1FBD8520728BF30C148BFEA
:1001A0000B6070471FB51FBD10B510BD00F035F8CE
:1001B0001146FFF7F7FF00F021FA00F053F803B4FF
:1001C000FFF7F2FF03BC00F05BF8000080F3088843
:1001D000704700000948804709480047FEE7FEE7EE
:1001E000FEE7FEE7FEE7FEE7FEE7FEE7FEE7FEE7E7
:1001F00004480549054A064B70470000E904000819
:100200003101000868000020680600206802002014
:1002100068020020704770477047754600F02CF860
:10022000AE4605006946534620F00700854618B0E3
:1002300020B5FFF7DDFFBDE820404FF000064FF08E
:1002400000074FF000084FF0000B21F00701AC460B
:10025000ACE8C009ACE8C009ACE8C009ACE8C0092A
:100260008D46704710B50446AFF300802046BDE8C8
:100270001040FFF7A4BF00000048704704000020B2
:1002800001491820ABBEFEE72600020070470000BF
:100290000149C860704700000020024030B50446A4
:1002A00004254FF4302000F089F80546042D17D1BD
:1002B0000C48006940F002000A49086108464461A0
:1002C000006940F0400008614FF4302000F076F8FB
:1002D00005460448006941F6FD710840014908617E
:1002E000284630BD0020024004200B49C96801F0B7
:1002F000010109B101200EE00749C96801F00401BC
:1003000009B1022007E00449C96801F0100109B1F0
:10031000032000E0042070470020024004200B4925
:10032000C96801F0010109B101200EE00749C9685F
:1003300001F0040109B1022007E00449C96801F095
:10034000100109B1032000E00420704700200240A2
:100350000348006940F080000149086170470000CF
:100360000020024070B504460D460426F00200F05D
:1003700025F80646042E11D10948006940F0010015
:10038000074908612580F00200F018F80646044885
:10039000006941F6FE71084001490861304670BDB0
:1003A0000020024002480349486003484860704703
:1003B0002301674500200240AB89EFCD00B502461E
:1003C0000423FFF791FF034603E0FFF78DFF034689
:1003D000521E012B01D1002AF7D102B9052318467C
:1003E00000BD10B502460B460020002100BF04E00E
:1003F00032F811400444A0B2491C9942F8D310BD10
:1004000010B500F001F810BD0CB50020019000906F
:100410003348006840F480303149086000BF3048FC
:10042000006800F4003000900198401C0190009892
:1004300018B90198B0F5A06FF1D12948006800F40F
:10044000003010B10120009001E0002000900098E1
:10045000012843D12348006840F01000214908607A
:100460000846006820F0030008600846006840F075
:10047000020008601A484068194948600846406808
:1004800048600846406840F480604860084640681C
:1004900020F47C1048600846406840F4E81048604A
:1004A0000846006840F08070086000BF0C48006893
:1004B00000F000700028F9D00948406820F00300DF
:1004C000074948600846406840F00200486000BFA5
:1004D0000348406800F00C000828F9D10CBD00006A
:1004E000001002400020024010B51348006840F0A0
:1004F00001001149086008464068104908400E494B
:100500004860084600680E4908400B4908600846E4
:10051000006820F4802008600846406820F4FE004F
:1005200048604FF41F008860FFF76AFF4FF00060DB
:100530000449086010BD0000001002400000FFF8F0
:10054000FFFFF6FE08ED00E070B548E04FF4A03183
:100550002748FFF746FF4FF6FF7188422FD1FFF77C
:1005600021FF3520FFF794FE00240AE0214901EB2A
:10057000C420FFF793FE00BFFFF7D0FE0128FBD099
:10058000641C502CF2D31C480668002413E0184960
:1005900031F8145000BFFFF7C1FE0128FBD0154908
:1005A00001EB44002946FFF7DDFE00BFFFF7B6FE72
:1005B0000128FBD0641CB442E9D3FFF7C9FEFFF762
:1005C000F1FE3520FFF764FE0B48801EFFF766FE44
:1005D00000BFFFF7A3FE0128FBD0FFF7B9FE0648D6
:1005E000801E00884AF6AA218842AFD070BD000064
:1005F00000A002080020000802F00708FFF7A4FF8F
:1006000011E00948006809490840B0F1005F0AD1CB
:10061000054840680649086003490868FFF7D6FDA9
:10062000034800688047ECE7002000080000FE2F28
:100630000000002054060008000000200400000014
:100640006C01000858060008040000206406000041
:08065000880100080000000011
:0400000508000131BD
:00000001FF
:10200000F054002021220008292200082B22000879
:102010002D2200082F2200083122000800000000B5
:102020000000000000000000000000003322000853
:1020300035220008000000002F2300083980000826
:102040003B2200083B2200083B2200083B220008FC
:102050003B2200083B2200083B2200083B220008EC
:102060003B2200083B2200083B2200089949000857
:102070003B2200083B2200083B2200083B220008CC
:102080003B2200083B2200083B2200083B220008BC
:102090003B2200083B2200083B2200083B220008AC
:1020A0003B2200083B2200083B2200083B2200089C
:1020B0003B220008C1AD00083B2200083B2200087B
:1020C0003B2200083B2200083B2200083B2200087C
:1020D0003B2200083B2200083B2200083B2200086C
:1020E0003B2200083B2200083B2200083B2200085C
:1020F0003B2200083B2200083B2200083B2200084C
:102100003B2200083B2200083B2200083B2200083B
:1021100081B100083B2200083B2200083B22000856
:102120003B2200083B2200083B2200083B2200081B
:1021300000F002F800F04AF80AA090E8000C82448F
:102140008344AAF10107DA4501D100F03FF8AFF26C
:10215000090EBAE80F0013F0010F18BFFB1A43F085
:102160000103184734B9000054B900000A4410F8BC
:10217000014B14F00F0508BF10F8015B240908BFDC
:1021800010F8014B6D1E05D010F8013B6D1E01F8D3
:10219000013BF9D1641E03D0641E01F8015BFBD141
:1021A0009142E4D37047000000230024002500265C
:1021B000103A28BF78C1FBD8520728BF30C148BFAA
:1021C0000B6070471FB51FBD10B510BD00F05EF865
:1021D0001146FFF7F7FF09F089FE00F07CF803B421
:1021E000FFF7F2FF03BC00F07FF8000072B6704703
:1021F00062B67047EFF3108072B6704780F31088B4
:10220000704730BF704720BF7047B0FA80F070470A
:1022100090FAA0F0B0FA80F0704790FAA0F0704702
:102220000948804709480047FEE7FEE7FEE7FEE76A
:10223000FEE7FEE7FEE7FEE7FEE7FEE704480549A6
:10224000054A064B70470000F1AC00083121000838
:10225000F04E0020F0540020F0500020F0500020FC
:1022600070477047704710B500F008F8006810BD5F
:1022700010B5044600F002F8046010BD0048704735
:102280008C4E0020004870478C4E00207546FFF7AA
:10229000F9FFAE4605006946534620F00700854623
:1022A00018B020B5FFF7CAFFBDE820404FF0000688
:1022B0004FF000074FF000084FF0000B21F007012E
:1022C000AC46ACE8C009ACE8C009ACE8C009ACE871
:1022D000C0098D46704710B50446AFF30080204614
:1022E000BDE81040FFF77BBF01491820ABBEFEE7F9
:1022F00026000200704700001D484FF0FF010170EA
:10230000002080F309881B48016881F308881A4877
:102310004FF08051016062B6FEE717484FF08051E0
:102320000160704714484FF080510160704772B6E9
:10233000EFF3098028B1203880E8F00F0F490968D1
:10234000086000B50E4880475DF804EB0D480E4963
:102350000A78027009480D490A680260106890E81E
:10236000F00F203080F309884EF0F40E62B670470B
:1023700022ED00E06000002004ED00E058000020A5
:10238000B97E00082D0000202E0000205C000020F7
:1023900010B502210F4800F0F5F800210E4802F0B8
:1023A000A3FB32200C490839C86001210A4802F019
:1023B0009BFB0121074800F0F3F80648083000684D
:1023C00040F002000349083108600121014800F093
:1023D00086F910BD002401400800024000B591B00C
:1023E0000121480207F0DAF80121082007F0D6F8A9
:1023F0000121102007F0D2F84FF4004007F0A2F8B6
:102400000120ADF8400000208DF8430010A9584885
:1024100002F026FF0220ADF8400000208DF84300B6
:1024200010A9534802F01CFF0120ADF84000002025
:102430008DF8430010A94F4802F012FF0820ADF8B4
:10244000400000208DF8430010A94A4802F008FF20
:102450000420ADF8400000208DF8430010A9454845
:1024600002F0FEFE0121084607F078F8424800908D
:1024700042480190002002903220039000200490F6
:102480008020059040000690800007900020089072
:102490004FF40050099000200A906946384802F035
:1024A0004EFB0121364802F01FFB01220221344875
:1024B00002F03CFB00200B9001208DF830008DF8DD
:1024C00031004FF460200D9000200E9005208DF813
:1024D0003C000BA928484C3800F078F8072301226B
:1024E000082125484C3800F099F8072302220921D9
:1024F00021484C3800F092F8072303220A211E4895
:102500004C3800F08BF8072304220C211A484C3871
:1025100000F084F8072305220D2117484C3800F0FD
:102520007DF8012114484C3800F03AF80121124896
:102530004C3800F02AF810484C3800F0CBF800BFB7
:102540000D484C3800F037F80028F9D10A484C38CB
:1025500000F0D0F800BF08484C3800F02CF80028F4
:10256000F9D1012104484C3800F0B9F811B000BD90
:10257000000C0140001001404C240140FC4D0020A3
:1025800008000240CA430260704721B1826842F0ED
:102590000102826003E0826822F0010282607047DB
:1025A00021B1826842F48072826003E0826822F482
:1025B000807282607047014600208A6802F004023F
:1025C0000AB1012000E000207047000030B502464B
:1025D0000020002350680F4C20400D790C6844EA1D
:1025E00005242043506090680B4C2040D1E90254F0
:1025F0002C434D7944EA450420439060D06A20F48E
:1026000070000C7C641EE4B2234340EA0350D062A5
:1026100030BD0000FFFEF0FFFDF7F1FFF0B504460E
:102620000D4600200021092D11DDE068A5F10A0604
:1026300006EB4607072606FA07F18843A5F10A06C6
:1026400006EB460603FA06F10843E0600CE0206959
:1026500005EB4507072606FA07F1884305EB450613
:1026600003FA06F108432061072A0FDA606B561E51
:1026700006EB86071F2606FA07F18843561E06EB6F
:10268000860605FA06F10843606322E00D2A0FDA98
:10269000206BD61F06EB86071F2606FA07F1884334
:1026A000D61F06EB860605FA06F10843206310E004
:1026B000E06AA2F10D0606EB86071F2606FA07F16F
:1026C0008843A2F10D0606EB860605FA06F10843DB
:1026D000E062F0BD816841F008018160704721B17E
:1026E000826842F4A002826003E0826822F4A002C1
:1026F00082607047816841F004018160704700008A
:1027000051485249086052484860524888605248CF
:10271000C86052480861524848615248886152482E
:10272000C86152480862524848625248886252481A
:10273000C862524808635248486352488863524806
:10274000C8655248086652484866524888665248EA
:10275000C866524808675248C1F884005148C1F819
:1027600088005148C1F898005048C1F89C00504872
:10277000C1F8A0004F48C1F8AC004F48C1F8B00004
:102780004E48C1F8B4004E48C1F8B8004D48C1F8F1
:10279000BC004D48C1F8C0004C48C1F8C4004C48CA
:1027A000C1F8C8004B48C1F8CC004B48C1F8D00074
:1027B0004A48C1F8DC004A48C1F8E0004948C1F87D
:1027C000E4004948C1F8E8004848C1F8EC0048482E
:1027D000C1F844014748C1F848014748C1F85001D1
:1027E0004648C1F864014648C1F868014548C1F847
:1027F0006C014548C1F870014448C1F8740144486F
:10280000C1F878014348C1F88C014348C1F89001F0
:102810004248C1F894014248C1F898014148C1F8C2
:102820009C014148C1F8A0014048C1F8A4014048BA
:10283000C1F8A8013F48C1F8BC013F48C1F8C00138
:102840003E48C1F8C4017047D9960008C44600202C
:10285000B5A50008D5A5000839A7000859A70008A4
:10286000FD960008819A0008159700082597000832
:10287000659400087594000845990008559900086A
:10288000DD970008ED9700088DA30008B5A20008A9
:1028900095A10008F5A1000855A2000815A300089D
:1028A000D9A00008ED99000885970008D99900087B
:1028B000359700085DA0000879A000087D9D0008FC
:1028C000999D0008919C0008AD9C0008EDA30008AC
:1028D00009A40008C19B0008DD9B00085D97000863
:1028E00005950008B59400081D950008859400081A
:1028F000F19A00082DA00008B59A0008E99E00088A
:10290000059F00087D9F0008999F000819A10008F5
:1029100035A10008B1A400087DA400089D9E000810
:10292000699E0008299B0008459B0008E1A4000857
:10293000FDA400081D9A0008599C000879A500080C
:1029400070B50024304890F8480000F0F00080286E
:1029500005D12D4890F8480000F00F0030B100205C
:102960002A4908802A482B49086070BD0020264962
:1029700081F8AC010021244880F8AD11234800887B
:10298000401C2249088008460088B0F5967F00DA8E
:10299000EBE700201D4908801B4890F8F401C0F3C4
:1029A000401058BB184890F8F401C0F3001028BB41
:1029B0001548D0F8B41118480AF02EFF0546124801
:1029C000016828460AF096FB0446144920460AF09E
:1029D0002FFD07D2124920460AF02AFE02D20A48E9
:1029E000046002E00020084908600748D0F8F801B8
:1029F00020F00100401C0449C1F8F8010021024800
:102A0000816400BFB1E7000094090020A00000200D
:102A1000B9660008900000200000B4420000204188
:102A2000000020C11CB5002400BF00F027F821E001
:102A30006946002002F0FAFC48B90F480168009886
:102A40000AF058FB0C49C1F8B40100240DE0142C25
:102A500002DA601C84B208E00748D0F8F40120F0E4
:102A6000100010300449C1F8F40101AA002102202D
:102A700005F06AFADCE700009409002008B507F0C9
:102A8000EDFE03F0BBFF6946182007F091FE9DF8AC
:102A90000000382801D1002008BD4FF0FF30FBE7CF
:102AA00008B500BF0BE000F0B5FC02F015FD0449CD
:102AB000C1F8F0016A4600211E2005F045FAF2E750
:102AC0009409002010B5204890F84800282803D029
:102AD0001E481F49086010BD00201B4981F8AC0149
:102AE000486B4FF07E510AF005FB04461648416DD5
:102AF00020460AF09DFD08D21349486B4FF07E51E5
:102B00000AF0F8FA1049086518E00F49886B4FF091
:102B10007E510AF081FE04460B48416D20460AF0C2
:102B200087FC08D20849886B4FF07E510AF074FE8A
:102B30000549086502E00448416D0165012102482C
:102B400080F8AD1100BFC6E794090020F92B0008FA
:102B50009400002010B50C4890F84800252803D0B8
:102B60000A480B49086010BD0020074981F8AC01F4
:102B7000888F0AF049FC044908650121024880F861
:102B8000AD1100BFEFE7000094090020F92B000809
:102B90009400002010B5144890F8480000F0F000B0
:102BA000202818D11048D0F8F401C0F3807068B91B
:102BB0000D48D0F8F401C0F3006038B908F02AFCE1
:102BC00000F082FA0948006880470BE000210648BF
:102BD00080F8AD1106E00648064908600021024869
:102BE00080F8AD1110BD0000940900209400002071
:102BF000B96600089000002000211F4880F8AD1140
:102C000090F84800242803D11C481D49086032E090
:102C1000194890F84800252803D11A481849086037
:102C200029E0154890F84800282806D1164814498C
:102C300008600021104881651DE00F4890F84800A9
:102C4000212803D111480E49086014E00A4890F881
:102C50004800222803D10E48094908600BE00648C5
:102C600090F84800202803D10A480549086002E08E
:102C700009480A490860704794090020C52F0008D8
:102C800094000020552B0008C52A0008A12C00083C
:102C9000B92E00082D2F0008B9660008900000200A
:102CA00010B57C4890F84800212808D000207A49C7
:102CB00008707A4908807A487A49086010BD002077
:102CC000744981F8AC017448007805287ED2DFE8A9
:102CD00000F0032D6581B80073496E48016501213C
:102CE00080F8AD11014608696F490AF003FA0446FD
:102CF0006848D0F8B41120460AF09AFC15D8654807
:102D0000016969480AF088FD04466248D0F8B411A8
:102D100020460AF08DFB08D80120644908705E49FE
:102D2000087000215B4880F8AD11B0E001215948DE
:102D300080F8AD115D49097801EB8101490001F18D
:102D40003C000AF049FB53490865086D58490AF0F0
:102D50006FFC0AD801205549087003204E490870BD
:102D600000214C4880F8AD1117E04A49086D4FF03A
:102D70007E510AF051FD04464648D0F8B411204671
:102D80000AF056FB09D2022043490870002043494B
:102D9000088000213F4880F8AD1178E000213D48CF
:102DA00080F8AD113D4801880088401C3B4A1080E6
:102DB00042F6E06081420CDB0020114608800120D1
:102DC0003549087039480078401C00E053E0374925
:102DD00008705CE001212F4880F8AD113349097873
:102DE00001EB81014900C1F178000AF0F5FA2949A7
:102DF0000865086D2F490AF01BFB09D801202B49F3
:102E00000870254908700021224880F8AD1117E0AC
:102E10002049086D4FF07E510AF06CF904461D48B8
:102E2000D0F8B41120460AF003FC09D804201A494E
:102E300008700020194908800021164880F8AD115B
:102E400025E00021134880F8AD111448018800885E
:102E5000401C124A108042F6E06081420ADB0020EA
:102E60001146088003200C49087010480078401C67
:102E70000E4908700BE000200749087007490880D8
:102E80000A4908700021034880F8AD1100BF00BF57
:102E900000BF13E794090020A2000020A400002036
:102EA000F92B00089400002000007042A6000020CA
:102EB0000000F4420000684210B5174890F848003E
:102EC000222803D015481649086010BD0020124979
:102ED00081F8AC01D1F8B40112490AF09DFC044616
:102EE00011490AF0A5FB08D20B49886B4FF08041CD
:102EF0000AF092FC0849086507E00749486B4FF063
:102F000080410AF0F7F8044908650121024880F879
:102F1000AD1100BFD9E7000094090020F92B00088B
:102F2000940000200000B442CDCCCC3D10B5224826
:102F300090F84800202803D020482149086010BD9F
:102F400001201D4981F8AC01886B4FF07E510AF0D9
:102F500063FC04461848D0F8F01120460AF068FADD
:102F600008D81549886B4FF07E510AF055FC12497C
:102F700008651AE01049486B4FF07E510AF0BAF824
:102F800004460D48D0F8F01120460AF051FB08D84D
:102F90000949486B4FF07E510AF0ACF806490865C4
:102FA00003E00548D0F8F01101650121024880F8DE
:102FB000AD1100BFC3E7000094090020F92B000801
:102FC0009400002010B50C4890F84800242803D045
:102FD0000A480B49086010BD0020074981F8AC0180
:102FE000888F0AF011FA044908650121024880F827
:102FF000AD1100BFEFE7000094090020F92B000895
:103000009400002010B501214FF0C05006F0B6FA30
:10301000012005F017FE002000F042F8002000F02B
:103020002BF800F01FF8002005F00CFE10BD10B5C5
:10303000042000F027F84AF6AA21884201D1002096
:1030400010BD4FF0FF30FBE710B5012005F0FAFD91
:103050004AF6AA21042000F029F8002005F0F2FD2C
:1030600010BD00000348008840F0010001490880BD
:1030700070470000346C0040014908607047000050
:1030800088860D4208B50146002000900348009054
:103090000098084400900098008808BD006C00402B
:1030A000014908607047000000860D4208B5002203
:1030B0000092044A0092009A02440092009A116021
:1030C00008BD0000006C00400E4890F8480024281D
:1030D00017D00C4890F84800252809D10948D0F8A5
:1030E000F401C0F3007060B920210648816408E053
:1030F0000448D0F8F401C0F3007010B12521014854
:10310000816470479409002070B5044600250C497D
:1031100020460AF0C1F906460A490AF07DFB054639
:103120004FF07E5128460AF083FA01D84FF07E55C1
:10313000054928460AF07CF900D8034D284670BDA1
:10314000F7E4213E666666400AD7233C70B500244A
:10315000002503F081F81848184908610015888295
:103160000820C86014484860C0140881082008601E
:10317000084603F0E8F800F02DF802F09BFD054644
:103180004DB90F480F4908600F4848600F488860E4
:103190000F48C86009E00A480A4908600A484860C0
:1031A0000A4888600A48C86000BF00BF01F028FBD9
:1031B0000446204670BD0000000C0140004900207C
:1031C00033335340F0480020333383401283C03EF2
:1031D0000931000808B50121202006F0DFF9402060
:1031E000ADF8000004208DF8030002208DF80200E5
:1031F0006946054802F034F88020ADF800006946C1
:10320000014802F02DF808BD0014014001460846AF
:10321000044A1268904203D9024A1268801A00E0F8
:10322000002070477400002070B5002500BFFEF735
:10323000E1FF054600BF0648046800BF2846FEF7C8
:10324000DDFF00BF2046FFF7E1FF0646304670BDB8
:103250007800002070B50025FFF7E6FF044600BFA8
:10326000FEF7C8FF054600BF00200449086000BF04
:103270002846FEF7C3FF00BF204670BD780000203F
:1032800000B509480088401C0749088007480088A5
:1032900018B900F039F80649086004480088401C55
:1032A0000249088000BD0000680000206A0000207C
:1032B0006C00002000B50F480088401E0D4A1080A9
:1032C00010460088A0B900F01FF80B4A10601046A5
:1032D00000680A4A1268811A09480068884201D2C7
:1032E0000748016007480068884201D2054801602C
:1032F00000BD00006A000020700000206C0000206B
:10330000780000207C0000200148406870470000E1
:10331000001000E030B502460B46002100244FF6B5
:10332000FF7000BF12E0555C684000240AE000F026
:10333000010525B140104AF20105684000E0401047
:10334000651CECB2082CF2DB4D1CA9B29942EADBF9
:1033500030BD00002DE9F74F82B08946144648463B
:1033600009F09CFE0746224A224B09F013FC054651
:1033700009F000F98146204920460AF08DF882467E
:1033800009F08CFE07461A4A1A4B09F003FC054661
:1033900009F0F0F804461948016802980AF03CFA6E
:1033A000824609F07BFE0746154A164B09F0F2FBF0
:1033B000054609F0DFF802902146484608F0AAFBCE
:1033C000009009F06BFE05460F4A104B09F0E2FB36
:1033D000074600220E4B09F0FFF8824609F0CAF8B2
:1033E0000190DDE9011003F0B1F905B0BDE8F08FFF
:1033F000D5CC5A0A48FB0F3F000080BFCC0000200C
:10340000EC51B81E85EB713FD3DEE00B93A94C4025
:103410000080564000B5C3B0002042900021419189
:1034200040913F913E913D913C913B913A91399130
:103430003891379136913591349133913291319160
:1034400030912F912E912D912C912B912A91299190
:1034500028912791269125912491239122912191C0
:1034600020911F911E911D911C911B911A91FE4854
:10347000B0F860103E91B0F862103D91B0F8641061
:103480003C91DDE93C213E9802F04EFC409040F238
:103490006C71419129E04FF4C871419890FBF1F2B1
:1034A00001FB120010B94FF4B77118E04198C21730
:1034B000199000EB927082101998A0EB820060B90D
:1034C0006421419890FBF1F201FB120010B14FF41E
:1034D000B77104E040F26D1101E040F26D113F98C8
:1034E00001443F914198401C41903E994198884247
:1034F000D1DBDDE93F1001443F91DB484168389161
:1035000081683791C1683691B0F866103B91B0F888
:1035100068103A91B0F86A103991399809F05CFF57
:1035200035903A9809F0CFFACDE91601359809F0AF
:10353000B5FD0022CD4BCDE9120109F001F9CDE92D
:103540001401DDE9162309F047F8CDE9180109F067
:1035500011F835903B9809F0B6FACDE91401359889
:1035600009F09CFD0022C14BCDE9100109F0E8F8FB
:10357000CDE91201DDE9142309F02EF80022BC4B3D
:10358000CDE9160109F0DCF8CDE9180108F0F2FFE9
:1035900035903F98401C09F01FFF3490B54936988C
:1035A00009F01CFE0F9009F079FDCDE91201359864
:1035B00009F074FD4FF08042AF4BCDE90E0109F0E8
:1035C0000BF8CDE91001DDE9122309F07DFCCDE90E
:1035D0001601349809F062FDCDE91401DDE91623E6
:1035E00008F0FAFFCDE9180108F0C4FF3490A349B0
:1035F00034980AF011F9A249199009F0EFFD3390BF
:10360000339809F04BFD9F4A9F4BCDE90E0109F01D
:10361000C1FA9E4A9E4BCDE9100108F0DDFFCDE9CD
:103620001401339809F03AFDCDE91201DDE91423C4
:1036300009F0B0FA974A984BCDE9160108F0CCFF93
:10364000CDE9180108F096FF32904FF4B47132982A
:1036500003F094FB3290339809F020FD8F4A904B91
:10366000CDE90E0109F096FA8E4A894B373BCDE938
:10367000100109F01DFCCDE91401339809F00EFD8D
:10368000CDE91201DDE9142309F084FA864A874B5B
:10369000CDE9160108F0A0FFCDE9180108F06AFF96
:1036A0003190339809F0FAFC814A824BCDE90E0142
:1036B00009F070FA804A814BCDE9100108F08CFFC7
:1036C000CDE91401339809F0E9FCCDE91201DDE9F7
:1036D000142309F05FFA7A4A7A4BCDE9160109F012
:1036E000E7FBCDE9180108F045FF309076483199A5
:1036F00009F0D2FE75490A9009F070FD0B9009F0AF
:10370000CDFC734A734BCDE90C0109F043FACDE9C6
:103710000E0108F02FFF109008F098FD119009F0AD
:10372000BDFC6D4A6D4BCDE9120109F033FACDE9CC
:103730001601339809F0B2FC694A6A4BCDE90801D9
:1037400009F028FA684A694BCDE90A0109F0B0FB93
:10375000CDE90E014FF08040319909F09DFE5B49A3
:10376000049009F03BFD059009F098FC584A594B2C
:10377000CDE9060109F00EFACDE9080108F0FAFEDC
:103780000A9008F063FD0B9009F088FCCDE90C016C
:10379000DDE90E2309F0FEF9CDE91201339809F0B5
:1037A0007DFC534A534BCDE9020109F0F3F9524A2B
:1037B000524BCDE9040108F00FFFCDE90801339821
:1037C00009F06CFCCDE90601DDE9082309F0E2F916
:1037D0004B4A4C4BCDE90A0109F06AFBCDE90E01D9
:1037E0003A49319809F0FAFC059009F057FC384A3B
:1037F000384BCDE9060109F0CDF9CDE9080108F013
:10380000B9FE0A9008F022FD0B9009F047FCCDE9C3
:103810000C01DDE90E2309F0BDF9CDE91001DDE968
:10382000122308F0D9FECDE91401DDE9162308F0D2
:10383000D3FECDE9180108F09DFE2F902F99329804
:1038400009F058FC2E90339809F028FC2E4A2F4B93
:10385000CDE9140109F09EF92D4A2E4BCDE9160150
:1038600009F026FB58E000009409002000004E40BB
:10387000000038400000C041D56C424164A1154AA7
:1038800000AD0E47C0AB8A15DADE333F2F8672A239
:103890001894E14046CEC29E768771400CDB60F200
:1038A0005025243F2AC6F99BC91F0C3C7758764007
:1038B00000D864FC6001813E03E35F521C0A063FAE
:1038C00080035D72111C913F0000404000003443B2
:1038D0004AD8124DFB2109402C616D8C9DF0323F7E
:1038E000E31A9FC9FE791A3F958098840B79943F1B
:1038F000B75F3E59315CED3EAEF36F97FDBA733F53
:10390000F6B2EDB435A2FE3F068195438B389E405A
:10391000C3F5285C8F425F40CDE9180108F02AFE0C
:103920004290FE49429809F059FC0B9009F0B6FB11
:10393000FB4AFC4BCDE90C0109F02CF9CDE90E0155
:1039400008F018FE109008F081FC119009F0A6FB19
:10395000F54AF64BCDE9120109F01CF9CDE9160143
:103960002E9809F09BFBF24AF24BCDE9120109F0C7
:10397000ABFACDE91401DDE9162309F0A5FACDE98A
:10398000180108F0F7FD2D90339809F087FBEA4AFB
:10399000EA4BCDE9000109F0FDF8E94AE94BCDE930
:1039A000020109F085FACDE90601339809F076FBAA
:1039B000CDE90401DDE9062309F0ECF8E24AE34B26
:1039C000CDE9080108F008FECDE90C01339809F0B3
:1039D00065FBCDE90A01DDE90C2309F0DBF8DC4ADF
:1039E000DC4BCDE90E0109F063FA0022DA4BCDE998
:1039F000100108F0A5FE0022D84BCDE9120108F015
:103A0000EBFD0022D44BCDE9140108F099FE002211
:103A1000D34BCDE9160108F0DFFDCDE9180108F020
:103A2000A9FD2C90BD49429809F0D8FB0B9009F0F4
:103A300035FBBB4ABB4BCDE90C0109F0ABF8CDE936
:103A40000E0108F097FD109008F092F9119009F01E
:103A500025FBC44AC44BCDE9120109F09BF8CDE91E
:103A600016012C9809F01AFBCDE91401DDE91623A3
:103A700008F0B2FDCDE9180108F07CFD2B90A749B4
:103A80002D9809F0ABFB099009F008FBA44AA54B5F
:103A9000CDE90A0109F07EF8CDE90C0108F06AFDD4
:103AA0000F9008F0D3FB9D4911902B9809F096FBDD
:103AB000099009F0F3FA9A4A9A4BCDE90A0109F004
:103AC00069F8CDE90C0108F055FD0F9008F0BEFB38
:103AD0001090119909F0E0FC129007F089FF139003
:103AE00009F0DCFA8E4A8F4BCDE9140108F028FE6C
:103AF00000229E4BCDE9160109F04CF8CDE91801E2
:103B000008F038FD2A904FF080412B9809F066FBB1
:103B10008249109009F062FB119009F0BFFA804AC7
:103B2000804BCDE9120109F035F8CDE9140108F018
:103B300021FD179008F064FC4FF0804119902B98FC
:103B400009F04CFB7549109009F048FB119009F001
:103B5000A5FA734A734BCDE9120109F01BF8CDE9C0
:103B6000140108F007FD179008F04AFC1890199905
:103B700009F092FC29906949319809F02FFB0790D0
:103B800009F08CFA664A674BCDE9080109F002F8A2
:103B900000224FF08043CDE90A0108F0FBFFCDE998
:103BA0000C0108F0E7FC0E9008F050FB0F9009F0B4
:103BB00075FACDE91201309809F070FACDE90E01DD
:103BC000309809F06BFA0022694BCDE90A0108F040
:103BD000E1FFCDE90C01DDE90E2308F0DBFFCDE9C3
:103BE0001001DDE9122308F0D5FFCDE916014B499C
:103BF000329809F0F3FA039009F050FA484A494B19
:103C0000CDE9040108F0C6FF00225A4BCDE90601B8
:103C100008F0C0FFCDE9080108F0ACFC0A9008F0FC
:103C200015FB0B9009F03AFACDE90E01299809F03D
:103C300035FACDE90A01299809F030FA00224E4BF5
:103C4000CDE9060108F0A6FFCDE90801DDE90A2368
:103C500008F0A0FFCDE90C01DDE90E2308F09AFF82
:103C6000CDE912012D49329809F0B8FA039009F014
:103C700015FA2B4A2B4BCDE9040108F08BFF0022EB
:103C80004FF08043CDE9060108F084FFCDE908013B
:103C900008F070FC0A9008F06BF820490C903198FD
:103CA00009F09CFA039009F0F9F91D4A1D4BCDE982
:103CB000040108F06FFFCDE9060108F05BFC0890F5
:103CC00008F0C4FA0A904FF08140309909F0E4FB03
:103CD0000890299909F0E0FB09900A9909F0DCFBAA
:103CE0000B900C9909F0D8FB0C490E90319809F013
:103CF00075FA039009F0D2F9094A0A4BCDE904019B
:103D000008F048FFCDE9060108F034FC089008F0FF
:103D10009DFA0A904FF0804030992FE00000344324
:103D20004AD8124DFB210940F94ECC7A3194733FA9
:103D30001FBAA0BE654E773FD61A4AED45B45D3F27
:103D4000BEA4315A4755433FB81E85EB51684740E2
:103D5000A69BC420B072354000004E4000003A409F
:103D600000003740F168E388B5F8643F00806640A2
:103D70000000F43F000010400000E03F09F08CFB21
:103D800009900A9909F088FBFE490C90329809F0D5
:103D900025FA019009F082F9FB4AFC4BCDE90201BA
:103DA00008F0F8FE00224FF08043CDE9040108F04E
:103DB000F1FECDE9060108F0DDFB099008F046FAB6
:103DC0000A90299909F068FB0B900C9909F024FDE1
:103DD0000D900E9909F08EF90F9009F05FF9CDE979
:103DE0001001DDE9122309F06FF8CDE91401DDE9D6
:103DF000162309F069F8CDE9180108F0BBFB4290E1
:103E0000429809F04BF9E04AE04BCDE9120108F085
:103E100097FC0022DE4BCDE9140108F0BBFE002226
:103E2000DC4BCDE9160108F0B5FECDE9180108F02C
:103E3000A1FB2890D3492A9809F0D0F9079009F0FE
:103E40002DF9D14AD14BCDE9080108F0A3FECDE907
:103E50000A0108F08FFB0D9008F0D2FAC9490F90C3
:103E6000379809F0BBF9079009F018F9C64AC74B13
:103E7000CDE9080108F08EFECDE90A0108F07AFBD1
:103E80000D9008F0BDFA0E900F9909F005FBBD49A1
:103E900011902A9809F0A2F9059009F0FFF8BA4AA2
:103EA000BA4BCDE9060108F075FECDE9080108F02E
:103EB00061FB0B9007F05CFFB2490D90379809F059
:103EC0008DF9059009F0EAF8AF4AB04BCDE906014B
:103ED00008F060FECDE9080108F04CFB0B9007F0FC
:103EE00047FF0C900D9909F0D7FA0F90AA4807F0F8
:103EF0003FFF0E900F9909F071F91090119909F098
:103F00008BFC129007F0E6FC139009F0C7F89E4A6C
:103F10009E4BCDE9140108F013FC00229C4BCDE927
:103F2000160108F037FECDE9180108F023FB2790B1
:103F30009A49369809F0B0FA18904FF081403899B4
:103F400009F0AAFA9649159009F0D4FB1690289921
:103F500009F062FC1790189909F0CCF89149199072
:103F600009F03CF926904FF08141279809F094FA26
:103F70008C49189009F032F91990269909F0BAFB8A
:103F800025904FF08141279809F086FA85491890CD
:103F900009F024F91990269909F0ACF824907F488B
:103FA000369909F079FA19904FF08140389909F063
:103FB00073FA7C491790359809F06EFA1590289994
:103FC00009F098F81690179909F094F81890199933
:103FD00009F022FC23904FF4B461239802F0CEFE46
:103FE00023900021239809F023FA09D24FF0814150
:103FF000239809F0F3F86349199009F00DFC08E0E3
:104000004FF08141239809F0E9F85E49199009F0D1
:1040100003FC22905B49229809F0E0F8079009F030
:104020003DF8594A594BCDE9080108F0B3FDCDE9F7
:104030000A0108F09FFA0D9007F09AFE51490F907F
:104040002A9809F0CBF8059009F028F84E4A4F4B12
:10405000CDE9060108F09EFDCDE9080108F08AFAD5
:104060000B9007F085FE47490D90379809F0B6F898
:10407000059009F013F8444A444BCDE9060108F0D5
:1040800089FDCDE9080108F075FA0B9007F070FE84
:104090000C900D9909F000FA0E900F9909F0FCF9B7
:1040A000384911902A9809F099F8079008F0F6FF1E
:1040B000354A364BCDE9080108F06CFDCDE90A011F
:1040C00008F058FA0D9008F0C1F82E490F90379873
:1040D00009F084F8079008F0E1FF2B4A2B4BCDE95B
:1040E000080108F057FDCDE90A0108F043FA0D90E8
:1040F00008F0ACF80E900F9909F0CEF910901199D4
:1041000008F0F8FF129007F0E5FB139008F0C6FFE7
:104110001D4A1E4BCDE9140108F012FB00221C4B76
:10412000CDE9160108F036FDCDE9180108F022FAB4
:1041300021901D48219909F06FFB2090114920988A
:1041400009F04CF8139008F0A9FF0F4A0F4BCDE986
:10415000140108F01FFDCDE9160108F00BFA1990C3
:1041600008F04EF91F901F99084609F095F919902B
:104170001F9909F091F91E90DDE91E0109F08CF9F3
:10418000199013E0000034434AD8124DFB21094036
:10419000008066400000104041ECCA3F00007042C1
:1041A000000034440000B4440000B4421F9909F0F8
:1041B00073F91D90FE49209809F03AFA02D20020C6
:1041C0000146B8E0FB49209809F032FA45D21D9823
:1041D00008F064FF02460B46CDE91001F648F749A6
:1041E00008F0AEFACDE914011E9808F057FF024618
:1041F0000B46CDE90C01F248F24908F0A1FACDE9ED
:104200001001F149209808F0E9FF059008F046FFF9
:10421000EE4AEF4BCDE9060108F0BCFCCDE9080100
:1042200008F0A8F90A9008F0EBF80B9008F036FFB8
:1042300002460B46CDE90C01E648E74908F080FA52
:10424000CDE90E01DDE9102308F03EFECDE91201B3
:10425000DDE9142308F0C0F96DE0209808F01EFF96
:104260004FF06632DD4BCDE9140108F091FD43D2E9
:10427000209808F013FFDA4ADA4BCDE9000108F084
:1042800089FCCF4A5242D84BCDE9020108F0A4F98B
:10429000CDE90601209808F001FFCDE90401DDE930
:1042A000062308F077FCD14AD14BCDE9080108F08C
:1042B00093F9CDE90C01209808F0F0FECDE90A0150
:1042C000DDE90C2308F066FCC84ACA4BCDE90E01B3
:1042D00008F082F9CDE91201209808F0DFFECDE95F
:1042E0001001DDE9122308F055FC0022C24BCDE994
:1042F000140108F071F91EE0B349209808F06EFF30
:104300000D9008F0CBFEB14AB14BCDE90E0108F09B
:1043100041FCCDE9100108F02DF9129008F070F879
:10432000139008F0BBFE02460B46CDE91401B348DA
:10433000B34908F005FA0022B24BCDE9160108F0A6
:10434000FFF9CDE9180108F015F91C901C99209887
:1043500008F0D0FE1B900021229809F069F97CD268
:104360009949219808F03AFF039008F097FE974A80
:10437000974BCDE9040108F00DFCCDE9060108F0EA
:10438000F9F8099007F062FF8F490B90379808F011
:1043900025FF039008F082FE8C4A8D4BCDE9040185
:1043A00008F0F8FBCDE9060108F0E4F8099007F001
:1043B000DFFC0A900B9909F06FF883490D902A9859
:1043C00008F00CFF039008F069FE804A804BCDE9AD
:1043D000040108F0DFFBCDE9060108F0CBF80990F5
:1043E00007F034FF78490B90219808F0F7FE019010
:1043F00008F054FE754A764BCDE9020108F0CAFB7D
:10440000CDE9040108F0B6F8079007F0B1FC6E4959
:104410000990379808F0E2FE019008F03FFE6B4AE1
:104420006B4BCDE9020108F0B5FBCDE9040108F0C2
:10443000A1F8079007F00AFF0890099909F02CF8F5
:104440000A900B9909F0E8F90C900D9908F0C6FE56
:104450000E9007F03FFA0F9000E01DE008F01EFEFE
:104460005A4A5B4BCDE9100108F06AF90022664B0D
:10447000CDE9120108F08EFB0022634BCDE9140157
:1044800008F0AAF8CDE9160108F074F84FF4B471F9
:10449000199002F073FCC7E04B49219808F09EFE8A
:1044A000039008F0FBFD494A494BCDE9040108F0AF
:1044B00071FBCDE9060108F05DF8099007F0C6FE32
:1044C00041490B90379808F089FE039008F0E6FD0B
:1044D0003E4A3F4BCDE9040108F05CFBCDE9060103
:1044E00008F048F8099007F043FC0A900B9908F08F
:1044F000D3FF35490D902A9808F070FE039008F01C
:10450000CDFD324A324BCDE9040108F043FBCDE941
:10451000060108F02FF8099007F098FE2A490B9041
:10452000219808F05BFE019008F0B8FD274A284B5F
:10453000CDE9020108F02EFBCDE9040108F01AF8DC
:10454000079007F015FC20490990379808F046FEBF
:10455000019008F0A3FD1D4A1D4BCDE9020108F0B2
:1045600019FBCDE9040108F005F8079007F06EFE8D
:104570000890099908F090FF0A900B9909F04CF9FE
:104580000C900D9908F02AFE0E9007F0A3F90F90F9
:1045900008F084FD0D4A0E4BCDE9100108F0D0F86B
:1045A0000022194BCDE9120108F0F4FA00222DE0A7
:1045B0000000AA420000A0403677F4BF5C8B163F93
:1045C000EC51B81E85EBB13F000034434AD8124D80
:1045D000FB210940CDCCCCCCCC0C4D406666E2BF73
:1045E0008D976E1283C0E63F7A9429C09A99999963
:1045F00099D95940993180C0001C9B401283C0CA90
:10460000A1C534C00020AC4000806640214BCDE9FC
:10461000140108F04DFCCDE9160107F0ABFF4FF493
:10462000B471199002F0AAFB1A901B49259808F062
:1046300033FF1A49C1F8E0011749249808F02CFF0C
:104640001649C1F8E4011A98C1F8EC011B9808F06A
:1046500025FD0022124BCDE9180108F099FB04D882
:1046600010490E48C0F8E81112E01B9808F016FD3A
:1046700000220D4BCDE9180108F050FA04D20B4985
:104680000648C0F8E81103E004491B98C1F8E801A6
:1046900043B000BD00E080400000C041940900200C
:1046A000004056400000B242004056C00000B2C276
:1046B00010B50446012C0DD04448007800F00100EC
:1046C00008B900F015F9002001F0B4FD00204049C0
:1046D000087010BD3F48007830B101281ED0022874
:1046E00043D003286AD158E03B49D1F8D8013B496F
:1046F00008F09EFE0ED83849D1F8C401384908F0B8
:1047000097FF03D801203349087006E003203149A0
:10471000087002E002202F49087053E02B4800780F
:1047200000F0010008B900F0E3F82B49D1F8D801F6
:104730002C4908F07DFF06D92749D1F8C4012A4940
:1047400008F076FE08D8002001F074FD0020204912
:1047500008702049087007E0012001F06BFD01207E
:104760001B4908701B4908702CE0002001F062FD15
:104770000020174908701548007800F0010008B1C2
:1047800000F034F811480078C0F3001008B100F0D0
:104790009BF800200F49087014E0002001F04AFD4A
:1047A00000200B4908700948007800F0010008B9A2
:1047B00000F09EF800200749087003E0002005493A
:1047C000087000BF00BF00BF83E70000A800002002
:1047D000A9000020B4000020940900200000A0409F
:1047E0000000F041000020410000E04110B510231E
:1047F0001422D021014801F0BFFE10BD0049002065
:104800002DE9F04100242C48C06810B9601EBDE8B5
:10481000F0814FF488731422D021284801F0ACFEB7
:10482000044600232922D021244801F0A5FE044497
:1048300011231522D021214801F09EFE04441E4977
:1048400088684FF0834108F027FE07464FF07E51FD
:1048500008F0E2FF064608F09FFD85B22B461A22BB
:10486000D021164801F088FE0444134948681449D1
:1048700008F0D2FF0746134908F00EFE064608F07E
:104880008BFD85B22B461B22D0210C4801F074FE13
:1048900004444FF461631D22D021084801F06CFEEE
:1048A000044445F260431E22D021044801F064FE16
:1048B00004442046ABE70000F048002000490020F7
:1048C000000074400000A04210B54FF48873142219
:1048D000D021064801F050FE142000F05BF91023AF
:1048E0001422D021014801F047FE10BD00490020EC
:1048F00010B54FF488731422D021024801F03CFE19
:1049000010BD00000049002010B54FF4807102482E
:1049100000F085FD10BD000000080140012016498F
:104920008882002008605A2088872D20A1F8420044
:1049300012484863124888635A20C887A1F840008B
:10494000400708610F4888600F4848604FF0824078
:10495000C8600E4848620E480862002088623C2009
:10496000C885122088854FF4967048860E200886E8
:104970000848886170470000940900200000344214
:10498000000007430000F0410000F242CDCC8C4013
:104990009A99F93F0000404010B5022000F0B0F8AD
:1049A000002864D03248006820F0020030490860D6
:1049B00000212F480838FDF792FE00212C480838C6
:1049C000FDF7EEFD022000F081F800202949087073
:1049D00031E000212848274A127840F822100020B0
:1049E000264908701EE02549097801EB8101214A1A
:1049F00012781144224A32F8110008F005FD0446ED
:104A00001D481C4A127850F82210204608F072FB0C
:104A10001949184A127841F8220018480078401CB9
:104A200016490870154800780A28DCDB1148007820
:104A3000401C104908700F4800780528C9DB0E4853
:104A40000068104908600C4840680F4908600A482F
:104A500080680E4908600848C0680D49086006482B
:104A600000690C49086000210B4800F03DF810BDBA
:104A70000824014018010020604E00201901002088
:104A8000FC4D00201C0100202001002024010020FA
:104A90002C010020280100200800024010B5044627
:104AA0004FF40041074800F0BAFC0021064800F02E
:104AB0001BF80548001D04600121001F00F014F8D8
:104AC00010BD0000000801405804024000F0805171
:104AD00011B10349086001E00249486070470000D5
:104AE000040402400000024021B1026842F00102C9
:104AF000026004E002684FF6FE731A4002607047DD
:104B000001460020002201F0805313B1054B1A68C2
:104B100001E0054B1A6802EA01030BB1012000E035
:104B20000020704700040240000002401AB10368F0
:104B30000B43036002E003688B430360704710B5CA
:104B40000022026847F6F0739A430C6A8B6823438D
:104B50000C6923434C6923438C692343CC69234369
:104B60004C6A23438C6A23431A430260CB68436038
:104B70000B6883604B68C36010BD0C2105E00C21FD
:104B800000BF0A1EA1F10101FBD1021EA0F101002C
:104B9000F5D1704706E0482100BF0A1EA1F10103CC
:104BA00059B2FADA021EA0F1010358B2F3DA7047E3
:104BB00010B51449D1F8C801134908F039FC15D8CB
:104BC00012480078401C11490870084600781428E3
:104BD00017DB002008700B48D0F8F40120F080604B
:104BE00000F180600749C1F8F4010AE0002007499C
:104BF00008700448D0F8F40120F080600149C1F841
:104C0000F40110BD9409002000007041C80000208C
:104C100010B56C4890F8AF01012863D100206A49B3
:104C200008806A480088401C684908800846008857
:104C3000052804DA6348D0F8B40165490860634880
:104C40000088B0F5167F42DD0020604908805D488D
:104C5000D0F8B4115E48006808F0DEFD04464FF05D
:104C60003F4108F0E5FB09D25648D0F8F40120F0A6
:104C70000200801C5349C1F8F40107E05148D0F804
:104C8000F40120F002004F49C1F8F4014D48D0F87A
:104C9000B4114F48006808F0BFFD04464FF07E5144
:104CA00008F0C6FC0BD34748D0F8B4114848006858
:104CB00008F0B2FD0446474908F0BAFB08D2414863
:104CC000D0F8F40120F020003E49C1F8F40177E06B
:104CD0003C48D0F8F40120F0200020303949C1F8D8
:104CE000F4016DE0374890F8AF01022863D100204D
:104CF0003649088034480088401C334908800846FB
:104D00000088052804DA2F48D0F8B401304908603B
:104D10002D480088B0F5167F52DD00202A49088012
:104D20002848D0F8B4112A48006808F075FD0446F8
:104D30004FF07C5108F07CFC09D22248D0F8F401F5
:104D400020F00200801C1F49C1F8F40107E01D4853
:104D5000D0F8F40120F002001A49C1F8F401194812
:104D6000D0F8B4111A48006808F056FD04464FF018
:104D70007E5108F05DFC0BD31248D0F8B4111448F2
:104D8000006808F049FD0446124908F051FB08D2BA
:104D90000C48D0F8F40120F020000A49C1F8F401D1
:104DA0000EE00848D0F8F40120F02000203005493A
:104DB000C1F8F40104E00020044908800249088099
:104DC00010BD000094090020C6000020C40000208F
:104DD000C0000020000080BF70B54D4890F8AE01C3
:104DE000002864DD4A4A9169D2F8B80108F020FC35
:104DF0000CD94748D0F8B811464808F04DFB044696
:104E000043488169204608F013FC1DD80020424920
:104E1000087042480078401C4049087008460078F5
:104E200007F068FE044600223D4B07F0B1FF0BD2AD
:104E300000203A4908703648D0F8F40120F001000B
:104E4000401C3349C1F8F40131498869354908F0FB
:104E500023FB04462E48D0F8B811204608F0E8FBA2
:104E60002AD82B498869304908F016FB044628489F
:104E7000D0F8B811204608F0DBFA1DD82648007893
:104E8000401C2549087008460078642814DD00207D
:104E90000870224908701E48D0F8F40120F0010083
:104EA0001B49C1F8F40100202049087004E00020EB
:104EB0001949087019490870154890F8F40100F074
:104EC000010008B31A480088401C194908800846A8
:104ED0000088B0F5966F1ADD00200880134800782E
:104EE000401C1249087008460078082808DA08486B
:104EF000D0F8F40120F001000549C1F8F40106E002
:104F000009200A49087002E000200949088070BDA4
:104F100094090020000080BFB8000020B9000020E4
:104F200000002C406666663F666666BFBA000020D9
:104F3000BC00002010B53A49886B4FF0804108F062
:104F4000D9F804463648D0F8B411204608F070FA73
:104F500014D234480078401C324908700846007862
:104F600032285CDD342008702D48D0F8F40120F0A0
:104F7000080008302A49C1F8F40150E02849486B7C
:104F80004FF0804108F048FC04462548D0F8B411A1
:104F9000204608F04DFB14D222480078401C2149DD
:104FA000087008460078322839DD342008701C4823
:104FB000D0F8F40120F00400001D1949C1F8F401F3
:104FC0002DE01749886B4FF07E5108F025FC044610
:104FD0001348D0F8B411204608F02AFB1FD210491C
:104FE000486B4FF07E5108F085F804460C48D0F825
:104FF000B411204608F01CFA11D2002009490870AB
:105000000748D0F8F40120F004000549C1F8F40184
:105010000846D0F8F40120F00800C1F8F40110BDF2
:1050200094090020BE00002010B500F0E1F8352002
:1050300000F01EF800240AE00B4901EBC42000F048
:105040001DF800BF00F05AF80128FBD0641C502C5A
:10505000F2D3064800F012F800BF00F04FF8012824
:10506000FBD000F065F810BD00A0020800F00708B2
:105070000149C860704700000020024030B5044676
:1050800004254FF4302000F0BFF80546042D17D159
:105090000C48006940F002000A4908610846446172
:1050A000006940F0400008614FF4302000F0ACF897
:1050B00005460448006941F6FD7108400149086150
:1050C000284630BD0020024004200B49C96801F089
:1050D000010109B101200EE00749C96801F004018E
:1050E00009B1022007E00449C96801F0100109B1C3
:1050F000032000E0042070470020024004200B49F8
:10510000C96801F0010109B101200EE00749C96831
:1051100001F0040109B1022007E00449C96801F067
:10512000100109B1032000E0042070470020024074
:105130000348006940F080000149086170470000A1
:105140000020024070B504460D460426F00200F02F
:105150005BF80646042E11D10948006940F00100B1
:10516000074908612580F00200F04EF80646044821
:10517000006941F6FE71084001490861304670BD82
:105180000020024078B506460C4604250020009019
:10519000E80200F039F80546042D24D113480069CF
:1051A00040F00100114908613480E80200F02CF859
:1051B0000546042D10D1B01C0090200C00990880E9
:1051C000E80200F021F805460848006941F6FE7142
:1051D00008400649086106E00448006941F6FE718E
:1051E000084002490861284678BD000000200240BE
:1051F00002480349486003484860704723016745F7
:1052000000200240AB89EFCD00B502460423FFF732
:105210005BFF034603E0FFF757FF0346521E012BD7
:1052200001D1002AF7D102B90523184600BD0000BC
:1052300010B500F073FF4FF4D0500849A1F8A80151
:1052400000F0D0FD0549B1F8A81108430349A1F8C1
:10525000A80107210148A0F8AA1110BD9409002057
:105260002DE9F041024600250026002000230024FD
:10527000002791F803C00CF00F0591F803C00CF063
:10528000100CBCF1000F03D091F802C04CEA0505E8
:1052900091F800C0BCF1000F31D0146800202BE061
:1052A0004FF0010C0CFA00F3B1F800C00CEA030651
:1052B0009E4220D183004FF00F0C0CFA03F7BC4341
:1052C00005FA03FC4CEA040491F803C0BCF1280F72
:1052D00006D14FF0010C0CFA00FCC2F814C00AE031
:1052E00091F803C0BCF1480F05D14FF0010C0CFA46
:1052F00000FCC2F810C0401C0828D1D31460B1F8DB
:1053000000C0BCF1FF0F34DD546800202EE000F136
:10531000080C4FF0010808FA0CF3B1F800C00CEAD1
:1053200003069E4221D183004FF00F0C0CFA03F7C5
:10533000BC4305FA03FC4CEA040491F803C0BCF139
:10534000280F05D100F1080C08FA0CF8C2F81480F7
:1053500091F803C0BCF1480F07D100F1080C4FF0E1
:10536000010808FA0CF8C2F81080401C0828CED3B7
:105370005460BDE8F0810000F0B50A460023002427
:105380000021002500F00046B6F1004F02D11D4E6D
:10539000F16901E01B4E7168C0F3034583B200F46C
:1053A0004016B6F5401F08D121F07061154E7668A1
:1053B00026F07066134F7E6012E000F48016B6F59A
:1053C000801F06D1032606FA05F4A14341F070615F
:1053D00006E0460D360103FA06F6B14341F070616E
:1053E00022B1460D360103FA06F6314300F00046BD
:1053F000B6F1004F02D1034EF16101E0014E716040
:10540000F0BD0000000001400246002093680B4000
:105410000BB1012000E0002070474161704701613D
:105420007047000000487047C44600202DE9F84F3F
:1054300083460F460024002500266946232005F0F8
:10544000B7F99DF8000004436946222005F0B0F941
:10545000200204B29DF80000044369462B2005F0A9
:10546000A7F99DF80000054369462A2005F0A0F938
:10547000280205B29DF80000054369462D2005F07D
:1054800097F99DF80000064369462C2005F090F935
:10549000300206B29DF8000006436946182005F068
:1054A00087F99DF80000382813D1304607F094FFA3
:1054B0008046284607F090FF8146204607F08CFF83
:1054C000824642464946FDF745FF38600020BDE868
:1054D000F88F4FF0FF30FAE72DE9F04F91B04FF021
:1054E000000AB549D1F8E80107F0D8FD0446B34AEF
:1054F000B34B07F04DFC7DD8AF49D1F8EC01B14971
:1055000008F08AF9B0490E9007F068FE834607F06C
:10551000C5FD0646AD4AAE4B07F03CFB044607F01E
:1055200029F8814606F024FC8046A349D1F8E80119
:10553000A54907F053FE834607F0B0FD0646A34A8F
:10554000A34B07F027FB044607F014F8814606F04A
:1055500057FF41460F9006F0DDFA8246504607F0AD
:105560009DFD8046994A9A4B07F0EAF806460022CC
:10557000984B07F00FFB044606F0FCFF82468E496D
:10558000D1F8EC0107F08AFD04460022914B07F0A8
:10559000C5FA7DD88848816A504608F049F879D222
:1055A0008D49504608F044F874D28348816A5046C9
:1055B00008F032F984490E9007F010FE0F9007F0C2
:1055C0006DFD0646814A824B07F0E4FA044606F078
:1055D000D1FF834606F03AFE81467748416A484645
:1055E00007F05AFF80467448016A404608F020F8E8
:1055F00005D800E0DBE0504611B0BDE8F08F6E4802
:10560000816A504608F008F96F49029007F0E6FDFC
:10561000039007F043FD6D4A6D4BCDE9040107F09F
:10562000B9FACDE9060106F0A5FF089006F00EFED6
:1056300083466148416A584607F02EFF09905E484C
:10564000016A099807F0CAFD0A9006F0D1F90B909B
:1056500007F024FD5D4A5E4BCDE90C0107F070F8C0
:10566000064600225B4B07F095FA04460D46554965
:10567000504607F03FFD064607F010FD22462B4638
:10568000CDE90E0107F020FC804606F073FFB3E77A
:1056900005E0FFE74849888F07F0B6FEACE74648CB
:1056A000816A494807F026FD0446514607F0C0FFCD
:1056B00078D24A49504607F0BBFE73D23E4A516A3F
:1056C000106A07F08BFD51460F903F4808F0A4F890
:1056D0000D903948816A0D9807F00CFD83463A49D0
:1056E00007F07CFD0E9007F0D9FC0646374A384B90
:1056F00007F050FA044606F03DFF814606F0A6FD8D
:1057000080460F9907F094FF01D8504674E72A4865
:10571000816A504608F080F82B49019007F05EFD41
:10572000834607F0BBFC294A294BCDE9020107F06B
:1057300031FACDE9040106F01DFF814606F086FD31
:1057400007901D48416A079807F0A6FE08901A487E
:10575000016A089807F042FD804606F049F9099071
:1057600007F09CFC194A1A4BCDE90A0106F0E8FF44
:1057700006460022174B07F00DFA04460D46114964
:10578000504608F049F8064607F088FC22462B46AA
:10579000CDE90C0106F020FFCDE90E0106F0EAFE8E
:1057A0002AE7FFE70449888F07F02EFE24E7024925
:1057B000888F07F029FE1FE7940900209A9999998C
:1057C0009999B93F0000B442000034434AD8124DC1
:1057D000FB2109400080664000004040000031434A
:1057E00038B5044600256B463422D0213F4800F0EE
:1057F000D1FD054615B14FF0FF3038BDBDF80000B2
:1058000000F4807088B1207820F00100401C2070E6
:10581000207820F002002070207820F00400207012
:10582000207820F00800207030E0207820F001007F
:105830002070BDF8000000F0800028B1207820F032
:105840000200801C207003E0207820F0020020700D
:10585000BDF8000000F0400028B1207820F00400DE
:10586000001D207003E0207820F004002070BDF8B7
:10587000000000F0180028B1207820F0080008305F
:10588000207003E0207820F008002070BDF80000B0
:1058900000F0040028B1207820F0100010302070B3
:1058A00003E0207820F010002070BDF8000000F028
:1058B000020028B1207820F020002030207003E082
:1058C000207820F020002070BDF8000000F00100DA
:1058D00028B1207820F040004030207003E020788C
:1058E00020F040002070002087E7000000490020E1
:1058F0002DE9F843044600256B463D22D0210D4892
:1059000000F048FD05468DB9BDF9000007F064FDC3
:105910008046094907F0C0FD07464FF0834107F074
:105920005DFC0646054907F059FC20602846BDE8A5
:10593000F883000000490020DC80BB3F00007A446F
:1059400010B50024694800F0C7F904446748001FF7
:10595000FFF7CEFF04446548083000F0E9F804443E
:105960006348FFF73DFF04445CB9002061490870BB
:105970006148D0F8F40120F000405F49C1F8F4011B
:105980001AE05C4801780078401C5A4A10700529DA
:1059900012DD0520114608705748D0F8F40120F0B8
:1059A000004000F100405449C1F8F4010021524880
:1059B000C0F8D011C0F8CC114D480078C0F34010A9
:1059C00058B94B480078C0F3801030B94A49D1F833
:1059D000D0014A4907F02CFD18D80020484908801A
:1059E00048480088401C4749088008460088142819
:1059F00029DB002008804048D0F8F40120F0005056
:105A000000F100503C49C1F8F4011CE03A49D1F8DA
:105A1000D0013D4907F00CFE15D800203949088017
:105A200037480088401C36490880084600886428AA
:105A300009DB002008803048D0F8F40120F0005045
:105A40002D49C1F8F4012C4890F8AE01002844D14A
:105A50002949D1F8D0012D4907F0EAFC19D80020D6
:105A60002B4908802B480088401C2A49088008469A
:105A70000088B0F5167F30DB002008801E48D0F883
:105A8000F40120F0805000F180501B49C1F8F4016E
:105A900023E01949D1F8D0011F4907F0C9FD17D8F3
:105AA00000201C4908801A480088401C18490880BA
:105AB00008460088B0F5967F0FDB002008800E486E
:105AC000D0F8F40120F080500B49C1F8F40104E053
:105AD00000200F4908800F4908800749D1F8D001FC
:105AE00000F01CF80449C1F8D40110BD640B00207B
:105AF000A8000020AA000020940900200000B04166
:105B0000B0000020B20000200000BC410000C441F1
:105B1000AE000020AC0000200000D44110B50446C7
:105B20000248C1682046884710BD0000F0480020A8
:105B30002DE9FE4F04464FF0000A02AB4022D0216F
:105B4000484800F027FC8246BAF1000F23D1BDF986
:105B5000080007F041FC0746434907F0CBFD054626
:105B6000BDF9080007F038FC0746404907F094FCEF
:105B70000646294607F032FB81463D49484607F074
:105B800057FC09D849463B4807F086FC05463A4988
:105B900007F0B0FA206062E03549484607F048FD5A
:105BA0000ED23249484607F043FC09D849463348EB
:105BB00007F072FC0546324907F09CFA20604EE07F
:105BC0002A49484607F034FD18D22E49484607F0C6
:105BD0002FFC13D8484607F061FA07462A4A2B4B98
:105BE00006F0D8FF05464FF00042294B06F0F4FCC2
:105BF000CDE9000106F0BEFC206030E021494846B6
:105C000007F016FD0ED22349484607F011FC09D8CB
:105C10004946214807F040FC0546204907F06AFA4A
:105C200020601CE01B49484607F002FD0ED21C49CB
:105C3000484607F0FDFB09D849461A4807F02CFCF6
:105C40000546194907F056FA206008E0494617480A
:105C500007F022FC0546164907F04CFA2060504632
:105C6000BDE8FE8F0049002000AAAA46000020419E
:105C70009A999940B0031CC19358B44213F271C071
:105C8000E9A67642CDCC644164CC5D4BC88700C0A8
:105C9000E9A646403333B3418885A2BFDB7906428B
:105CA0000000E441D34D62BF1D5AC9414F1EB6BE2C
:105CB000DD24EC4010B5002440210648FFF7A4FB8A
:105CC00004436006040E80210248FFF79DFB044355
:105CD000204610BD001401402DE9F843044600257C
:105CE0006B463A22D0210C4800F054FB054685B99A
:105CF000BDF9000007F070FB8046084907F0CCFBB7
:105D00000746074907F0C8FB0646064907F066FA4A
:105D100020602846BDE8F883004900200000E040EC
:105D2000DBE0443E00007A44F0B5034614462046CA
:105D30006FF00105DE1703EB9676B610A3EB86062F
:105D40002EB9642693FBF6F706FB173636B94FF4E7
:105D5000C87693FBF6F706FB17360EB94FF0FF3502
:105D6000032906DA012901D1002200E01F22104494
:105D70001BE007290BDC0A4601EBD27677104E1E9A
:105D8000C6EB061607EB46062E4430440DE005F13F
:105D9000D606A1F10807C7EB071706EB4707CA1F8E
:105DA00002EBD27607EB66063044F0BD70B50749CA
:105DB0000748006807F070FB0546064907F06CFBD2
:105DC0000446054907F00AFA70BD0000333353401A
:105DD00024010020BE9F4E4100002047004870472C
:105DE0008C48002010B500244FF400710A48FFF7DA
:105DF0000BFB04436006040E4FF480710648FFF766
:105E000003FB04436006040E80210348FFF7FCFAFD
:105E10000443204610BD00000018014070B5094938
:105E20000948006807F038FB06464FF08B4107F041
:105E3000D5F90546054907F0EFFC0446044907F08B
:105E4000CDF970BD000004421C0100200000254374
:105E5000000030410146C1EBC100024A02EB800064
:105E6000007E7047184900200146C1EBC100024A7C
:105E700002EB8000807E70471849002070B507490A
:105E80000748006807F008FB0546064907F004FBD1
:105E90000446054907F0A2F970BD000033335340B2
:105EA00020010020BE9F4E410000204770B50949E7
:105EB0000948006807F0F0FA06464FF08B4107F0FA
:105EC0008DF90546054907F0A7FC0446044907F08B
:105ED00085F970BD000004422C010020000025431C
:105EE0000000304170B509490948006807F0D4FA4C
:105EF00006464FF08B4107F071F90546054907F05A
:105F00008BFC0446044907F069F970BD00000442A7
:105F1000280100200000254300003041F8B5044668
:105F200000266B46002292210F4800F033FA064605
:105F3000BEB99DF80150BDF80000000200B200900B
:105F4000BDF8000000F47F4000B20090BDF90000F1
:105F500028430090BDF90000C11700EB1161091240
:105F600021803046F8BD0000744E00202DE9FC472A
:105F700005460E4617469846DDE90A9A0024002099
:105F8000009001904FF480716348FFF746FA4FF498
:105F900000716148FFF743FA80215F48FFF73DFA3F
:105FA0000A20FEF7EAFD00BF5BE04FF480715A481B
:105FB000FFF735FA0A20FEF7E0FD182C18DA402129
:105FC0005548FFF721FA012841D12046E11704EB9B
:105FD0005171C910A4EBC102012191406A4602EB44
:105FE000E402127811436A4602EBE40211702EE0DB
:105FF0001C2C10DA40214848FFF706FA012826D168
:106000009DF80300A4F1180101228A401043C0B298
:106010008DF803001BE0342C19DA40213E48FFF7CD
:10602000F3F9012813D1201DC11700EB5171C910DC
:10603000A0EBC102012191406B46221D03EBE2025D
:1060400012781143CAB2211D03EBE1010A704FF42B
:1060500080713148FFF7E1F90A20FEF78EFD601CE0
:10606000C4B2342CA1DB4FF400712B48FFF7D5F9F3
:106070009DF8000000F00F009DF80010C1F3021120
:1060800001EB810100EB410028809DF8010000F048
:106090000F009DF80110C1F3021101EB810100EB2B
:1060A000410030809DF8020000F00F009DF80210C2
:1060B000C1F3011101EB810100EB410038809DF833
:1060C000040000F00F009DF80410C1F3011101EB72
:1060D000810100EB4100A8F800009DF8050000F0E8
:1060E0000F009DF80510C1F3001101EB810100EBD9
:1060F0004100A9F800009DF8060000F00F009DF88F
:106100000610090901EB810100EB410000F2DA7091
:10611000AAF80000BDE8FC870010014008B5012185
:10612000402003F03BFA8020ADF8000004208DF8F9
:10613000030002208DF8020069460A48FFF790F834
:106140004FF48070ADF8000069460648FFF788F804
:106150004FF40070ADF8000069460248FFF780F880
:1061600008BD00000018014018B9054A12880A80CD
:1061700004E0012802D10A88014B1A807047000010
:10618000CA00002017481849086018484860184895
:1061900088601848C860184808611848486118485D
:1061A00088611848C86118480862486217488862C0
:1061B0001748C86217480863174848631748886338
:1061C0001748C86310480864164848640E48886435
:1061D000C86415480865154848651548C8650A48E3
:1061E00008667047E99600088C480020F39600087E
:1061F0000D970008E19E00080D9E0008219D0008F3
:106200006DA60008F9A0000869610008BDA3000898
:10621000E5A20008C5A1000825A2000885A2000883
:1062200051A300086599000849A7000869A700085C
:10623000FD97000810B50446012C04D181020548E1
:10624000FFF7EDF804E04FF480610248FFF7E5F84E
:1062500010BD00000018014008B50121402003F0E6
:106260009DF94FF48060ADF8000010208DF8030018
:1062700002208DF8020069460448FEF7F1FF4FF452
:1062800080610248FFF7C9F808BD0000001801400E
:1062900070B504460025A18A2069FFF7BEF8218960
:1062A0006068FFF7BCF80120FEF774FCA18A206942
:1062B000FFF7B5F80320FEF76DFC21896068FFF752
:1062C000A3F8012800D10125A18A2069FFF7A5F8CC
:1062D0000120FEF75FFC284670BD70B504460D46F0
:1062E000A18A2069FFF799F80120FEF753FC218964
:1062F0006068FFF794F800202870072620E0A18A44
:106300002069FFF78AF80120FEF744FCA18A206982
:10631000FFF785F80320FEF73DFC21896068FFF751
:1063200073F8012803D12978B04001432970A18A6C
:106330002069FFF772F80220FEF72CFC701E46B2AF
:10634000002EDCDA70BD38B504460121206803F068
:1063500025F90121E06803F021F92089ADF800005A
:1063600014208DF8030003208DF802006946606850
:10637000FEF776FF21896068FFF751F8A08AADF833
:10638000000069462069FEF76BFFA18A2069FFF7CC
:1063900046F838BD2DE9F84380460E4617461C46A0
:1063A00000250020208006F0FE06404600F0ADF8F3
:1063B0003146404600F03EF84046FFF769FF00B125
:1063C0006D1E3946404600F035F84046FFF760FF45
:1063D00000B16D1E46F00106404600F096F83146C9
:1063E000404600F027F84046FFF752FF00B16D1E0F
:1063F00069464046FFF771FF20889DF8001008436A
:106400002080404600F049F869464046FFF765FFA6
:1064100020889DF800104FF47F4202EA01210843D2
:106420002080404600F055F8404600F086F82846A7
:10643000BDE8F8832DE9F04104460E460127072503
:1064400027E0A18A2069FEF7E8FF0120FEF7A2FB02
:1064500046FA05F000F0010020B121896068FEF7DE
:10646000DEFF03E021896068FEF7D7FF0120FEF719
:1064700091FBA18A2069FEF7D2FF0520FEF78AFB77
:10648000A18A2069FEF7C9FF0120FEF783FB681E81
:1064900045B2002DD5DABDE8F08110B50446A18AD9
:1064A0002069FEF7BAFF21896068FEF7B6FF012078
:1064B000FEF770FBA18A2069FEF7B1FF0520FEF709
:1064C00069FBA18A2069FEF7A8FF0120FEF762FBA5
:1064D00010BD10B50446A18A2069FEF79EFF2189F0
:1064E0006068FEF79CFF0120FEF754FBA18A20693B
:1064F000FEF795FF0520FEF74DFBA18A2069FEF708
:106500008CFF0120FEF746FB10BD10B50446218923
:106510006068FEF784FF0220FEF73CFBA18A206939
:10652000FEF77DFF0220FEF735FB21896068FEF74C
:1065300074FF0220FEF72EFB10BD10B50446A18AA1
:106540002069FEF76AFF0120FEF724FB21896068BD
:10655000FEF763FF0120FEF71DFBA18A2069FEF70D
:106560005EFF0220FEF716FB21896068FEF757FFE9
:106570000120FEF70FFB10BD2DE9F04180460E46CD
:1065800017461D46002406F0FE064046FFF7BDFFF5
:1065900031464046FFF74EFF4046FFF779FE00B117
:1065A000641E39464046FFF745FF4046FFF770FE40
:1065B00000B1641EE9B24046FFF73CFF4046FFF7DA
:1065C00067FE00B1641E290A4046FFF733FF4046CC
:1065D000FFF75EFE00B1641E4046FFF7AEFF2046A7
:1065E000BDE8F0812DE9F04180460D4616461F4674
:1065F000002405F0FE054046FFF787FF2946404688
:10660000FFF718FF4046FFF743FE00B1641E314616
:106610004046FFF70FFF4046FFF73AFE00B1641E09
:1066200039464046FFF706FF4046FFF731FE00B10E
:10663000641E4046FFF781FF2046BDE8F08110B59B
:10664000012003F043F800BF612003F021F8002887
:10665000FAD045F2555000F029F8042000F01AF85D
:106660004FF47A6000F01CF800F00CF800F002F82B
:1066700010BD00004CF6CC40014908607047000096
:10668000003000404AF6AA20014908607047000027
:106690000030004001494860704700000030004071
:1066A00001498860704700000030004001490860DF
:1066B000704700000030004000211E4880F8AD11F6
:1066C000806CFF2802D11B48816431E0194890F8A2
:1066D000480000F0F000202803D11748174908604F
:1066E00026E0144890F8480000F0F000102803D18C
:1066F0001348124908601BE00E4890F8480000F06B
:10670000F000402803D10F480C49086010E0094808
:1067100090F8480000F0F000802803D10A480749AB
:10672000086005E0002103488164D0F8F01101659C
:106730007047000094090020952B0008900000206D
:10674000F56C00083D6C0008412900082DE9FE4F5A
:1067500005460C46DFF8D491DFF8D4A1DFF8D4B1B8
:106760004946284606F098FE0746734801684846A1
:1067700006F092FE804671480168404606F0BAFF76
:106780000646394606F0B6FC6D4908606A4800685E
:106790006C4908606C4801686C4806F07DFE029008
:1067A0006B480168484606F077FE01906948016829
:1067B000484606F071FE009067480168009806F0B0
:1067C00099FF8046019907F027F80746029906F0DD
:1067D00091FC0646514606F08DFC604908605A4817
:1067E0000168484606F058FE06465948016830469A
:1067F00006F080FF5A49086053480168484606F091
:106800004BFE064653480168304606F073FF554973
:10681000086051464C48006806F06CFC524908601C
:1068200059464E48006806F065FC064631464B481E
:10683000006806F0D3FC4D49086059464748006897
:1068400006F058FC064631464648006806F0C6FC8D
:10685000474908603A480168204606F0DDFF0746D0
:1068600042480168384606F017FE0646344801687B
:10687000304606F03FFC3149086031480168204647
:1068800006F0CAFF07463A480168384606F004FE9B
:1068900006462C480168304606F02CFC2649086064
:1068A000324801684FF07E5006F0B6FF06462B488E
:1068B0000168304606F0F0FD274908602B48016862
:1068C0004FF07E5006F0A8FF064625480168304686
:1068D00006F0E2FD1E49086025480168254806F0DB
:1068E000DBFD07461D480168384606F0D5FD064623
:1068F0001C480168304606F0FDFB164908601C483C
:1069000001681C4806F0C8FD07461548016838466E
:1069100006F0C2FD064614480168304606F0EAFB60
:106920000949086005480068BDE8FE8F0AD7A33C06
:106930000AD7233C00002041DC000020D8000020C2
:10694000D0000020D4000020FC00002017B7D1396F
:10695000F4000020F8000020F0000020E0000020FB
:10696000E4000020E8000020EC00002000010020EE
:1069700004010020000080BF10B50948007838B934
:1069800001200749087002210648FEF746FD06E08F
:1069900000200349087002210248FEF740FD10BDA7
:1069A0000C0100200018014008B50121402002F030
:1069B000F5FD0220ADF8000010208DF80300022044
:1069C0008DF8020069460448FEF74AFC022102489D
:1069D000FEF725FD08BD00000018014010B502219A
:1069E0000148FEF71CFD10BD0018014010B5022142
:1069F0000148FEF712FD10BD00180140F8B56946C8
:106A00000F2003F0D5FE0EE069460F2003F0D0FE04
:106A10009DF80000692800D106E0002401E0601C18
:106A2000C4B2322CFBDBEFE700BF0021112004F0E1
:106A3000FDFD7021102004F0F9FD0121122004F069
:106A4000F5FD11E0002000906946122003F0B0FE31
:106A50009DF8000000F0010000B906E0002401E00C
:106A6000601CC4B2322CFBDBECE700BF002101202C
:106A700004F0DCFD20210B2004F0D8FD00210D20C6
:106A800004F0D4FD00210E2004F0D0FD432110209D
:106A900004F0CCFD4221112004F0C8FD7421122025
:106AA00004F0C4FD8C21132004F0C0FD002114204B
:106AB00004F0BCFD0021152004F0B8FD00211620D3
:106AC00004F0B4FDC421172004F0B0FD10215820BB
:106AD00004F0ACFD3821182004F0A8FD382119205D
:106AE00004F0A4FD002400203C49086037E00020A9
:106AF000009069461E2003F05BFE9DF8000000F048
:106B0000020002281DD100256946232003F050FE13
:106B10009DF8000005436946222003F049FE280243
:106B200005B29DF800000543284606F055FC0646D0
:106B30002A480168304606F0DDFA28490860601CE2
:106B4000C4B2052C0BDD204606F05EFC064631463D
:106B50002248006806F042FB2049086000E0C6E7D2
:106B600000BF002437E00020009069461E2003F09B
:106B70001FFE9DF8000000F0020002281DD1002534
:106B80006946232003F014FE9DF800000543694682
:106B9000222003F00DFE280205B29DF800000543F7
:106BA000284606F019FC06460C480168304606F0F7
:106BB000A1FA0A490860601CC4B21E2C0BDD2046F5
:106BC00006F022FC064631460448006806F006FB43
:106BD0000249086000E0C6E700BFF8BDCC00002015
:106BE00008B5002400BFFFF7DFFE24E0601CC4B23C
:106BF0001148C06C28B9062C16DD0024FFF7BCFE36
:106C000012E00D48C06C012802D1FFF7EFFE0BE047
:106C10000948C06C022805D1022C05DB0024FFF7CF
:106C2000ABFE01E0FFF7DAFEFFF72CFD6A4600211C
:106C30000A2001F089F9D9E79409002070B52A48A3
:106C400090F8480000F0F000402805D1264890F860
:106C5000480000F00F0018B124482549086070BDB5
:106C60000020214981F8AC01486B4FF07E5106F0BD
:106C700041FA04461C49B1F8420006F0C5FB05463E
:106C8000214606F0D5FB08D21749486B4FF07E51DC
:106C900006F030FA1449086520E01349886B4FF07C
:106CA0007E5106F0B9FD04460F49B1F8420006F0E6
:106CB000ABFB0546214606F0BBFC08D20A49886BAF
:106CC0004FF07E5106F0A8FD0749086506E0064929
:106CD000B1F8420006F098FB03490865012102481B
:106CE00080F8AD1100BFBAE794090020B96600082A
:106CF0009000002010B51E4890F8480000F0F00009
:106D0000102803D01B481C49086010BD00201849FA
:106D100081F8AC01084690F8480018280CD10121F0
:106D2000134880F8AD110146486B4FF0804106F0E2
:106D3000E1F90F49086518E00D4890F8480014285B
:106D40000CD101210A4880F8AD110146886B4FF043
:106D5000804106F061FD0649086506E0002104480F
:106D600080F8AD11D0F8F011016500BFCDE700004B
:106D700094090020B9660008900000202DE9F04F2A
:106D800089B082460C464FF0000BD9460021504690
:106D900006F04EFC2FD8504606F080F9074605F065
:106DA00053FA054605F060FE8146504606F076F936
:106DB000CDE9000105F048FA05460E46504606F0BA
:106DC0006DF907462A46334606F07EF8CDE9040100
:106DD00099FBF4F004FB1095284605F074FECDE90C
:106DE0000201DDE9042305F0F7FBCDE9060105F01A
:106DF000C1FB834656E02AF0004B584606F04EF998
:106E0000074605F021FA054605F02EFE814699FB5E
:106E1000F4F004FB1099584606F040F9CDE9000162
:106E200005F012FACDE90201584606F037F9074697
:106E3000DDE9022306F048F805460E46484605F00F
:106E400042FE2A463346CDE9040105F0C5FB002287
:106E50001346CDE9060105F0CBFD02D14FF0000B42
:106E600020E0204606F0B8FA06463146584606F0BD
:106E7000B5F9054606F074FA00F10109504606F02E
:106E80000DF921F00048074609FB04F005F01BFE50
:106E90003A464346CDE9060106F016F8054605F0E8
:106EA00069FB8346584609B0BDE8F08F08B500205D
:106EB00000F03AF802F0C4FA2BE0164A1649002016
:106EC00000F058F800BB134800781449898A8842BA
:106ED00002D010480078B8B90020114908800E4847
:106EE000028810490B4802F09BF80D4908800846BB
:106EF0000088002808DD0748007828B1094A0846BC
:106F00000188002000F08EF86A460021012001F07F
:106F10001BF8D2E798450020840000209409002047
:106F2000820000206C44002010B5044614B1012CEE
:106F300014D109E004F06AF80A480B4908600B48CC
:106F40000968C1F860020AE004F060F808480649E0
:106F5000486006484968C1F8600200E000BF00BF11
:106F600010BD000034490020100100209D4A000897
:106F7000984B00202DE9F04104460E4690462848E3
:106F800050F824000079AB2842D1254850F824005D
:106F90004179234850F824004079401C204A52F897
:106FA00024205071062938DB56201D4951F8241041
:106FB000087100201A4951F824104871184850F8F7
:106FC0002400008830800020154951F824100880E2
:106FD0003188134A52F82420901DFCF79BF907468C
:106FE000DFB900250EE00E4850F82400801D405DFA
:106FF00008F80500FF210A4850F82400801D41557B
:10700000681C85B23088A842EDDC0020BDE8F08124
:107010000020034951F8241048714FF0FF30F5E784
:10702000100100202DE9F04105460E4690464FF430
:1070300000412648FEF7F3F9002406E000BF00BF38
:1070400000BF00BF00BF601C84B24CF250308442CD
:10705000F4DB002406E000BF00BF00BF00BF00BF9C
:10706000601C84B24CF250308442F4DB002409E00E
:1070700018F80410164850F8250000F599700155CD
:10708000601C84B2B442F3DB114951F8251001F5BC
:1070900099703146FCF73EF907460D4850F8250037
:1070A00000F5997087553A0A094850F8250000F50F
:1070B0009970711C4254B21C90B2054A52F82520B6
:1070C000D2F860128847BDE8F08100000008014056
:1070D0001001002010B503F08BFF002411E0022105
:1070E000204600F013F90020C4EBC401064A02EB6D
:1070F00081010876C4EBC40102EB81018876601C33
:10710000C4B2012CEBDB10BD1849002008B50024E7
:1071100000BF00F075F9EFE0784890F8AD01002865
:107120007ED0764890F8F401C0F34010002877D163
:10713000724890F8F401C0F300100028F7D16F48AE
:1071400090F8F40100F001000028F0D16B4890F8AD
:10715000F401C0F340000028E9D16848D0F8F401F8
:10716000C0F340700028E2D16448D0F8F401C0F3C5
:1071700080600028DBD1614890F8AC01012807D17C
:107180005E4908694FF0804106F028F8044600E0A7
:1071900000245B48007820B1012854D002287CD11B
:1071A0006CE0564AD2F8B411106D06F035FB064675
:1071B00052480169304606F03BFA12D202214F488C
:1071C00080F8B0114F4801780078401C4D4A10708B
:1071D000C82937DD02204A4908700020114608708E
:1071E00030E046480169484806F056F90646434AE9
:1071F000D2F8B411106D06F00FFB0746314606F0C9
:1072000017F914D201213D4880F8B0113D480178AA
:107210000078401C3B4A1070C82913DD012000E0B3
:1072200050E0374908700020114608700AE0FFF767
:1072300051FF0020324908703249087000212F4860
:1072400080F8B0113DE02D4AD2F8B411106D06F06F
:10725000E3FA0646214606F0EBF905D9274890F8EF
:10726000F401C0F3800028B1FFF734FF0020244967
:10727000087002E0002000F0DBF822E01F4A116DE8
:10728000D2F8B40106F0C8FA0646214606F0D0F955
:1072900007D91A4890F8F40100E00CE0C0F3C000F0
:1072A00028B1FFF717FF00201549087002E0002001
:1072B00000F0E4F805E0FFF70DFF0020104908702A
:1072C00000BF08E0FFF706FF00200D49087000210D
:1072D0000A4880F8B0110020FEF7C6FD074981F882
:1072E000AE010020FEF7B6FD044981F8AF016A4601
:1072F0000021012000F028FE0EE700009409002084
:107300008600002087000020000080BF70B5044682
:107310000D46012D0DD1C4EBC4020D4B03EB8202CF
:107320001189C4EBC40203EB82025068FEF777F8C0
:107330000CE0C4EBC402064B03EB82021189C4EBE0
:10734000C40203EB82025068FEF767F870BD0000CC
:107350001849002070B504460D46012D0DD1C4EB2F
:10736000C4020E4B03EB8202918AC4EBC40203EB0E
:1073700082021069FEF753F80EE0022D0CD1C4EB27
:10738000C402064B03EB8202918AC4EBC40203EBF6
:1073900082021069FEF741F870BD00001849002014
:1073A00008B50121202002F0F9F84FF44040ADF873
:1073B000000010208DF8030003208DF802006946BC
:1073C0000D48FDF74DFF4FF400410B48FEF725F83F
:1073D00009480A4948604FF40040088120200860AD
:1073E000054808614FF4804088822020C860002052
:1073F0000876887608BD0000001401401849002076
:1074000010B5FFF7CDFF03F0A3FC10BD08B500BF1A
:107410000CE0FDF7E1FCFDF78DFDFDF7F9FBFDF755
:10742000C7FB6A460021052000F08EFDF1E7000051
:1074300010B50446012C1CDC0E480078A04207D190
:10744000C4EBC4000C4901EB8000007E012810D081
:10745000FFF740FE0120C4EBC401074A02EB8101A3
:1074600008760448047001210078FFF773FF03F0E9
