:020000040800F2
:1000000068060020D5010008DD010008DF010008B6
:10001000E1010008E3010008E5010008000000001C
:10002000000000000000000000000000E7010008E0
:10003000E901000800000000EB010008ED010008E4
:10004000EF010008EF010008EF010008EF010008D0
:10005000EF010008EF010008EF010008EF010008C0
:10006000EF010008EF010008EF010008EF010008B0
:10007000EF010008EF010008EF010008EF010008A0
:10008000EF010008EF010008EF010008EF01000890
:10009000EF010008EF010008EF010008EF01000880
:1000A000EF010008EF010008EF010008EF01000870
:1000B000EF010008EF010008EF010008EF01000860
:1000C000EF010008EF010008EF010008EF01000850
:1000D000EF010008EF010008EF010008EF01000840
:1000E000EF010008EF010008EF010008EF01000830
:1000F000EF010008EF010008EF010008EF01000820
:10010000EF010008EF010008EF010008EF0100080F
:10011000EF010008EF010008EF010008EF010008FF
:10012000EF010008EF010008EF010008EF010008EF
:1001300000F002F800F03AF80AA090E8000C8244BF
:100140008344AAF10107DA4501D100F02FF8AFF29C
:10015000090EBAE80F0013F0010F18BFFB1A43F0A5
:1001600001031847D0040000F0040000103A24BF37
:1001700078C878C1FAD8520724BF30C830C144BF0C
:1001800004680C607047000000230024002500264E
:10019000103A28BF78C1FBD8520728BF30C148BFEA
:1001A0000B6070471FB51FBD10B510BD00F035F8CE
:1001B0001146FFF7F7FF00F021FA00F053F803B4FF
:1001C000FFF7F2FF03BC00F05BF8000080F3088843
:1001D000704700000948804709480047FEE7FEE7EE
:1001E000FEE7FEE7FEE7FEE7FEE7FEE7FEE7FEE7E7
:1001F00004480549054A064B70470000E904000819
:100200003101000868000020680600206802002014
:1002100068020020704770477047754600F02CF860
:10022000AE4605006946534620F00700854618B0E3
:1002300020B5FFF7DDFFBDE820404FF000064FF08E
:1002400000074FF000084FF0000B21F00701AC460B
:10025000ACE8C009ACE8C009ACE8C009ACE8C0092A
:100260008D46704710B50446AFF300802046BDE8C8
:100270001040FFF7A4BF00000048704704000020B2
:1002800001491820ABBEFEE72600020070470000BF
:100290000149C860704700000020024030B50446A4
:1002A00004254FF4302000F089F80546042D17D1BD
:1002B0000C48006940F002000A49086108464461A0
:1002C000006940F0400008614FF4302000F076F8FB
:1002D00005460448006941F6FD710840014908617E
:1002E000284630BD0020024004200B49C96801F0B7
:1002F000010109B101200EE00749C96801F00401BC
:1003000009B1022007E00449C96801F0100109B1F0
:10031000032000E0042070470020024004200B4925
:10032000C96801F0010109B101200EE00749C9685F
:1003300001F0040109B1022007E00449C96801F095
:10034000100109B1032000E00420704700200240A2
:100350000348006940F080000149086170470000CF
:100360000020024070B504460D460426F00200F05D
:1003700025F80646042E11D10948006940F0010015
:10038000074908612580F00200F018F80646044885
:10039000006941F6FE71084001490861304670BDB0
:1003A0000020024002480349486003484860704703
:1003B0002301674500200240AB89EFCD00B502461E
:1003C0000423FFF791FF034603E0FFF78DFF034689
:1003D000521E012B01D1002AF7D102B9052318467C
:1003E00000BD10B502460B460020002100BF04E00E
:1003F00032F811400444A0B2491C9942F8D310BD10
:1004000010B500F001F810BD0CB50020019000906F
:100410003348006840F480303149086000BF3048FC
:10042000006800F4003000900198401C0190009892
:1004300018B90198B0F5A06FF1D12948006800F40F
:10044000003010B10120009001E0002000900098E1
:10045000012843D12348006840F01000214908607A
:100460000846006820F0030008600846006840F075
:10047000020008601A484068194948600846406808
:1004800048600846406840F480604860084640681C
:1004900020F47C1048600846406840F4E81048604A
:1004A0000846006840F08070086000BF0C48006893
:1004B00000F000700028F9D00948406820F00300DF
:1004C000074948600846406840F00200486000BFA5
:1004D0000348406800F00C000828F9D10CBD00006A
:1004E000001002400020024010B51348006840F0A0
:1004F00001001149086008464068104908400E494B
:100500004860084600680E4908400B4908600846E4
:10051000006820F4802008600846406820F4FE004F
:1005200048604FF41F008860FFF76AFF4FF00060DB
:100530000449086010BD0000001002400000FFF8F0
:10054000FFFFF6FE08ED00E070B548E04FF4A03183
:100550002748FFF746FF4FF6FF7188422FD1FFF77C
:1005600021FF3520FFF794FE00240AE0214901EB2A
:10057000C420FFF793FE00BFFFF7D0FE0128FBD099
:10058000641C502CF2D31C480668002413E0184960
:1005900031F8145000BFFFF7C1FE0128FBD0154908
:1005A00001EB44002946FFF7DDFE00BFFFF7B6FE72
:1005B0000128FBD0641CB442E9D3FFF7C9FEFFF762
:1005C000F1FE3520FFF764FE0B48801EFFF766FE44
:1005D00000BFFFF7A3FE0128FBD0FFF7B9FE0648D6
:1005E000801E00884AF6AA218842AFD070BD000064
:1005F00000A002080020000802F00708FFF7A4FF8F
:1006000011E00948006809490840B0F1005F0AD1CB
:10061000054840680649086003490868FFF7D6FDA9
:10062000034800688047ECE7002000080000FE2F28
:100630000000002054060008000000200400000014
:100640006C01000858060008040000206406000041
:08065000880100080000000011
:0400000508000131BD
:00000001FF
:102000008854002021220008292200082B220008E1
:102010002D2200082F2200083122000800000000B5
:102020000000000000000000000000003322000853
:1020300035220008000000002F230008817F0008DF
:102040003B2200083B2200083B2200083B220008FC
:102050003B2200083B2200083B2200083B220008EC
:102060003B2200083B2200083B220008BD49000833
:102070003B2200083B2200083B2200083B220008CC
:102080003B2200083B2200083B2200083B220008BC
:102090003B2200083B2200083B2200083B220008AC
:1020A0003B2200083B2200083B2200083B2200089C
:1020B0003B220008CDA700083B2200083B22000875
:1020C0003B2200083B2200083B2200083B2200087C
:1020D0003B2200083B2200083B2200083B2200086C
:1020E0003B2200083B2200083B2200083B2200085C
:1020F0003B2200083B2200083B2200083B2200084C
:102100003B2200083B2200083B2200083B2200083B
:102110008DAB00083B2200083B2200083B22000850
:102120003B2200083B2200083B2200083B2200081B
:1021300000F002F800F04AF80AA090E8000C82448F
:102140008344AAF10107DA4501D100F03FF8AFF26C
:10215000090EBAE80F0013F0010F18BFFB1A43F085
:102160000103184740B3000060B300000A4410F8B0
:10217000014B14F00F0508BF10F8015B240908BFDC
:1021800010F8014B6D1E05D010F8013B6D1E01F8D3
:10219000013BF9D1641E03D0641E01F8015BFBD141
:1021A0009142E4D37047000000230024002500265C
:1021B000103A28BF78C1FBD8520728BF30C148BFAA
:1021C0000B6070471FB51FBD10B510BD00F05EF865
:1021D0001146FFF7F7FF09F08FFB00F07CF803B41E
:1021E000FFF7F2FF03BC00F07FF8000072B6704703
:1021F00062B67047EFF3108072B6704780F31088B4
:10220000704730BF704720BF7047B0FA80F070470A
:1022100090FAA0F0B0FA80F0704790FAA0F0704702
:102220000948804709480047FEE7FEE7FEE7FEE76A
:10223000FEE7FEE7FEE7FEE7FEE7FEE704480549A6
:10224000054A064B70470000FDA600083121000832
:10225000884E00208854002088500020885000209C
:1022600070477047704710B500F008F8006810BD5F
:1022700010B5044600F002F8046010BD0048704735
:10228000244E002000487047244E00207546FFF77A
:10229000F9FFAE4605006946534620F00700854623
:1022A00018B020B5FFF7CAFFBDE820404FF0000688
:1022B0004FF000074FF000084FF0000B21F007012E
:1022C000AC46ACE8C009ACE8C009ACE8C009ACE871
:1022D000C0098D46704710B50446AFF30080204614
:1022E000BDE81040FFF77BBF01491820ABBEFEE7F9
:1022F00026000200704700001D484FF0FF010170EA
:10230000002080F309881B48016881F308881A4877
:102310004FF08051016062B6FEE717484FF08051E0
:102320000160704714484FF080510160704772B6E9
:10233000EFF3098028B1203880E8F00F0F490968D1
:10234000086000B50E4880475DF804EB0D480E4963
:102350000A78027009480D490A680260106890E81E
:10236000F00F203080F309884EF0F40E62B670470B
:1023700022ED00E06000002004ED00E058000020A5
:10238000017E00082D0000202E0000205C000020AF
:1023900010B502210F4800F0F5F800210E4802F0B8
:1023A000B5FB32200C490839C86001210A4802F007
:1023B000ADFB0121074800F0F3F80648083000683B
:1023C00040F002000349083108600121014800F093
:1023D00086F910BD002401400800024000B591B00C
:1023E0000121480206F0BEFF0121082006F0BAFFD5
:1023F0000121102006F0B6FF4FF4004006F086FFE2
:102400000120ADF8400000208DF8430010A9584885
:1024100002F038FF0220ADF8400000208DF84300A4
:1024200010A9534802F02EFF0120ADF84000002013
:102430008DF8430010A94F4802F024FF0820ADF8A2
:10244000400000208DF8430010A94A4802F01AFF0E
:102450000420ADF8400000208DF8430010A9454845
:1024600002F010FF0121084606F05CFF4248009090
:1024700042480190002002903220039000200490F6
:102480008020059040000690800007900020089072
:102490004FF40050099000200A906946384802F035
:1024A00060FB0121364802F031FB01220221344851
:1024B00002F04EFB00200B9001208DF830008DF8CB
:1024C00031004FF460200D9000200E9005208DF813
:1024D0003C000BA928484C3800F078F8072301226B
:1024E000082125484C3800F099F8072302220921D9
:1024F00021484C3800F092F8072303220A211E4895
:102500004C3800F08BF8072304220C211A484C3871
:1025100000F084F8072305220D2117484C3800F0FD
:102520007DF8012114484C3800F03AF80121124896
:102530004C3800F02AF810484C3800F0CBF800BFB7
:102540000D484C3800F037F80028F9D10A484C38CB
:1025500000F0D0F800BF08484C3800F02CF80028F4
:10256000F9D1012104484C3800F0B9F811B000BD90
:10257000000C0140001001404C240140944D00200B
:1025800008000240CA430260704721B1826842F0ED
:102590000102826003E0826822F0010282607047DB
:1025A00021B1826842F48072826003E0826822F482
:1025B000807282607047014600208A6802F004023F
:1025C0000AB1012000E000207047000030B502464B
:1025D0000020002350680F4C20400D790C6844EA1D
:1025E00005242043506090680B4C2040D1E90254F0
:1025F0002C434D7944EA450420439060D06A20F48E
:1026000070000C7C641EE4B2234340EA0350D062A5
:1026100030BD0000FFFEF0FFFDF7F1FFF0B504460E
:102620000D4600200021092D11DDE068A5F10A0604
:1026300006EB4607072606FA07F18843A5F10A06C6
:1026400006EB460603FA06F10843E0600CE0206959
:1026500005EB4507072606FA07F1884305EB450613
:1026600003FA06F108432061072A0FDA606B561E51
:1026700006EB86071F2606FA07F18843561E06EB6F
:10268000860605FA06F10843606322E00D2A0FDA98
:10269000206BD61F06EB86071F2606FA07F1884334
:1026A000D61F06EB860605FA06F10843206310E004
:1026B000E06AA2F10D0606EB86071F2606FA07F16F
:1026C0008843A2F10D0606EB860605FA06F10843DB
:1026D000E062F0BD816841F008018160704721B17E
:1026E000826842F4A002826003E0826822F4A002C1
:1026F00082607047816841F004018160704700008A
:1027000051485249086052484860524888605248CF
:10271000C86052480861524848615248886152482E
:10272000C86152480862524848625248886252481A
:10273000C862524808635248486352488863524806
:10274000C8655248086652484866524888665248EA
:10275000C866524808675248C1F884005148C1F819
:1027600088005148C1F898005048C1F89C00504872
:10277000C1F8A0004F48C1F8AC004F48C1F8B00004
:102780004E48C1F8B4004E48C1F8B8004D48C1F8F1
:10279000BC004D48C1F8C0004C48C1F8C4004C48CA
:1027A000C1F8C8004B48C1F8CC004B48C1F8D00074
:1027B0004A48C1F8DC004A48C1F8E0004948C1F87D
:1027C000E4004948C1F8E8004848C1F8EC0048482E
:1027D000C1F844014748C1F848014748C1F85001D1
:1027E0004648C1F864014648C1F868014548C1F847
:1027F0006C014548C1F870014448C1F8740144486F
:10280000C1F878014348C1F88C014348C1F89001F0
:102810004248C1F894014248C1F898014148C1F8C2
:102820009C014148C1F8A0014048C1F8A4014048BA
:10283000C1F8A8013F48C1F8BC013F48C1F8C00138
:102840003E48C1F8C4017047A1940008C04600206A
:10285000B5A00008D5A0000865A1000875A1000872
:10286000B19400088D970008C1940008D194000825
:102870002D9200083D920008C5960008D5960008E4
:102880008995000899950008BD9E0008519E000892
:10289000C19D0008F19D0008219E0008819E00084E
:1028A000259D0008F996000831950008E596000876
:1028B000E1940008A99C0008C59C00082D9A000816
:1028C000499A00089D990008B9990008ED9E0008F2
:1028D000099F0008CD980008E998000809950008AC
:1028E000CD9200087D920008E59200084D92000804
:1028F000FD970008799C0008C1970008359B0008E7
:10290000519B0008C99B0008E59B0008459D0008F5
:10291000619D0008B19F00087D9F0008F19A0008A2
:10292000BD9A00083598000851980008E19F0008FA
:10293000FD9F0008299700086599000879A0000804
:1029400070B50024304890F8480000F0F00080286E
:1029500005D12D4890F8480000F00F0030B100205C
:102960002A4908802A482B49086070BD0020264962
:1029700081F8AC010021244880F8AD11234800887B
:10298000401C2249088008460088B0F5967F00DA8E
:10299000EBE700201D4908801B4890F8F401C0F3C4
:1029A000401058BB184890F8F401C0F3001028BB41
:1029B0001548D0F8B41118480AF034FC05461248FE
:1029C000016828460AF09CF80446144920460AF09B
:1029D00035FA07D2124920460AF030FB02D20A48E3
:1029E000046002E00020084908600748D0F8F801B8
:1029F00020F00100401C0449C1F8F8010021024800
:102A0000816400BFB1E70000900900209C00002015
:102A1000016600088C0000200000B4420000204144
:102A2000000020C11CB5002400BF00F027F821E001
:102A30006946002002F00CFD48B90F480168009873
:102A40000AF05EF80C49C1F8B40100240DE0142C22
:102A500002DA601C84B208E00748D0F8F40120F0E4
:102A6000100010300449C1F8F40101AA002102202D
:102A700005F00EFADCE700009009002008B507F029
:102A8000F3FB03F05FFF6946182007F097FB9DF802
:102A90000000382801D1002008BD4FF0FF30FBE7CF
:102AA00008B500BF0BE000F0C7FC02F027FD0449A9
:102AB000C1F8F0016A4600211E2005F0E9F9F2E7AD
:102AC0009009002010B5274890F84800282803D026
:102AD00025482649086010BD0020224981F8AC0134
:102AE000486B4FF07E510AF00BF804461D48416DCB
:102AF00020460AF0A3FA08D21A49486B4FF07E51DB
:102B000009F0FEFF1749086518E01649886B4FF079
:102B10007E510AF087FB04461248416D20460AF0B8
:102B20008DF908D20F49886B4FF07E510AF07AFB7D
:102B30000C49086502E00B48416D01650948826D4A
:102B4000806D401C074988650948824204D90949BB
:102B500004488165202181640121024880F8AD117B
:102B600000BFB8E7900900201D2C0008900000204D
:102B7000905F0100C0D4010010B50C4890F84800E7
:102B8000252803D00A480B49086010BD00200749DA
:102B900081F8AC01888F0AF03DF9044908650121EC
:102BA000024880F8AD1100BFEFE700009009002057
:102BB0001D2C00089000002010B5144890F8480023
:102BC00000F0F000202818D11048D0F8F401C0F32C
:102BD000807068B90D48D0F8F401C0F3006038B9CE
:102BE00008F01EF900F082FA0948006880470BE0FF
:102BF0000021064880F8AD1106E006480649086045
:102C00000021024880F8AD1110BD0000900900209D
:102C100090000020016600088C00002000211F4861
:102C200080F8AD1190F84800242803D11C481D49B4
:102C3000086032E0194890F84800252803D11A4866
:102C40001849086029E0154890F84800282806D15E
:102C50001648144908600021104881651DE00F489E
:102C600090F84800212803D111480E49086014E06B
:102C70000A4890F84800222803D10E480949086004
:102C80000BE0064890F84800202803D10A4805497F
:102C9000086002E009480A4908607047900900206E
:102CA000E92F000890000020792B0008C52A0008B1
:102CB000C52C0008DD2E0008512F00080166000811
:102CC0008C00002010B57C4890F84800212808D0DE
:102CD00000207A4908707A4908807A487A49086061
:102CE00010BD0020744981F8AC01744800780528B3
:102CF0007ED2DFE800F0032D6581B80073496E488D
:102D00000165012180F8AD11014608696F4909F09C
:102D1000F7FE04466848D0F8B41120460AF08EF950
:102D200015D86548016969480AF07CFA044662488A
:102D3000D0F8B41120460AF081F808D8012064497F
:102D400008705E49087000215B4880F8AD11B0E062
:102D50000121594880F8AD115D49097801EB8101E5
:102D6000490001F13C000AF03DF853490865086D3F
:102D700058490AF063F90AD8012055490870032020
:102D80004E49087000214C4880F8AD1117E04A49BF
:102D9000086D4FF07E510AF045FA04464648D0F8D7
:102DA000B41120460AF04AF809D2022043490870BB
:102DB00000204349088000213F4880F8AD1178E0A9
:102DC00000213D4880F8AD113D4801880088401C35
:102DD0003B4A108042F6E06081420CDB0020114645
:102DE000088001203549087039480078401C00E00F
:102DF00053E0374908705CE001212F4880F8AD119D
:102E00003349097801EB81014900C1F1780009F0EB
:102E1000E9FF29490865086D2F490AF00FF809D81C
:102E200001202B490870254908700021224880F8AC
:102E3000AD1117E02049086D4FF07E5109F060FE9A
:102E400004461D48D0F8B41120460AF0F7F809D816
:102E500004201A49087000201949088000211648EA
:102E600080F8AD1125E00021134880F8AD11144819
:102E700001880088401C124A108042F6E0608142BE
:102E80000ADB00201146088003200C490870104816
:102E90000078401C0E4908700BE0002007490870BC
:102EA000074908800A4908700021034880F8AD11DD
:102EB00000BF00BF00BF13E7900900209E00002064
:102EC000A00000201D2C000890000020000070428F
:102ED000A20000200000F4420000684210B517482C
:102EE00090F84800222803D015481649086010BD04
:102EF0000020124981F8AC01D1F8B40112490AF05E
:102F000091F9044611490AF099F808D20B49886BE7
:102F10004FF080410AF086F90849086507E0074943
:102F2000486B4FF0804109F0EBFD04490865012131
:102F3000024880F8AD1100BFD9E7000090090020D9
:102F40001D2C0008900000200000B442CDCCCC3DE8
:102F500010B5224890F84800202803D02048214985
:102F6000086010BD01201D4981F8AC01886B4FF04D
:102F70007E510AF057F904461848D0F8F01120465F
:102F800009F05CFF08D81549886B4FF07E510AF0B4
:102F900049F9124908651AE01049486B4FF07E5113
:102FA00009F0AEFD04460D48D0F8F01120460AF0B5
:102FB00045F808D80949486B4FF07E5109F0A0FD4B
:102FC0000649086503E00548D0F8F01101650121C4
:102FD000024880F8AD1100BFC3E70000900900204F
:102FE0001D2C00089000002010B50C4890F84800F7
:102FF000242803D00A480B49086010BD0020074967
:1030000081F8AC01888F09F005FF044908650121AA
:10301000024880F8AD1100BFEFE7000090090020E2
:103020001D2C00089000002010B501214FF0C05069
:1030300006F088F9012005F0A9FD002000F042F813
:10304000002000F02BF800F01FF8002005F09EFD96
:1030500010BD10B5042000F027F84AF6AA218842D6
:1030600001D1002010BD4FF0FF30FBE710B501206B
:1030700005F08CFD4AF6AA21042000F029F8002072
:1030800005F084FD10BD00000348008840F00100F9
:103090000149088070470000346C00400149086015
:1030A0007047000088860D4208B501460020009058
:1030B000034800900098084400900098008808BDDC
:1030C000006C0040014908607047000000860D4216
:1030D00008B500220092044A0092009A024400922D
:1030E000009A116008BD0000006C00400E4890F886
:1030F0004800242817D00C4890F84800252809D10A
:103100000948D0F8F401C0F3007060B920210648E6
:10311000816408E00448D0F8F401C0F3007010B1F5
:1031200025210148816470479009002070B504464C
:1031300000250C49204609F0B5FE06460A490AF06A
:1031400071F805464FF07E51284609F077FF01D807
:103150004FF07E550549284609F070FE00D8034D12
:10316000284670BDF7E4213E666666400AD7233CD8
:1031700070B50024002503F013F8184818490861B9
:10318000001588820820C86014484860C01408816F
:1031900008200860084603F07AF800F02DF802F0E5
:1031A00097FD05464DB90F480F4908600F48486024
:1031B0000F4888600F48C86009E00A480A4908605B
:1031C0000A4848600A4888600A48C86000BF00BFD3
:1031D00001F028FB0446204670BD0000000C0140B1
:1031E00098480020333353408848002033338340CD
:1031F0001283C03E2D31000808B50121202006F0C1
:10320000B1F84020ADF8000004208DF80300022042
:103210008DF802006946054802F034F88020ADF8C8
:1032200000006946014802F02DF808BD0014014075
:1032300001460846044A1268904203D9024A1268BD
:10324000801A00E0002070477400002070B500254F
:1032500000BFFEF7CFFF054600BF0648046800BF69
:103260002846FEF7CBFF00BF2046FFF7E1FF0646EA
:10327000304670BD7800002070B50025FFF7E6FFEE
:10328000044600BFFEF7B6FF054600BF0020044914
:10329000086000BF2846FEF7B1FF00BF204670BDA2
:1032A0007800002000B509480088401C07490880C4
:1032B0000748008818B900F039F806490860044842
:1032C0000088401C0249088000BD00006800002002
:1032D0006A0000206C00002000B50F480088401EE6
:1032E0000D4A108010460088A0B900F01FF80B4A64
:1032F0001060104600680A4A1268811A094800687E
:10330000884201D20748016007480068884201D21C
:103310000548016000BD00006A0000207000002028
:103320006C000020780000207C00002001484068EC
:1033300070470000001000E030B502460B46002147
:1033400000244FF6FF7000BF12E0555C6840002477
:103350000AE000F0010525B140104AF2010568407D
:1033600000E04010651CECB2082CF2DB4D1CA9B249
:103370009942EADB30BD00002DE9F74F82B0894663
:103380001446484609F090FB0746224A224B09F0B2
:1033900007F9054608F0F4FD81462049204609F06A
:1033A00081FD824609F080FB07461A4A1A4B09F054
:1033B000F7F8054608F0E4FD04461948016802984C
:1033C00009F030FF824609F06FFB0746154A164B9D
:1033D00009F0E6F8054608F0D3FD0290214648467C
:1033E00008F09EF8009009F05FFB05460F4A104B6D
:1033F00009F0D6F8074600220E4B08F0F3FD82468E
:1034000008F0BEFD0190DDE9011003F043F905B0BD
:10341000BDE8F08FD5CC5A0A48FB0F3F000080BFB3
:10342000C8000020EC51B81E85EB713FD3DEE00BE5
:1034300093A94C400080564000B5C3B00020429094
:103440000021419140913F913E913D913C913B91B2
:103450003A91399138913791369135913491339130
:103460003291319130912F912E912D912C912B9160
:103470002A91299128912791269125912491239190
:103480002291219120911F911E911D911C911B91C0
:103490001A91FE48B0F860103E91B0F862103D916C
:1034A000B0F864103C91DDE93C213E9802F04AFC02
:1034B000409040F26C71419129E04FF4C8714198FD
:1034C00090FBF1F201FB120010B94FF4B77118E054
:1034D0004198C217199000EB927082101998A0EBD6
:1034E000820060B96421419890FBF1F201FB120067
:1034F00010B14FF4B77104E040F26D1101E040F2F9
:103500006D113F9801443F914198401C41903E9974
:1035100041988842D1DBDDE93F1001443F91DB480F
:103520004168389181683791C1683691B0F866106A
:103530003B91B0F868103A91B0F86A103991399817
:1035400009F050FC35903A9808F0C3FFCDE9160118
:10355000359809F0A9FA0022CD4BCDE9120108F007
:10356000F5FDCDE91401DDE9162308F03BFDCDE9B9
:10357000180108F005FD35903B9808F0AAFFCDE949
:103580001401359809F090FA0022C14BCDE91001E1
:1035900008F0DCFDCDE91201DDE9142308F022FD7D
:1035A0000022BC4BCDE9160108F0D0FDCDE9180191
:1035B00008F0E6FC35903F98401C09F013FC34906D
:1035C000B549369809F010FB0F9009F06DFACDE976
:1035D0001201359809F068FA4FF08042AF4BCDE9FF
:1035E0000E0108F0FFFCCDE91001DDE9122309F01E
:1035F00071F9CDE91601349809F056FACDE91401B4
:10360000DDE9162308F0EEFCCDE9180108F0B8FC5E
:103610003490A349349809F005FEA249199009F0A5
:10362000E3FA3390339809F03FFA9F4A9F4BCDE974
:103630000E0108F0B5FF9E4A9E4BCDE9100108F03F
:10364000D1FCCDE91401339809F02EFACDE912012D
:10365000DDE9142308F0A4FF974A984BCDE9160141
:1036600008F0C0FCCDE9180108F08AFC32904FF454
:10367000B471329803F026FB3290339809F014FAB3
:103680008F4A904BCDE90E0108F08AFF8E4A894B94
:10369000373BCDE9100109F011F9CDE91401339858
:1036A00009F002FACDE91201DDE9142308F078FFF0
:1036B000864A874BCDE9160108F094FCCDE9180144
:1036C00008F05EFC3190339809F0EEF9814A824BA4
:1036D000CDE90E0108F064FF804A814BCDE910016D
:1036E00008F080FCCDE91401339809F0DDF9CDE94B
:1036F0001201DDE9142308F053FF7A4A7A4BCDE931
:10370000160109F0DBF8CDE9180108F039FC30901A
:103710007648319909F0C6FB75490A9009F064FAB8
:103720000B9009F0C1F9734A734BCDE90C0108F015
:1037300037FFCDE90E0108F023FC109008F08CFA59
:10374000119009F0B1F96D4A6D4BCDE9120108F005
:1037500027FFCDE91601339809F0A6F9694A6A4BAB
:10376000CDE9080108F01CFF684A694BCDE90A0160
:1037700009F0A4F8CDE90E014FF08040319909F02D
:1037800091FB5B49049009F02FFA059009F08CF940
:10379000584A594BCDE9060108F002FFCDE908016E
:1037A00008F0EEFB0A9008F057FA0B9009F07CF94C
:1037B000CDE90C01DDE90E2308F0F2FECDE912019E
:1037C000339809F071F9534A534BCDE9020108F0DF
:1037D000E7FE524A524BCDE9040108F003FCCDE963
:1037E0000801339809F060F9CDE90601DDE9082305
:1037F00008F0D6FE4B4A4C4BCDE90A0109F05EF8C1
:10380000CDE90E013A49319809F0EEF9059009F039
:103810004BF9384A384BCDE9060108F0C1FECDE935
:10382000080108F0ADFB0A9008F016FA0B9009F0B9
:103830003BF9CDE90C01DDE90E2308F0B1FECDE93D
:103840001001DDE9122308F0CDFBCDE91401DDE91B
:10385000162308F0C7FBCDE9180108F091FB2F9063
:103860002F99329809F04CF92E90339809F01CF9F1
:103870002E4A2F4BCDE9140108F092FE2D4A2E4B13
:10388000CDE9160109F01AF858E00000900900206F
:1038900000004E40000038400000C041D56C42415D
:1038A00064A1154A00AD0E47C0AB8A15DADE333F7E
:1038B0002F8672A21894E14046CEC29E7687714050
:1038C0000CDB60F25025243F2AC6F99BC91F0C3C33
:1038D0007758764000D864FC6001813E03E35F5274
:1038E0001C0A063F80035D72111C913F000040409E
:1038F000000034434AD8124DFB2109402C616D8CE5
:103900009DF0323FE31A9FC9FE791A3F9580988453
:103910000B79943FB75F3E59315CED3EAEF36F9744
:10392000FDBA733FF6B2EDB435A2FE3F0681954372
:103930008B389E40C3F5285C8F425F40CDE918016B
:1039400008F01EFB4290FE49429809F04DF90B9099
:1039500009F0AAF8FB4AFC4BCDE90C0108F020FE67
:10396000CDE90E0108F00CFB109008F075F91190EC
:1039700009F09AF8F54AF64BCDE9120108F010FE6D
:10398000CDE916012E9809F08FF8F24AF24BCDE9F5
:10399000120108F09FFFCDE91401DDE9162308F0BC
:1039A00099FFCDE9180108F0EBFA2D90339809F052
:1039B0007BF8EA4AEA4BCDE9000108F0F1FDE94A5B
:1039C000E94BCDE9020108F079FFCDE90601339812
:1039D00009F06AF8CDE90401DDE9062308F0E0FD0D
:1039E000E24AE34BCDE9080108F0FCFACDE90C010D
:1039F000339809F059F8CDE90A01DDE90C2308F004
:103A0000CFFDDC4ADC4BCDE90E0108F057FF002268
:103A1000DA4BCDE9100108F099FB0022D84BCDE933
:103A2000120108F0DFFA0022D44BCDE9140108F0AE
:103A30008DFB0022D34BCDE9160108F0D3FACDE976
:103A4000180108F09DFA2C90BD49429809F0CCF875
:103A50000B9009F029F8BB4ABB4BCDE90C0108F0EB
:103A60009FFDCDE90E0108F08BFA109007F086FE5D
:103A7000119009F019F8C44AC44BCDE9120108F0BD
:103A80008FFDCDE916012C9809F00EF8CDE914014F
:103A9000DDE9162308F0A6FACDE9180108F070FA5E
:103AA0002B90A7492D9809F09FF8099008F0FCFF8A
:103AB000A44AA54BCDE90A0108F072FDCDE90C013D
:103AC00008F05EFA0F9008F0C7F89D4911902B9806
:103AD00009F08AF8099008F0E7FF9A4A9A4BCDE975
:103AE0000A0108F05DFDCDE90C0108F049FA0F90DC
:103AF00008F0B2F81090119909F0D4F9129007F07B
:103B00007DFC139008F0D0FF8E4A8F4BCDE9140155
:103B100008F01CFB00229E4BCDE9160108F040FD89
:103B2000CDE9180108F02CFA2A904FF080412B982B
:103B300009F05AF88249109009F056F8119008F0EF
:103B4000B3FF804A804BCDE9120108F029FDCDE991
:103B5000140108F015FA179008F058F94FF0804159
:103B600019902B9809F040F87549109009F03CF82D
:103B7000119008F099FF734A734BCDE9120108F0D8
:103B80000FFDCDE9140108F0FBF9179008F03EF99C
:103B90001890199909F086F929906949319809F026
:103BA00023F8079008F080FF664A674BCDE90801CB
:103BB00008F0F6FC00224FF08043CDE90A0108F03E
:103BC000EFFCCDE90C0108F0DBF90E9008F044F8A9
:103BD0000F9008F069FFCDE91201309808F064FFFA
:103BE000CDE90E01309808F05FFF0022694BCDE966
:103BF0000A0108F0D5FCCDE90C01DDE90E2308F03F
:103C0000CFFCCDE91001DDE9122308F0C9FCCDE9B4
:103C100016014B49329808F0E7FF039008F044FF83
:103C2000484A494BCDE9040108F0BAFC00225A4B3E
:103C3000CDE9060108F0B4FCCDE9080108F0A0F9CF
:103C40000A9008F009F80B9008F02EFFCDE90E015C
:103C5000299808F029FFCDE90A01299808F024FFE6
:103C600000224E4BCDE9060108F09AFCCDE908018F
:103C7000DDE90A2308F094FCCDE90C01DDE90E230F
:103C800008F08EFCCDE912012D49329808F0ACFF06
:103C9000039008F009FF2B4A2B4BCDE9040108F0F3
:103CA0007FFC00224FF08043CDE9060108F078FC4C
:103CB000CDE9080108F064F90A9007F05FFD20499A
:103CC0000C90319808F090FF039008F0EDFE1D4A2B
:103CD0001D4BCDE9040108F063FCCDE9060108F0B5
:103CE0004FF9089007F0B8FF0A904FF081403099E3
:103CF00009F0D8F80890299909F0D4F809900A99A0
:103D000009F0D0F80B900C9909F0CCF80C490E9002
:103D1000319808F069FF039008F0C6FE094A0A4B83
:103D2000CDE9040108F03CFCCDE9060108F028F9D2
:103D3000089007F091FF0A904FF0804030992FE0F3
:103D4000000034434AD8124DFB210940F94ECC7A89
:103D50003194733F1FBAA0BE654E773FD61A4AED25
:103D600045B45D3FBEA4315A4755433FB81E85EB6D
:103D700051684740A69BC420B072354000004E40B9
:103D800000003A4000003740F168E388B5F8643F2E
:103D9000008066400000F43F000010400000E03F5B
:103DA00009F080F809900A9909F07CF8FE490C9016
:103DB000329808F019FF019008F076FEFB4AFC4BA0
:103DC000CDE9020108F0ECFB00224FF08043CDE981
:103DD000040108F0E5FBCDE9060108F0D1F80990EF
:103DE00007F03AFF0A90299909F05CF80B900C99BA
:103DF00009F018FA0D900E9908F082FE0F9008F065
:103E000053FECDE91001DDE9122308F063FDCDE991
:103E10001401DDE9162308F05DFDCDE9180108F075
:103E2000AFF84290429808F03FFEE04AE04BCDE9FF
:103E3000120108F08BF90022DE4BCDE9140108F0E5
:103E4000AFFB0022DC4BCDE9160108F0A9FBCDE960
:103E5000180108F095F82890D3492A9808F0C4FE74
:103E6000079008F021FED14AD14BCDE9080108F0B6
:103E700097FBCDE90A0108F083F80D9007F0C6FF23
:103E8000C9490F90379808F0AFFE079008F00CFE74
:103E9000C64AC74BCDE9080108F082FBCDE90A010B
:103EA00008F06EF80D9007F0B1FF0E900F9908F032
:103EB000F9FFBD4911902A9808F096FE059008F088
:103EC000F3FDBA4ABA4BCDE9060108F069FBCDE92A
:103ED000080108F055F80B9007F050FCB2490D901E
:103EE000379808F081FE059008F0DEFDAF4AB04B30
:103EF000CDE9060108F054FBCDE9080108F040F8CF
:103F00000B9007F03BFC0C900D9908F0CBFF0F9045
:103F1000AA4807F033FC0E900F9908F065FE109048
:103F2000119909F07FF9129007F0DAF9139008F06F
:103F3000BBFD9E4A9E4BCDE9140108F007F9002213
:103F40009C4BCDE9160108F02BFBCDE9180108F0D8
:103F500017F827909A49369808F0A4FF18904FF068
:103F60008140389908F09EFF9649159009F0C8F8ED
:103F70001690289909F056F91790189908F0C0FD85
:103F80009149199008F030FE26904FF08141279812
:103F900008F088FF8C49189008F026FE19902699A1
:103FA00009F0AEF825904FF08141279808F07AFF8C
:103FB0008549189008F018FE1990269908F0A0FD80
:103FC00024907F48369908F06DFF19904FF081409A
:103FD000389908F067FF7C491790359808F062FF20
:103FE0001590289908F08CFD1690179908F088FD17
:103FF0001890199909F016F923904FF4B461239899
:1040000002F060FE23900021239808F017FF09D2E8
:104010004FF08141239808F0E7FD6349199009F0BA
:1040200001F908E04FF08141239808F0DDFD5E4979
:10403000199009F0F7F822905B49229808F0D4FD16
:10404000079008F031FD594A594BCDE9080108F0B5
:10405000A7FACDE90A0107F093FF0D9007F08EFB58
:1040600051490F902A9808F0BFFD059008F01CFDFB
:104070004E4A4F4BCDE9060108F092FACDE908010E
:1040800007F07EFF0B9007F079FB47490D903798BA
:1040900008F0AAFD059008F007FD444A444BCDE91D
:1040A000060108F07DFACDE9080107F069FF0B90E1
:1040B00007F064FB0C900D9908F0F4FE0E900F9938
:1040C00008F0F0FE384911902A9808F08DFD07900D
:1040D00008F0EAFC354A364BCDE9080108F060FAF1
:1040E000CDE90A0107F04CFF0D9007F0B5FD2E4910
:1040F0000F90379808F078FD079008F0D5FC2B4A10
:104100002B4BCDE9080108F04BFACDE90A0107F085
:1041100037FF0D9007F0A0FD0E900F9908F0C2FE3A
:104120001090119908F0ECFC129007F0D9F8139058
:1041300008F0BAFC1D4A1E4BCDE9140108F006F840
:1041400000221C4BCDE9160108F02AFACDE918012E
:1041500007F016FF21901D48219909F063F820907F
:104160001149209808F040FD139008F09DFC0F4A7B
:104170000F4BCDE9140108F013FACDE9160107F051
:10418000FFFE199007F042FE1F901F99084608F0A5
:1041900089FE19901F9908F085FE1E90DDE91E0129
:1041A00008F080FE199013E0000034434AD8124D05
:1041B000FB210940008066400000104041ECCA3FEE
:1041C00000007042000034440000B4440000B442D7
:1041D0001F9908F067FE1D90FE49209808F02EFFF9
:1041E00002D200200146B8E0FB49209808F026FFE3
:1041F00045D21D9808F058FC02460B46CDE9100147
:10420000F648F74907F0A2FFCDE914011E9808F01F
:104210004BFC02460B46CDE90C01F248F24907F08F
:1042200095FFCDE91001F149209808F0DDFC0590DB
:1042300008F03AFCEE4AEF4BCDE9060108F0B0F980
:10424000CDE9080107F09CFE0A9007F0DFFD0B9016
:1042500008F02AFC02460B46CDE90C01E648E74986
:1042600007F074FFCDE90E01DDE9102308F032FB01
:10427000CDE91201DDE9142307F0B4FE6DE02098CA
:1042800008F012FC4FF06632DD4BCDE9140108F066
:1042900085FA43D2209808F007FCDA4ADA4BCDE9D8
:1042A000000108F07DF9CF4A5242D84BCDE9020116
:1042B00007F098FECDE90601209808F0F5FBCDE95E
:1042C0000401DDE9062308F06BF9D14AD14BCDE9B1
:1042D000080107F087FECDE90C01209808F0E4FB07
:1042E000CDE90A01DDE90C2308F05AF9C84ACA4BA6
:1042F000CDE90E0107F076FECDE91201209808F015
:10430000D3FBCDE91001DDE9122308F049F90022C1
:10431000C24BCDE9140107F065FE1EE0B3492098B9
:1043200008F062FC0D9008F0BFFBB14AB14BCDE93B
:104330000E0108F035F9CDE9100107F021FE1290C9
:1043400007F064FD139008F0AFFB02460B46CDE981
:104350001401B348B34907F0F9FE0022B24BCDE98E
:10436000160107F0F3FECDE9180107F009FE1C90D5
:104370001C99209808F0C4FB1B900021229808F09B
:104380005DFE7CD29949219808F02EFC039008F03C
:104390008BFB974A974BCDE9040108F001F9CDE971
:1043A000060107F0EDFD099007F056FC8F490B90D0
:1043B000379808F019FC039008F076FB8C4A8D4B77
:1043C000CDE9040108F0ECF8CDE9060107F0D8FDCD
:1043D000099007F0D3F90A900B9908F063FD83491F
:1043E0000D902A9808F000FC039008F05DFB804ACD
:1043F000804BCDE9040108F0D3F8CDE9060107F0C0
:10440000BFFD099007F028FC78490B90219808F02F
:10441000EBFB019008F048FB754A764BCDE90201B1
:1044200008F0BEF8CDE9040107F0AAFD079007F0F7
:10443000A5F96E490990379808F0D6FB019008F06D
:1044400033FB6B4A6B4BCDE9020108F0A9F8CDE9CB
:10445000040107F095FD079007F0FEFB089009990D
:1044600008F020FD0A900B9908F0DCFE0C900D99E5
:1044700008F0BAFB0E9006F033FF0F9000E01DE04D
:1044800008F012FB5A4A5B4BCDE9100107F05EFEC3
:104490000022664BCDE9120108F082F80022634B3E
:1044A000CDE9140107F09EFDCDE9160107F068FD86
:1044B0004FF4B471199002F005FCC7E04B49219804
:1044C00008F092FB039008F0EFFA494A494BCDE916
:1044D000040108F065F8CDE9060107F051FD0990E7
:1044E00007F0BAFB41490B90379808F07DFB039029
:1044F00008F0DAFA3E4A3F4BCDE9040108F050F8E3
:10450000CDE9060107F03CFD099007F037F90A9064
:104510000B9908F0C7FC35490D902A9808F064FB08
:10452000039008F0C1FA324A324BCDE9040108F099
:1045300037F8CDE9060107F023FD099007F08CFB61
:104540002A490B90219808F04FFB019008F0ACFA33
:10455000274A284BCDE9020108F022F8CDE90401F1
:1045600007F00EFD079007F009F9204909903798E8
:1045700008F03AFB019008F097FA1D4A1D4BCDE96F
:10458000020108F00DF8CDE9040107F0F9FC0790ED
:1045900007F062FB0890099908F084FC0A900B99D7
:1045A00008F040FE0C900D9908F01EFB0E9006F0EE
:1045B00097FE0F9008F078FA0D4A0E4BCDE91001E6
:1045C00007F0C4FD0022194BCDE9120107F0E8FF06
:1045D00000222DE00000AA420000A0403677F4BF80
:1045E0005C8B163FEC51B81E85EBB13F00003443A5
:1045F0004AD8124DFB210940CDCCCCCCCC0C4D403F
:104600006666E2BF8D976E1283C0E63F7A9429C03A
:104610009A99999999D95940993180C0001C9B4029
:104620001283C0CAA1C534C00020AC4000806640DF
:10463000214BCDE9140108F041F9CDE9160107F04D
:104640009FFC4FF4B471199002F03CFB1A901B4987
:10465000259808F027FC1A49C1F8E0011749249869
:1046600008F020FC1649C1F8E4011A98C1F8EC01E1
:104670001B9808F019FA0022124BCDE9180108F036
:104680008DF804D810490E48C0F8E81112E01B98C4
:1046900008F00AFA00220D4BCDE9180107F044FF9B
:1046A00004D20B490648C0F8E81103E004491B98FE
:1046B000C1F8E80143B000BD00E080400000C04107
:1046C00090090020004056400000B242004056C011
:1046D0000000B2C210B50446012C0DD04448007849
:1046E00000F0010008B900F015F9002001F046FDC6
:1046F00000204049087010BD3F48007830B10128C3
:104700001ED0022843D003286AD158E03B49D1F893
:10471000D8013B4908F092FB0ED83849D1F8C401C2
:10472000384908F08BFC03D801203349087006E0B3
:1047300003203149087002E002202F49087053E03D
:104740002B48007800F0010008B900F0E3F82B498D
:10475000D1F8D8012C4908F071FC06D92749D1F8C5
:10476000C4012A4908F06AFB08D8002001F006FDC0
:104770000020204908702049087007E0012001F05E
:10478000FDFC01201B4908701B4908702CE000202B
:1047900001F0F4FC0020174908701548007800F07B
:1047A000010008B100F034F811480078C0F300109F
:1047B00008B100F09BF800200F49087014E00020B9
:1047C00001F0DCFC00200B4908700948007800F07B
:1047D000010008B900F09EF800200749087003E0C6
:1047E00000200549087000BF00BF00BF83E700003C
:1047F000A4000020A5000020B000002090090020A7
:104800000000A0400000F041000020410000E04115
:1048100010B510231422D021014801F051FE10BD23
:10482000984800202DE9F04100242C48C06810B9B8
:10483000601EBDE8F0814FF488731422D02128480F
:1048400001F03EFE044600232922D021244801F035
:1048500037FE044411231522D021214801F030FEF7
:1048600004441E4988684FF0834108F01BFB07464B
:104870004FF07E5108F0D6FC064608F093FA85B258
:104880002B461A22D021164801F01AFE044413497F
:104890004868144908F0C6FC0746134908F002FBB3
:1048A000064608F07FFA85B22B461B22D0210C4821
:1048B00001F006FE04444FF461631D22D021084834
:1048C00001F0FEFD044445F260431E22D02104485D
:1048D00001F0F6FD04442046ABE7000088480020C4
:1048E00098480020000074400000A04210B54FF42A
:1048F00088731422D021064801F0E2FD142000F054
:104900005BF910231422D021014801F0D9FD10BD1C
:104910009848002010B54FF488731422D021024823
:1049200001F0CEFD10BD00009848002010B54FF4F6
:104930008071024800F085FD10BD000000080140B4
:10494000012016498882002008605A2088872D207F
:10495000A1F8420012484863124888635A20C88769
:10496000A1F84000400708610F4888600F48486080
:104970004FF08240C8600E4848620E48086200202E
:1049800088623C20C885122088854FF4967048863E
:104990000E200886084888617047000090090020B2
:1049A00000003442000007430000F0410000F242E2
:1049B000CDCC8C409A99F93F0000404010B50220C0
:1049C00000F0B0F8002864D03248006820F00200FF
:1049D0003049086000212F480838FDF780FE00218B
:1049E0002C480838FDF7DCFD022000F081F800209B
:1049F0002949087031E000212848274A127840F8F8
:104A000022100020264908701EE02549097801EB94
:104A10008101214A12781144224A32F8110008F02B
:104A2000F9F904461D481C4A127850F82210204615
:104A300008F066F81949184A127841F82200184817
:104A40000078401C16490870154800780A28DCDBFD
:104A500011480078401C104908700F48007805285C
:104A6000C9DB0E480068104908600C4840680F49CF
:104A700008600A4880680E4908600848C0680D4907
:104A80000860064800690C49086000210B4800F0E6
:104A90003DF810BD0824014014010020F84D00200D
:104AA00015010020944D0020180100201C01002059
:104AB00020010020280100202401002008000240DD
:104AC00010B504464FF40041074800F0BAFC00213D
:104AD000064800F01BF80548001D04600121001F76
:104AE00000F014F810BD0000000801405804024016
:104AF00000F0805111B10349086001E002494860AB
:104B000070470000040402400000024021B1026826
:104B100042F00102026004E002684FF6FE731A40A0
:104B20000260704701460020002201F0805313B15B
:104B3000054B1A6801E0054B1A6802EA01030BB144
:104B4000012000E000207047000402400000024005
:104B50001AB103680B43036002E003688B430360F0
:104B6000704710B50022026847F6F0739A430C6A4A
:104B70008B6823430C6923434C6923438C6923438B
:104B8000CC6923434C6A23438C6A23431A43026053
:104B9000CB6843600B6883604B68C36010BD0C2119
:104BA00005E00C2100BF0A1EA1F10101FBD1021E8C
:104BB000A0F10100F5D1704706E0482100BF0A1EB0
:104BC000A1F1010359B2FADA021EA0F1010358B2B1
:104BD000F3DA704710B51449D1F8C801134908F049
:104BE0002DF915D812480078401C11490870084664
:104BF0000078142817DB002008700B48D0F8F40167
:104C000020F0806000F180600749C1F8F4010AE0FB
:104C10000020074908700448D0F8F40120F08060B3
:104C20000149C1F8F40110BD900900200000704155
:104C3000C400002010B56C4890F8AF01012863D182
:104C400000206A4908806A480088401C684908803A
:104C500008460088052804DA6348D0F8B40165499D
:104C6000086063480088B0F5167F42DD0020604987
:104C700008805D48D0F8B4115E48006808F0D2FAA8
:104C800004464FF03F4108F0D9F809D25648D0F811
:104C9000F40120F00200801C5349C1F8F40107E040
:104CA0005148D0F8F40120F002004F49C1F8F40156
:104CB0004D48D0F8B4114F48006808F0B3FA0446E4
:104CC0004FF07E5108F0BAF90BD34748D0F8B41131
:104CD0004848006808F0A6FA0446474908F0AEF8CC
:104CE00008D24148D0F8F40120F020003E49C1F834
:104CF000F40177E03C48D0F8F40120F020002030A7
:104D00003949C1F8F4016DE0374890F8AF01022845
:104D100063D100203649088034480088401C33495C
:104D2000088008460088052804DA2F48D0F8B40126
:104D3000304908602D480088B0F5167F52DD00200C
:104D40002A4908802848D0F8B4112A48006808F099
:104D500069FA04464FF07C5108F070F909D22248F4
:104D6000D0F8F40120F00200801C1F49C1F8F401C2
:104D700007E01D48D0F8F40120F002001A49C1F8FC
:104D8000F4011948D0F8B4111A48006808F04AFA3A
:104D900004464FF07E5108F051F90BD31248D0F879
:104DA000B4111448006808F03DFA0446124908F0AE
:104DB00045F808D20C48D0F8F40120F020000A4948
:104DC000C1F8F4010EE00848D0F8F40120F020000A
:104DD00020300549C1F8F40104E0002004490880AE
:104DE0000249088010BD000090090020C200002088
:104DF000C0000020BC000020000080BF70B54D48FE
:104E000090F8AE01002864DD4A4A9169D2F8B801F1
:104E100008F014F90CD94748D0F8B811464808F002
:104E200041F8044643488169204608F007F91DD837
:104E300000204249087042480078401C40490870F0
:104E40000846007807F05CFB044600223D4B07F063
:104E5000A5FC0BD200203A4908703648D0F8F4017E
:104E600020F00100401C3349C1F8F4013149886940
:104E7000354908F017F804462E48D0F8B8112046F6
:104E800008F0DCF82AD82B498869304908F00AF87C
:104E900004462848D0F8B811204607F0CFFF1DD8A7
:104EA00026480078401C2549087008460078642888
:104EB00014DD00200870224908701E48D0F8F40163
:104EC00020F001001B49C1F8F401002020490870BE
:104ED00004E000201949087019490870154890F835
:104EE000F40100F0010008B31A480088401C194979
:104EF000088008460088B0F5966F1ADD002008800B
:104F000013480078401C12490870084600780828A9
:104F100008DA0848D0F8F40120F001000549C1F88A
:104F2000F40106E009200A49087002E0002009495E
:104F3000088070BD90090020000080BFB4000020F0
:104F4000B500002000002C406666663F666666BFBE
:104F5000B6000020B800002010B53A49886B4FF029
:104F6000804107F0CDFD04463648D0F8B411204604
:104F700007F064FF14D234480078401C32490870AE
:104F80000846007832285CDD342008702D48D0F8BF
:104F9000F40120F0080008302A49C1F8F40150E07B
:104FA0002849486B4FF0804108F03CF904462548F9
:104FB000D0F8B411204608F041F814D22248007805
:104FC000401C2149087008460078322839DD342019
:104FD00008701C48D0F8F40120F00400001D1949A5
:104FE000C1F8F4012DE01749886B4FF07E5108F0AD
:104FF00019F904461348D0F8B411204608F01EF8F9
:105000001FD21049486B4FF07E5107F079FD0446DE
:105010000C48D0F8B411204607F010FF11D2002040
:10502000094908700748D0F8F40120F00400054948
:10503000C1F8F4010846D0F8F40120F00800C1F8E6
:10504000F40110BD90090020BA00002010B500F056
:10505000E1F8352000F01EF800240AE00B4901EBCE
:10506000C42000F01DF800BF00F05AF80128FBD062
:10507000641C502CF2D3064800F012F800BF00F078
:105080004FF80128FBD000F065F810BD00A0020821
:1050900000F007080149C860704700000020024086
:1050A00030B5044604254FF4302000F0BFF8054623
:1050B000042D17D10C48006940F002000A4908612C
:1050C00008464461006940F0400008614FF4302018
:1050D00000F0ACF805460448006941F6FD7108404F
:1050E00001490861284630BD0020024004200B49D8
:1050F000C96801F0010109B101200EE00749C96842
:1051000001F0040109B1022007E00449C96801F077
:10511000100109B1032000E0042070470020024084
:1051200004200B49C96801F0010109B101200EE01A
:105130000749C96801F0040109B1022007E00449E8
:10514000C96801F0100109B1032000E00420704794
:10515000002002400348006940F0800001490861D6
:10516000704700000020024070B504460D4604263A
:10517000F00200F05BF80646042E11D109480069E0
:1051800040F00100074908612580F00200F04EF868
:1051900006460448006941F6FE710840014908616D
:1051A000304670BD0020024078B506460C46042506
:1051B00000200090E80200F039F80546042D24D1C3
:1051C0001348006940F00100114908613480E80289
:1051D00000F02CF80546042D10D1B01C0090200CD6
:1051E00000990880E80200F021F8054608480069A7
:1051F00041F6FE7108400649086106E0044800696E
:1052000041F6FE71084002490861284678BD000059
:105210000020024002480349486003484860704744
:105220002301674500200240AB89EFCD00B502465F
:105230000423FFF75BFF034603E0FFF757FF034636
:10524000521E012B01D1002AF7D102B905231846BD
:1052500000BD000010B500F06BFF4FF4C8500849C6
:10526000A1F8A80100F0C8FD0549B1F8A81108434C
:105270000349A1F8A80107210148A0F8AA1110BD0F
:10528000900900202DE9F04102460025002600206B
:1052900000230024002791F803C00CF00F0591F8BB
:1052A00003C00CF0100CBCF1000F03D091F802C049
:1052B0004CEA050591F800C0BCF1000F31D014682C
:1052C00000202BE04FF0010C0CFA00F3B1F800C005
:1052D0000CEA03069E4220D183004FF00F0C0CFA1B
:1052E00003F7BC4305FA03FC4CEA040491F803C03D
:1052F000BCF1280F06D14FF0010C0CFA00FCC2F8EB
:1053000014C00AE091F803C0BCF1480F05D14FF07A
:10531000010C0CFA00FCC2F810C0401C0828D1D3C4
:105320001460B1F800C0BCF1FF0F34DD54680020F8
:105330002EE000F1080C4FF0010808FA0CF3B1F868
:1053400000C00CEA03069E4221D183004FF00F0CEF
:105350000CFA03F7BC4305FA03FC4CEA040491F889
:1053600003C0BCF1280F05D100F1080C08FA0CF8B5
:10537000C2F8148091F803C0BCF1480F07D100F1C6
:10538000080C4FF0010808FA0CF8C2F81080401C15
:105390000828CED35460BDE8F0810000F0B50A467D
:1053A000002300240021002500F00046B6F1004F44
:1053B00002D11D4EF16901E01B4E7168C0F3034537
:1053C00083B200F44016B6F5401F08D121F0706199
:1053D000154E766826F07066134F7E6012E000F47A
:1053E0008016B6F5801F06D1032606FA05F4A14300
:1053F00041F0706106E0460D360103FA06F6B1434E
:1054000041F0706122B1460D360103FA06F63143D0
:1054100000F00046B6F1004F02D1034EF16101E009
:10542000014E7160F0BD0000000001400246002006
:1054300093680B400BB1012000E0002070474161F0
:10544000704701617047000000487047C046002067
:105450002DE9F84F83460F460024002500266946B3
:10546000232004F0ABFE9DF800000443694622208F
:1054700004F0A4FE200204B29DF800000443694633
:105480002B2004F09BFE9DF80000054369462A206E
:1054900004F094FE280205B29DF800000543694619
:1054A0002D2004F08BFE9DF80000064369462C2059
:1054B00004F084FE300206B29DF8000006436946FF
:1054C000182004F07BFE9DF80000382813D13046E8
:1054D00007F088FC8046284607F084FC8146204679
:1054E00007F080FC824642464946FDF745FF38609A
:1054F0000020BDE8F88F4FF0FF30FAE72DE9F04FBC
:1055000091B04FF0000AB549D1F8E80107F0CCFAA4
:105510000446B34AB34B07F041F97DD8AF49D1F8FF
:10552000EC01B14907F07EFEB0490E9007F05CFB3C
:10553000834607F0B9FA0646AD4AAE4B07F030F89D
:10554000044606F01DFD814606F018F98046A34981
:10555000D1F8E801A54907F047FB834607F0A4FA14
:105560000646A34AA34B07F01BF8044606F008FDC5
:10557000814606F04BFC41460F9005F0D1FF824674
:10558000504607F091FA8046994A9A4B06F0DEFDA4
:1055900006460022984B07F003F8044606F0F0FC9C
:1055A00082468E49D1F8EC0107F07EFA04460022CB
:1055B000914B06F0B9FF7DD88848816A504607F0C4
:1055C0003DFD79D28D49504607F038FD74D28348AD
:1055D000816A504607F026FE84490E9007F004FBCE
:1055E0000F9007F061FA0646814A824B06F0D8FF19
:1055F000044606F0C5FC834606F02EFB814677483C
:10560000416A484607F04EFC80467448016A4046AD
:1056100007F014FD05D800E0DBE0504611B0BDE80E
:10562000F08F6E48816A504607F0FCFD6F4902908A
:1056300007F0DAFA039007F037FA6D4A6D4BCDE9BF
:10564000040106F0ADFFCDE9060106F099FC0890D3
:1056500006F002FB83466148416A584607F022FC87
:1056600009905E48016A099807F0BEFA0A9005F0B1
:10567000C5FE0B9007F018FA5D4A5E4BCDE90C01B0
:1056800006F064FD064600225B4B06F089FF0446E7
:105690000D465549504607F033FA064607F004FA1E
:1056A00022462B46CDE90E0107F014F9804606F09C
:1056B00067FCB3E705E0FFE74849888F07F0AAFBDE
:1056C000ACE74648816A494807F01AFA0446514651
:1056D00007F0B4FC78D24A49504607F0AFFB73D2CA
:1056E0003E4A516A106A07F07FFA51460F903F48D0
:1056F00007F098FD0D903948816A0D9807F000FA7F
:1057000083463A4907F070FA0E9007F0CDF9064645
:10571000374A384B06F044FF044606F031FC814618
:1057200006F09AFA80460F9907F088FC01D8504697
:1057300074E72A48816A504607F074FD2B490190AE
:1057400007F052FA834607F0AFF9294A294BCDE911
:10575000020106F025FFCDE9040106F011FC8146A7
:1057600006F07AFA07901D48416A079807F09AFBFD
:1057700008901A48016A089807F036FA804605F042
:105780003DFE099007F090F9194A1A4BCDE90A013C
:1057900006F0DCFC06460022174B06F001FF04462B
:1057A0000D461149504607F03DFD064607F07CF9CD
:1057B00022462B46CDE90C0106F014FCCDE90E0182
:1057C00006F0DEFB2AE7FFE70449888F07F022FB9B
:1057D00024E70249888F07F01DFB1FE7900900208E
:1057E0009A9999999999B93F0000B44200003443BD
:1057F0004AD8124DFB21094000806640000040401D
:105800000000314338B5044600256B463422D021D0
:105810003F4800F063FD054615B14FF0FF3038BD3D
:10582000BDF8000000F4807088B1207820F00100FD
:10583000401C2070207820F002002070207820F09A
:1058400004002070207820F00800207030E02078DC
:1058500020F001002070BDF8000000F0800028B1A9
:10586000207820F00200801C207003E0207820F0D7
:1058700002002070BDF8000000F0400028B1207840
:1058800020F00400001D207003E0207820F00400C8
:105890002070BDF8000000F0180028B1207820F03A
:1058A00008000830207003E0207820F00800207005
:1058B000BDF8000000F0040028B1207820F01000AE
:1058C0001030207003E0207820F010002070BDF828
:1058D000000000F0020028B1207820F020002030E5
:1058E000207003E0207820F020002070BDF8000038
:1058F00000F0010028B1207820F0400040302070F6
:1059000003E0207820F040002070002087E70000AE
:10591000984800202DE9F843044600256B463D22B7
:10592000D0210D4800F0DAFC05468DB9BDF9000024
:1059300007F058FA8046094907F0B4FA07464FF0D5
:10594000834107F051F90646054907F04DF92060FB
:105950002846BDE8F883000098480020DC80BB3F63
:1059600000007A4410B50024674800F0C3F90444ED
:105970006548001FFFF7CEFF04446348083000F07D
:10598000E5F804446148FFF73DFF04445CB900209A
:105990005F4908705F48D0F8F40120F000405D498D
:1059A000C1F8F4011AE05A4801780078401C584ABE
:1059B0001070052912DD0520114608705548D0F8F1
:1059C000F40120F0004000F100405249C1F8F40118
:1059D00000215048C0F8D011C0F8CC114B480078D5
:1059E000C0F3401058B949480078C0F3801030B96E
:1059F0004849D1F8D001484907F020FA18D80020CA
:105A00004649088046480088401C454908800846A9
:105A10000088142829DB002008803E48D0F8F401D3
:105A200020F0005000F100503A49C1F8F4011CE0A8
:105A30003849D1F8D0013B4907F000FB15D80020C8
:105A40003749088035480088401C3449088008469A
:105A50000088642809DB002008802E48D0F8F40173
:105A600020F000502B49C1F8F4012A49D1F8D001A7
:105A70002D4907F0E3F919D800202C4908802C485B
:105A80000088401C2A49088008460088B0F5167F27
:105A900030DB002008801F48D0F8F40120F080504F
:105AA00000F180501B49C1F8F40123E01949D1F8F5
:105AB000D001204907F0C2FA17D800201C490880FD
:105AC0001A480088401C1949088008460088B0F52B
:105AD000967F0FDB002008800E48D0F8F40120F0FC
:105AE00080500C49C1F8F40104E000200F490880FF
:105AF0000F4908800749D1F8D00100F01DF8054989
:105B0000C1F8D40110BD0000600B0020A4000020EB
:105B1000A6000020900900200000B041AC00002049
:105B2000AE0000200000BC410000C441AA000020DB
:105B3000A80000200000D44110B504460248C16806
:105B40002046884710BD0000884800202DE9FE4F00
:105B500004464FF0000A02AB4022D021484800F032
:105B6000BDFB8246BAF1000F23D1BDF9080007F052
:105B700039F90746434907F0C3FA0546BDF908005D
:105B800007F030F90746404907F08CF906462946E8
:105B900007F02AF881463D49484607F04FF909D8F1
:105BA00049463B4807F07EF905463A4906F0A8FF0A
:105BB000206062E03549484607F040FA0ED232498B
:105BC000484607F03BF909D84946334807F06AF9D7
:105BD0000546324906F094FF20604EE02A494846C7
:105BE00007F02CFA18D22E49484607F027F913D8A7
:105BF000484606F059FF07462A4A2B4B06F0D0FCD0
:105C000005464FF00042294B06F0ECF9CDE90001C2
:105C100006F0B6F9206030E02149484607F00EFA58
:105C20000ED22349484607F009F909D849462148C8
:105C300007F038F90546204906F062FF20601CE0B5
:105C40001B49484607F0FAF90ED21C49484607F0AE
:105C5000F5F809D849461A4807F024F905461949C4
:105C600006F04EFF206008E04946174807F01AF991
:105C70000546164906F044FF20605046BDE8FE8FF9
:105C80009848002000AAAA46000020419A9999400D
:105C9000B0031CC19358B44213F271C0E9A6764216
:105CA000CDCC644164CC5D4BC88700C0E9A64640BA
:105CB0003333B3418885A2BFDB7906420000E4415B
:105CC000D34D62BF1D5AC9414F1EB6BEDD24EC4004
:105CD00010B5002440210648FFF7A8FB04436006E6
:105CE000040E80210248FFF7A1FB0443204610BDAB
:105CF000001401402DE9F843044600256B463A2282
:105D0000D0210C4800F0EAFA054685B9BDF900003B
:105D100007F068F88046084907F0C4F807460749C5
:105D200007F0C0F80646064906F05EFF20602846E8
:105D3000BDE8F883984800200000E040DBE0443EE6
:105D400000007A44F0B50346144620466FF0010582
:105D5000DE1703EB9676B610A3EB86062EB9642603
:105D600093FBF6F706FB173636B94FF4C87693FB6C
:105D7000F6F706FB17360EB94FF0FF35032906DAA2
:105D8000012901D1002200E01F2210441BE0072955
:105D90000BDC0A4601EBD27677104E1EC6EB0616D8
:105DA00007EB46062E4430440DE005F1D606A1F17E
:105DB0000807C7EB071706EB4707CA1F02EBD276A7
:105DC00007EB66063044F0BD70B507490748006828
:105DD00007F068F80546064907F064F804460549E7
:105DE00006F002FF70BD0000333353402001002055
:105DF000BE9F4E410000204710B500244FF40071B3
:105E00000A48FFF713FB04436006040E4FF4807149
:105E10000648FFF70BFB04436006040E802103488D
:105E2000FFF704FB0443204610BD000000180140AA
:105E300070B509490948006807F034F806464FF084
:105E40008B4106F0D1FE0546054907F0EBF9044603
:105E5000044906F0C9FE70BD00000442180100208C
:105E600000002543000030410146C1EBC100024A59
:105E700002EB8000007E7047B04800200146C1EB75
:105E8000C100024A02EB8000807E7047B0480020CB
:105E900070B507490748006807F004F80546064949
:105EA00007F000F80446054906F09EFE70BD0000AC
:105EB000333353401C010020BE9F4E410000204759
:105EC00070B509490948006806F0ECFF06464FF036
:105ED0008B4106F089FE0546054907F0A3F9044603
:105EE000044906F081FE70BD000004422801002034
:105EF000000025430000304170B509490948006899
:105F000006F0D0FF06464FF08B4106F06DFE0546C9
:105F1000054907F087F90446044906F065FE70BD9F
:105F2000000004422401002000002543000030410D
:105F3000F8B5044600266B46002292210F4800F077
:105F4000CDF90646BEB99DF80150BDF8000000022B
:105F500000B20090BDF8000000F47F4000B2009055
:105F6000BDF9000028430090BDF90000C11700EB07
:105F70001161091221803046F8BD00000C4E00204E
:105F80002DE9FC4705460E4617469846DDE90A9A74
:105F900000240020009001904FF480716348FFF7C7
:105FA0004EFA4FF400716148FFF74BFA80215F48C9
:105FB000FFF745FA0A20FEF7F2FD00BF5BE04FF461
:105FC00080715A48FFF73DFA0A20FEF7E8FD182CC9
:105FD00018DA40215548FFF729FA012841D1204617
:105FE000E11704EB5171C910A4EBC10201219140EA
:105FF0006A4602EBE402127811436A4602EBE402BD
:1060000011702EE01C2C10DA40214848FFF70EFAE0
:10601000012826D19DF80300A4F1180101228A402D
:106020001043C0B28DF803001BE0342C19DA402174
:106030003E48FFF7FBF9012813D1201DC11700EBE3
:106040005171C910A0EBC102012191406B46221D84
:1060500003EBE20212781143CAB2211D03EBE10106
:106060000A704FF480713148FFF7E9F90A20FEF712
:1060700096FD601CC4B2342CA1DB4FF400712B4898
:10608000FFF7DDF99DF8000000F00F009DF800100B
:10609000C1F3021101EB810100EB410028809DF862
:1060A000010000F00F009DF80110C1F3021101EB97
:1060B000810100EB410030809DF8020000F00F00EC
:1060C0009DF80210C1F3011101EB810100EB4100C9
:1060D00038809DF8040000F00F009DF80410C1F313
:1060E000011101EB810100EB4100A8F800009DF8CF
:1060F000050000F00F009DF80510C1F3001101EB41
:10610000810100EB4100A9F800009DF8060000F0B5
:106110000F009DF80610090901EB810100EB410019
:1061200000F2DA70AAF80000BDE8FC870010014018
:1061300008B50121402003F015F98020ADF80000DA
:1061400004208DF8030002208DF8020069460A48F9
:10615000FFF798F84FF48070ADF8000069460648E4
:10616000FFF790F84FF40070ADF800006946024860
:10617000FFF788F808BD00000018014010B504467C
:10618000012C04D181020548FFF75BF904E04FF4CC
:1061900080610248FFF753F910BD0000001801406C
:1061A00008B50121402003F0DDF84FF48060ADF820
:1061B000000010208DF8030002208DF802006946CF
:1061C0000448FFF75FF84FF480610248FFF737F9A2
:1061D00008BD00000018014070B504460025A18AE2
:1061E0002069FFF72CF921896068FFF72AF901205F
:1061F000FEF7E2FCA18A2069FFF723F90320FEF7EE
:10620000DBFC21896068FFF711F9012800D1012525
:10621000A18A2069FFF713F90120FEF7CDFC28467B
:1062200070BD70B504460D46A18A2069FFF707F9D5
:106230000120FEF7C1FC21896068FFF702F9002008
:106240002870072620E0A18A2069FFF7F8F80120CE
:10625000FEF7B2FCA18A2069FFF7F3F80320FEF7EE
:10626000ABFC21896068FFF7E1F8012803D12978A8
:10627000B04001432970A18A2069FFF7E0F80220AD
:10628000FEF79AFC701E46B2002EDCDA70BD38B5FF
:1062900004460121206803F065F80121E06803F05D
:1062A00061F82089ADF8000014208DF80300032068
:1062B0008DF8020069466068FEF7E4FF2189606896
:1062C000FFF7BFF8A08AADF8000069462069FEF725
:1062D000D9FFA18A2069FFF7B4F838BD2DE9F8434A
:1062E00080460E4617461C4600250020208006F0FA
:1062F000FE06404600F0ADF83146404600F03EF85C
:106300004046FFF769FF00B16D1E3946404600F078
:1063100035F84046FFF760FF00B16D1E46F00106FC
:10632000404600F096F83146404600F027F84046D7
:10633000FFF752FF00B16D1E69464046FFF771FF3F
:1063400020889DF8001008432080404600F049F85E
:1063500069464046FFF765FF20889DF800104FF41E
:106360007F4202EA012108432080404600F055F8B0
:10637000404600F086F82846BDE8F8832DE9F04154
:1063800004460E460127072527E0A18A2069FFF76A
:1063900056F80120FEF710FC46FA05F000F0010067
:1063A00020B121896068FFF74CF803E0218960681B
:1063B000FFF745F80120FEF7FFFBA18A2069FFF7F0
:1063C00040F80520FEF7F8FBA18A2069FFF737F8AF
:1063D0000120FEF7F1FB681E45B2002DD5DABDE8BD
:1063E000F08110B50446A18A2069FFF728F82189B9
:1063F0006068FFF724F80120FEF7DEFBA18A206920
:10640000FFF71FF80520FEF7D7FBA18A2069FFF7E9
:1064100016F80120FEF7D0FB10BD10B50446A18A86
:106420002069FFF70CF821896068FFF70AF801205E
:10643000FEF7C2FBA18A2069FFF703F80520FEF7EB
:10644000BBFBA18A2069FEF7FAFF0120FEF7B4FB2F
:1064500010BD10B5044621896068FEF7F2FF0220E6
:10646000FEF7AAFBA18A2069FEF7EBFF0220FEF7E8
:10647000A3FB21896068FEF7E2FF0220FEF79CFB88
:1064800010BD10B50446A18A2069FEF7D8FF01208F
:10649000FEF792FB21896068FEF7D1FF0120FEF72D
:1064A0008BFBA18A2069FEF7CCFF0220FEF784FB5C
:1064B00021896068FEF7C5FF0120FEF77DFB10BD56
:1064C0002DE9F04180460E4617461D46002406F091
:1064D000FE064046FFF7BDFF31464046FFF74EFF40
:1064E0004046FFF779FE00B1641E39464046FFF78B
:1064F00045FF4046FFF770FE00B1641EE9B240461A
:10650000FFF73CFF4046FFF767FE00B1641E290A13
:106510004046FFF733FF4046FFF75EFE00B1641EC2
:106520004046FFF7AEFF2046BDE8F0812DE9F0417F
:1065300080460D4616461F46002405F0FE054046DF
:10654000FFF787FF29464046FFF718FF4046FFF751
:1065500043FE00B1641E31464046FFF70FFF404640
:10656000FFF73AFE00B1641E39464046FFF706FFCA
:106570004046FFF731FE00B1641E4046FFF781FF41
:106580002046BDE8F08110B5012002F083FF00BF76
:10659000612002F061FF0028FAD045F2555000F06A
:1065A00029F8042000F01AF84FF47A6000F01CF883
:1065B00000F00CF800F002F810BD00004CF6CC40E2
:1065C0000149086070470000003000404AF6AA20E8
:1065D00001490860704700000030004001494860F0
:1065E000704700000030004001498860704700009B
:1065F0000030004001490860704700000030004052
:1066000000211E4880F8AD11806CFF2802D11B4884
:10661000816431E0194890F8480000F0F00020282B
:1066200003D117481749086026E0144890F848003D
:1066300000F0F000102803D11348124908601BE055
:106640000E4890F8480000F0F000402803D10F48B1
:106650000C49086010E0094890F8480000F0F0008C
:10666000802803D10A480749086005E00021034853
:106670008164D0F8F0110165704700009009002096
:10668000B92B00088C0000203D6C0008856B0008C9
:10669000412900082DE9FE4F05460C46DFF8D4914C
:1066A000DFF8D4A1DFF8D4B14946284606F0FAFB5A
:1066B000074673480168484606F0F4FB8046714877
:1066C0000168404606F01CFD0646394606F018FAF9
:1066D0006D4908606A4800686C4908606C48016848
:1066E0006C4806F0DFFB02906B480168484606F0F4
:1066F000D9FB019069480168484606F0D3FB009039
:1067000067480168009806F0FBFC8046019906F096
:1067100089FD0746029906F0F3F90646514606F050
:10672000EFF9604908605A480168484606F0BAFB2C
:10673000064659480168304606F0E2FC5A490860AE
:1067400053480168484606F0ADFB064653480168C9
:10675000304606F0D5FC5549086051464C48006863
:1067600006F0CEF95249086059464E48006806F0D6
:10677000C7F9064631464B48006806F035FA4D49E0
:10678000086059464748006806F0BAF9064631469F
:106790004648006806F028FA474908603A48016808
:1067A000204606F03FFD074642480168384606F09D
:1067B00079FB064634480168304606F0A1F93149B4
:1067C000086031480168204606F02CFD07463A482B
:1067D0000168384606F066FB06462C4801683046DC
:1067E00006F08EF926490860324801684FF07E5065
:1067F00006F018FD06462B480168304606F052FBAD
:10680000274908602B4801684FF07E5006F00AFDCA
:10681000064625480168304606F044FB1E490860DC
:1068200025480168254806F03DFB07461D480168DC
:10683000384606F037FB06461C480168304606F02D
:106840005FF9164908601C4801681C4806F02AFBDD
:10685000074615480168384606F024FB06461448EA
:106860000168304606F04CF909490860054800689F
:10687000BDE8FE8F0AD7A33C0AD7233C0000204185
:10688000D8000020D4000020CC000020D000002040
:10689000F800002017B7D139F0000020F4000020E4
:1068A000EC000020DC000020E0000020E4000020DC
:1068B000E8000020FC00002000010020000080BF54
:1068C00010B50948007838B901200749087002213D
:1068D0000648FEF7B4FD06E00020034908700221D7
:1068E0000248FEF7AEFD10BD08010020001801406F
:1068F00008B50121402002F035FD0220ADF800006E
:1069000010208DF8030002208DF80200694604482B
:10691000FEF7B8FC02210248FEF793FD08BD000017
:106920000018014010B502210148FEF78AFD10BD94
:106930000018014010B502210148FEF780FD10BD8E
:1069400000180140F8B569460F2003F037FC0EE04F
:1069500069460F2003F032FC9DF80000692800D141
:1069600006E0002401E0601CC4B2322CFBDBEFE740
:1069700000BF0021112004F05FFB7021102004F003
:106980005BFB0121122004F057FB11E00020009076
:106990006946122003F012FC9DF8000000F001008F
:1069A00000B906E0002401E0601CC4B2322CFBDB1D
:1069B000ECE700BF0021012004F03EFB20210B206A
:1069C00004F03AFB00210D2004F036FB00210E20DC
:1069D00004F032FB4321102004F02EFB4221112051
:1069E00004F02AFB7421122004F026FB8C211320D2
:1069F00004F022FB0021142004F01EFB00211520CE
:106A000004F01AFB0021162004F016FBC421172005
:106A100004F012FB1021582004F00EFB382118203E
:106A200004F00AFB3821192004F006FB00240020A2
:106A30003C49086037E00020009069461E2003F0C2
:106A4000BDFB9DF8000000F0020002281DD10025CA
:106A50006946232003F0B2FB9DF800000543694618
:106A6000222003F0ABFB280205B29DF8000005438D
:106A7000284606F0B7F906462A480168304606F06F
:106A80003FF828490860601CC4B2052C0BDD204685
:106A900006F0C0F9064631462248006806F0A4F820
:106AA0002049086000E0C6E700BF002437E000206E
:106AB000009069461E2003F081FB9DF8000000F065
:106AC000020002281DD100256946232003F076FB31
:106AD0009DF8000005436946222003F06FFB280261
:106AE00005B29DF800000543284606F07BF90646EE
:106AF0000C480168304606F003F80A490860601C3B
:106B0000C4B21E2C0BDD204606F084F90646314641
:106B10000448006806F068F80249086000E0C6E72B
:106B200000BFF8BDC800002008B5002400BFFFF773
:106B3000DFFE24E0601CC4B21148C06C28B9062CEA
:106B400016DD0024FFF7BCFE12E00D48C06C0128E2
:106B500002D1FFF7EFFE0BE00948C06C022805D117
:106B6000022C05DB0024FFF7ABFE01E0FFF7DAFEA5
:106B7000FFF72CFD6A4600210A2001F089F9D9E7C8
:106B80009009002070B52A4890F8480000F0F00005
:106B9000402805D1264890F8480000F00F0018B1B1
:106BA00024482549086070BD0020214981F8AC01C6
:106BB000486B4FF07E5105F0A3FF04461C49B1F825
:106BC000420006F027F90546214606F037F908D2BB
:106BD0001749486B4FF07E5105F092FF1449086544
:106BE00020E01349886B4FF07E5106F01BFB0446F2
:106BF0000F49B1F8420006F00DF90546214606F0AE
:106C00001DFA08D20A49886B4FF07E5106F00AFB44
:106C10000749086506E00649B1F8420006F0FAF8AF
:106C2000034908650121024880F8AD1100BFBAE7A9
:106C300090090020016600088C00002010B51E4855
:106C400090F8480000F0F000102803D01B481C49C1
:106C5000086010BD0020184981F8AC01084690F882
:106C6000480018280CD10121134880F8AD110146C5
:106C7000486B4FF0804105F043FF0F49086518E06D
:106C80000D4890F8480014280CD101210A4880F8DA
:106C9000AD110146886B4FF0804106F0C3FA0649FA
:106CA000086506E00021044880F8AD11D0F8F01125
:106CB000016500BFCDE700009009002001660008D3
:106CC0008C0000202DE9F04F89B082460C464FF031
:106CD000000BD9460021504606F0B0F92FD8504697
:106CE00005F0E2FE074604F0B5FF054605F0C2FBDD
:106CF0008146504605F0D8FECDE9000104F0AAFF18
:106D000005460E46504605F0CFFE07462A46334656
:106D100005F0E0FDCDE9040199FBF4F004FB1095CA
:106D2000284605F0D6FBCDE90201DDE9042305F094
:106D300059F9CDE9060105F023F9834656E02AF01A
:106D4000004B584605F0B0FE074604F083FF0546A9
:106D500005F090FB814699FBF4F004FB109958462E
:106D600005F0A2FECDE9000104F074FFCDE90201B7
:106D7000584605F099FE0746DDE9022305F0AAFD15
:106D800005460E46484605F0A4FB2A463346CDE9A3
:106D9000040105F027F900221346CDE9060105F0AC
:106DA0002DFB02D14FF0000B20E0204606F01AF830
:106DB00006463146584605F017FF054605F0D6FF52
:106DC00000F10109504605F06FFE21F0004807462A
:106DD00009FB04F005F07DFB3A464346CDE9060188
:106DE00005F078FD054605F0CBF88346584609B016
:106DF000BDE8F08F08B5002000F03AF802F00CFA78
:106E00002BE0164A1649002000F058F800BB134842
:106E100000781449898A884202D010480078B8B9AD
:106E20000020114908800E48028810490B4802F0E2
:106E30009BF80D49088008460088002808DD0748AF
:106E4000007828B1094A08460188002000F08EF831
:106E50006A460021012001F01BF8D2E7944500208A
:106E60008400002090090020820000206844002057
:106E700010B5044614B1012C14D109E003F0CCFD87
:106E80000A480B4908600B480968C1F860020AE02B
:106E900003F0C2FD08480649486006484968C1F841
:106EA000600200E000BF00BF10BD0000CC48002021
:106EB0000C010020C14A0008304B00202DE9F041B0
:106EC00004460E469046284850F824000079AB2826
:106ED00042D1254850F824004179234850F8240035
:106EE0004079401C204A52F8242050710A2938DB8E
:106EF00056201D4951F82410087100201A4951F8F4
:106F000024104871184850F8240000883080002070
:106F1000154951F8241008803188134A52F824206A
:106F2000901DFCF709FA0746DFB900250EE00E4870
:106F300050F82400801D405D08F80500FF210A4834
:106F400050F82400801D4155681C85B23088A84245
:106F5000EDDC0020BDE8F0810020034951F8241049
:106F600048714FF0FF30F5E70C0100202DE9F041AA
:106F700005460E4690464FF400412648FEF761FA5A
:106F8000002406E000BF00BF00BF00BF00BF601CC0
:106F900084B24CF250308442F4DB002406E000BF9F
:106FA00000BF00BF00BF00BF601C84B24CF2503075
:106FB0008442F4DB002409E018F80410164850F865
:106FC000250000F599700155601C84B2B442F3DBD2
:106FD000114951F8251001F599703146FCF7ACF9CB
:106FE00007460D4850F8250000F5997087553A0A74
:106FF000094850F8250000F59970711C4254B21CE4
:1070000090B2054A52F82520D2F860128847BDE8B0
:10701000F0810000000801400C01002010B503F0D1
:10702000EDFC002411E00221204600F013F90020BD
:10703000C4EBC401064A02EB81010876C4EBC4012B
:1070400002EB81018876601CC4B2012CEBDB10BD21
:10705000B048002008B5002400BF00F075F9EFE04B
:10706000784890F8AD0100287ED0764890F8F40179
:10707000C0F34010002877D1724890F8F401C0F3B3
:1070800000100028F7D16F4890F8F40100F00100DB
:107090000028F0D16B4890F8F401C0F340000028BC
:1070A000E9D16848D0F8F401C0F340700028E2D17B
:1070B0006448D0F8F401C0F380600028DBD1614857
:1070C00090F8AC01012807D15E4908694FF0804172
:1070D00005F08AFD044600E000245B48007820B1FA
:1070E000012854D002287CD16CE0564AD2F8B41161
:1070F000106D06F097F8064652480169304605F0D3
:107100009DFF12D202214F4880F8B0114F480178FC
:107110000078401C4D4A1070C82937DD02204A49CA
:10712000087000201146087030E046480169484860
:1071300005F0B8FE0646434AD2F8B411106D06F0C9
:1071400071F80746314605F079FE14D201213D4819
:1071500080F8B0113D4801780078401C3B4A10701F
:10716000C82913DD012000E050E0374908700020F5
:10717000114608700AE0FFF751FF002032490870FD
:107180003249087000212F4880F8B0113DE02D4AA7
:10719000D2F8B411106D06F045F80646214605F008
:1071A0004DFF05D9274890F8F401C0F3800028B1BD
:1071B000FFF734FF00202449087002E0002000F0AF
:1071C000DBF822E01F4A116DD2F8B40106F02AF86C
:1071D0000646214605F032FF07D91A4890F8F40117
:1071E00000E00CE0C0F3C00028B1FFF717FF00205B
:1071F0001549087002E0002000F0E4F805E0FFF710
:107200000DFF00201049087000BF08E0FFF706FFDF
:1072100000200D49087000210A4880F8B0110020B4
:10722000FEF72CFE074981F8AE010020FEF71CFE98
:10723000044981F8AF016A460021012000F028FED0
:107240000EE7000090090020860000208700002043
:10725000000080BF70B504460D46012D0DD1C4EB72
:10726000C4020D4B03EB82021189C4EBC40203EB91
:1072700082025068FEF7E5F80CE0C4EBC402064B4E
:1072800003EB82021189C4EBC40203EB8202506853
:10729000FEF7D5F870BD0000B048002070B5044678
:1072A0000D46012D0DD1C4EBC4020E4B03EB82023F
:1072B000918AC4EBC40203EB82021069FEF7C1F8A5
:1072C0000EE0022D0CD1C4EBC402064B03EB82028C
:1072D000918AC4EBC40203EB82021069FEF7AFF897
:1072E00070BD0000B048002008B50121202002F048
:1072F00039F84FF44040ADF8000010208DF803003D
:1073000003208DF8020069460D48FDF7BBFF4FF4DE
:1073100000410B48FEF793F809480A4948604FF4CA
:107320000040088120200860054808614FF4804033
:1073300088822020C86000200876887608BD00007A
:1073400000140140B048002010B5FFF7CDFF03F056
:1073500005FA10BD08B500BF0CE0FDF74FFDFDF7C5
:10736000FBFDFDF767FCFDF735FC6A4600210520B3
:1073700000F08EFDF1E7000010B50446012C1CDC86
:107380000E480078A04207D1C4EBC4000C4901EBC1
:107390008000007E012810D0FFF740FE0120C4EBE2
:1073A000C401074A02EB81010876044804700121F8
:1073B0000078FFF773FF03F00FFB10BD04010020FE
:1073C000B048002010B50446012C1CDC0E480078A3
:1073D000A04207D1C4EBC4000C4901EB8000007E41
:1073E000022810D0FFF71AFE0220C4EBC401074A9E
:1073F00002EB810108760448047002210078FFF74F
:107400004DFF03F0E9FA10BD04010020B048002050
:1074100008B54FF4A06000F065F81D208DF800005D
:1074200000208DF8010001208DF802008DF8030086
:10743000684600F01FF80B208DF8000000208DF842
:10744000010002208DF8020001208DF8030068463B
:1074500000F010F834208DF8000001208DF80100B4
:1074600000208DF8020001208DF80300684600F02E
